:020000040000FA
:10000000400700207D010000311A00002F1A000077
:1000100000000000000000000000000000000000E0
:100020000000000000000000000000009920000017
:100030000000000000000000A51A0000852100005B
:1000400000000000950100009501000095010000EE
:10005000950100000911000095010000000000005A
:100060000000000000000000950100009501000064
:1000700095010000950100009501000000000000BE
:1000800000000000950100009501000095010000AE
:100090000000000000000000811000006D2800003A
:1000A00095010000950100009501000095010000F8
:1000B00095010000950100009501000000F002F894
:1000C00000F04CF812A030C8083824182D18AC42A3
:1000D00001D100F043F80FCCA246AB460CA730CFBD
:1000E0002D1B083F3F197C427F1E54442D090426D6
:1000F000F441641EAC4201D300F030F801263342D3
:1001000000D0FB1A3343984754465D46DFE70000B2
:10011000D05D0000F05D0000103A02D378C878C1CD
:10012000FAD8520701D330C830C101D504680C6039
:1001300070470000704700000023002400250026BF
:10014000103A01D378C1FBD8520700D330C100D593
:100150000B6070471FB51FBD10B510BD00F047FE06
:100160001146FFF7F7FF02F087FD00F05FFE03B4D2
:10017000FFF7F2FF03BC00F065FE0000094880F3C2
:1001800008880948804709480047FEE7FEE7FEE780
:10019000FEE7FEE7FEE7000005480649064A074B72
:1001A000704700004007002089210000BD000000CA
:1001B00040010020400700204003002040030020B1
:1001C000002203098B4273D3030A8B4258D3030BDB
:1001D0008B423CD3030C8B4221D312E003460B43EA
:1001E0007FD4002243088B4274D303098B425FD330
:1001F000030A8B4244D3030B8B4228D3030C8B425C
:100200000DD30902FF2212BA030C8B4202D3121241
:10021000090265D0030B8B4219D300E0090AC30B16
:100220008B4201D3CB03C01A5241830B8B4201D3C3
:100230008B03C01A5241430B8B4201D34B03C01AAC
:100240005241030B8B4201D30B03C01A5241C30A24
:100250008B4201D3CB02C01A5241830A8B4201D395
:100260008B02C01A5241430A8B4201D34B02C01A7F
:100270005241030A8B4201D30B02C01A5241CDD224
:10028000C3098B4201D3CB01C01A524183098B426F
:1002900001D38B01C01A524143098B4201D34B0158
:1002A000C01A524103098B4201D30B01C01A5241BB
:1002B000C3088B4201D3CB00C01A524183088B4242
:1002C00001D38B00C01A524143088B4201D34B002B
:1002D000C01A5241411A00D201465241104670479D
:1002E0005DE0CA0F00D04942031000D340425340A2
:1002F0009C46002203098B422DD3030A8B4212D362
:100300008901FC2212BA030A8B420CD38901921193
:100310008B4208D3890192118B4204D389013AD0D0
:10032000921100E08909C3098B4201D3CB01C01AA5
:10033000524183098B4201D38B01C01A52414309B8
:100340008B4201D34B01C01A524103098B4201D3A6
:100350000B01C01A5241C3088B4201D3CB00C01A13
:10036000524183088B4201D38B00C01A5241D9D22B
:1003700043088B4201D34B00C01A5241411A00D2AC
:1003800001465241104663465B1001D34042002BA8
:1003900000D54942704763465B1000D3404201B527
:1003A0000449002802DC491C084000E00846C04619
:1003B000C04602BDFFFFFF7F7047704770470000D7
:1003C0000246C80FC00781434B0030B54B405B006D
:1003D0009B0D20D01923DB06C91801231B05994268
:1003E00020DB0324A40704251346AB400BD3002BCA
:1003F00004D1EB0613409B00E34204D401246407BC
:10040000002312195941FF231B0599420BD2C90041
:100410000143500F09E0CB0204D501430803024316
:1004200005D0054830BDFF21C905084330BD084649
:1004300007210905884330BD0000C07FF0B5F94DA4
:100440000C091E092C402E402F468BB0A7437DD0AF
:10045000B543FCD0002E7AD0002CFCD00D465D4078
:10046000ED0F2543AC1BFF25AD0464190894C502AC
:10047000440DC9022143500DDC0204430120C00792
:1004800001430443D2020191200C110C00958C46CB
:10049000010423468B430A9161460904E24D8A43D5
:1004A0000991010A7D4449198039097805464D436F
:1004B00001266D18F605751B6943C90C640B891C70
:1004C0004C436418B5012C1B250C2E04B4434C433B
:1004D0004D43210C691889090591009DE90701D058
:1004E0000121C90704912C4601996708CD072F43C4
:1004F0004C08059DE10B4D432D0C2946664675437E
:1005000002950D4645432E46029D7D1BB441009544
:100510000D465D4301942C0C2F040D465543AE4609
:100520002D0C3D43029503947546049C2D04641BD9
:10053000049406D2029C039D641C00267541039519
:10054000029401AC70CC009F7D1B01E03EE162E1B2
:10055000B44109040095079101940599A4086143E9
:10056000090C0C464443650BE7040C46664674438D
:10057000A646640B3C43039502947446049DE40430
:100580002C1B049406D2029C039D641C002675411A
:100590000395029401AC70CC009F7D1BB441019483
:1005A0000C465C430095650FE7000C465443A64695
:1005B000640F3C43039502947446049DE4002C1B95
:1005C000049406D2029C039D641C00267541039589
:1005D000029401AC70CC009F7D1BB441AE09AF0604
:1005E000049DC900AD092F43049DA406AD060495E2
:1005F000079D344369180791059DE10B4D432D0C70
:1006000029466646754302950D4645432E46029D92
:100610007D1BB44100950D465D4301942C0C2F04C5
:100620000D465543AE462D0C3D4302950394754649
:10063000049C2D04641B049406D2029C039D641C3C
:10064000002675410395029401AC70CC009F7D1B80
:10065000B44101948C050694079C890A61180095A1
:100660000791019C0599A4086143090C0D46454377
:10067000680BEF040D46644665436C0B3C43049FD6
:10068000ED047D1BAC4602D20025641C6841009E2F
:10069000019D371B85410846584301950C46460F7E
:1006A000C5005443600F28436546E4002C1B02D26A
:1006B0000025401C6E41019D3F1AB5412846BD09E9
:1006C000800628438446A009BF064E020699A40668
:1006D00076180743079D002068410A99079019433F
:1006E0000020099B00906046FF1913434041E20F30
:1006F00064003A43A4460446D71A8C41A04203D969
:100700000120009020463A46C70F941840416246A7
:10071000D20F2243644664000494009CBE466400E9
:10072000D71AA446044602978C417746002F01D180
:10073000A04204D96046401C8446029A2046C40F59
:10074000A64694184041049A0546D20F22436446B7
:100750006400D31A8D417146002901D1A84202D903
:1007600028461A46641C10430122002800D0164374
:1007700061020020079B891904465C410223002C7A
:1007800002DB491813466441089DCE0A2D145D19F9
:100790004B056705E10A2C050D1908993E43C90769
:1007A0006940002B08D0934006D30022761C5141AB
:1007B000002B01D1760876001C4A002D43DB154240
:1007C00041D0AA433FD030460BB0F0BD06180D46CD
:1007D0004D41174C7642AC411AD395181C465C41EA
:1007E000134A6D42A24113D3012252054C00D44258
:1007F0000AD15C00D4420BD04B4002D59202114387
:10080000E2E749004908DFE75940C90FC90718E086
:1008100000200849D8E7054801420DD10342F7D02E
:10082000F2E700000000FF07385900000000F07FE9
:100830000000E0FF0000F87F114859400143C0125A
:1008400041400020C0E70123089A9B069A4205DC3C
:10085000032252078918C90FC907B5E705225207B5
:100860008918074A1143D2125140ADE770B51546B9
:100870001C4602460B4628462146FFF7DFFD70BDA9
:10088000FFFFFF7F30B50346CA02400D1043164DEF
:10089000164C0A1502D02043002A06DBAA1A002AA9
:1008A00012DDD040FF2A0BDC30BD5205520D01D1C4
:1008B00040004008AA1A07D4D0404042FF2A01DD78
:1008C000002030BD0028FCDD4A00002B01D00120B3
:1008D00000E00020101801225205D042F0D8C817BD
:1008E000C043604030BD00001E04000000000080D6
:1008F0001F22030C02D10F22000402D0030E03D0EA
:1009000004E00020014670470002083A030F01D1BD
:100910000001121F830F01D18000921E002801DB0D
:100920004000521E120551184205C01241181046CF
:100930007047C10FC90700D04042012292071143FE
:10094000D6E701218907D3E7F0B58B4C0F0925467F
:1009500089B0BD437BD01D092646AE43FAD00E4672
:100960005E402740F60F3E43254071D024012142CE
:10097000FBD0FF24AD19A4042D1B039501252D05E3
:10098000DB02DB0AC9022B43C90A29431E01090104
:10099000040F130F050121431701880B82039143B4
:1009A0002D098C46A90B1E438A039543B30B9A036A
:1009B00096433F09BA0B9403A74302962E467E4303
:1009C0000497B6464E19D7190C460196544305971D
:1009D0007E43371B7646BF1B3601B646BE0B361923
:1009E00000967646BC043719009C01D3641C009421
:1009F0006400002F01D001263443029E049F7543FA
:100A000066467E430496760034196E0034190094CD
:100A1000029C019E1C196643751BAE4606946546F2
:100A20004519059C05956C43594375460891691A0B
:100A30000191049E01465143A41B0491611A009C3C
:100A40000791E10605D061090122114302E072E03D
:100A50006EE06109089D00272C0A2D066918049D87
:100A60007C412A0A2D066918019D6241AC0DAD0238
:100A70006D185441079A910D920255196141029ADD
:100A8000644658435443069B059A5A43121A131B53
:100A90009A0E9B015B187A41010B0005C318514166
:100AA000220A200644195A419A4200D2491C0120C8
:100AB0004002814203D315230226F64302E01423A9
:100AC0000326F6432020C51AA9401746AF40DA4056
:100AD0000A4320460399D840091473181905511880
:100AE000039A3843D2075140AC4009D001229440C8
:100AF00006D30022401C5141002C01D14008400087
:100B00001E4A934212D3012203989206904207DBB9
:100B10000520400709181A480143C012414004E06B
:100B2000032040070818C10FC907002009B0F0BD15
:100B30000020F107FAE705180C464C4111486D42B8
:100B4000A04115D394181A465A410E486442904168
:100B50000ED301204A004005824209D35A00824246
:100B600006D35940C90F084AC90700201143DDE7E1
:100B700000200649DAE700000000FF07FE0700003A
:100B8000FFFFFF7F0000E0FF0000F07F0000F87F24
:100B90000121C9050123411842001B06D3185B0E31
:100BA0000AD0C1100722D206891840075242D1420A
:100BB00001D5520089187047090208D50146002A5C
:100BC00003D0C10FC907002070471046704742028A
:100BD00002D0002002497047072109050143F4E7CC
:100BE0000000F87FF0B5FF252D04C609C209FF27D4
:100BF00004462E400137CB093E4348402A402B4053
:100C00000746002A6BD0002B69D0AA4267D0AB42BE
:100C100065D0002800DA32460125ED0529432C4332
:100C200009022002090AD21A4B0C7F24E31A434C12
:100C3000000A7C44E35C7D242404121914145B0034
:100C4000A218884201D3521C00E0400049420C46E1
:100C50005C4324115C43DB016415E318040A5C4324
:100C6000C502200D0C4644436419250A5D43230345
:100C7000EC0C0D46654300030019EB184C42A342EF
:100C800001D35B18401CD4052018002B07D05B0053
:100C9000C91804D3401C002901D1400840003F215D
:100CA00089048A4209D3002A08DC1106090F04D0FE
:100CB000032149074018C00FC007F0BD01224100C1
:100CC000120689187F2252069142F6D20521490761
:100CD000C84201D59010F0BDFF20C005F0BD002F27
:100CE00000DA32461648AA4207D2AB4205D21902B0
:100CF000090E17D0F80FC007F0BDFF2563002D06C1
:100D0000AB42F9D84900A942F6D8AB4201D1A94279
:100D1000F2D0A94201D1002101E061004908D005CB
:100D20000843F0BD1102090EFBD0FF200243D0059D
:100D3000F0BD0A460146104654E700002A52000062
:100D40000000C07F10B501469E240002CA15A3070B
:100D5000002A02D01843002A04DBA21A002A0CDD64
:100D6000D04010BD1206120E01D140004008A21A58
:100D700003D4D04040420028F3DDFF224800120691
:100D8000904201D9002010BDC817C043584010BD83
:100D90001F22030C02D10F2200041CD0030E01D12C
:100DA0000002083A030F01D10001121F830F01D185
:100DB0008000921E002801DB4000521ED20551180F
:100DC000021251181922904004D3491C002801D165
:100DD0004908490008467047C10FC90700D0404282
:100DE000012292071143D3E701218907D0E7754615
:100DF00000F024F8AE46050069465346C008C0001E
:100E0000854618B020B5FFF7C7F960BCB646002686
:100E10000027C0C5C0C5C0C5C0C5C0C5C0C5C0C508
:100E2000C0C5403D490849008D46704710B504468D
:100E3000C046C0462046FFF79AF910BD00487047EB
:100E40000800002001491820ABBEFEE72600020082
:100E50007047B0B50025284600F046F900F00AF9C1
:100E60000320C401204600F081F800F0FDF800F0F6
:100E700043F9204600F020F90028FAD0204600F07F
:100E800075F8681C092D0546F1D300F0E1F800F073
:100E9000F9F8404240B200F027F900F0DFF82046B0
:100EA00000F064F8B0BD000010B50320C401204676
:100EB00000F002F9002802D1204600F057F800F0B7
:100EC000E1F81C4908801C4948431C4904F086FD90
:100ED0001B49088080B2FF212E3188420DD3204863
:100EE000017800290ED01F480078002809D0154845
:100EF000012101701448017010BD124800780028CB
:100F000005D010BD184901220A70027010BD0E49AB
:100F1000002008700D490A78022A08D10C4A107086
:100F200004220A700B4901220A700B490A700B490E
:100F3000087010BDBE000020E40C0000FF0F000090
:100F40003001002089000020BC0000209900002012
:100F5000C7000020F5000020FC0000208A000020CF
:100F6000860000208700002088000020FF21CA435F
:100F7000C1431143C005554803D4C2680A40C2604A
:100F8000704702680A4002607047C046F0B52B49BE
:100F90000B1F1A680124A2431A6002781C6870258E
:100FA000AC435207520EA2181A6084791D680222BF
:100FB0009543E407A40F2C191C60037A0C680825DC
:100FC000AC43DB071B0FE3180B6084780D683023FC
:100FD0009D43E407E40E2C190C608478A40040259E
:100FE0002C400E68AE4334190C60858800242E46D0
:100FF000E640F60703D1641C092CF8D109240D68DA
:1010000015430D600F2634400D46083D2F68B74349
:101010003C192C60D2430C6814400C60C4790E68F3
:101020001640E207920FB2180A60296899432960B6
:101030004078296801432960F0BDC04688440040DB
:1010400001210172818000218170C180018070477F
:101050002C480168012291430160704721480168D2
:1010600001229143016070472648016801220A432A
:10107000026070471B48016801220A430260704702
:10108000704700000F2108020A4A1346083B1B68FC
:101090001B0707D4136852680A40F0301901014059
:1010A000881870475168126812020240C8B21018BE
:1010B0007047C04690440040C105044900D40C313B
:1010C00009680840C0B2411E884170478044004012
:1010D00004490A6804239A43C007400F10180860A7
:1010E0007047C046C04400403F21014001480160B4
:1010F0007047C046C44400400248016801220A43C8
:10110000026070478444004080B50348007800289E
:1011100001D000F04DF980BDA000002001218140E8
:10112000014801607047C0460818004006282ED8C4
:10113000784400794000874403120B192A2A2200C0
:1011400003200140124A1368834358181060704707
:101150000F48026830239A438907890E0CE00C4837
:1011600002680C239A438907090F05E008480268C2
:10117000C0239A438907090E51180160704704483B
:10118000426804239A43C907490F511841607047C8
:101190000018004070B50146584A214C2646354695
:1011A000131F1868460707D4C60609D4461E7042A6
:1011B0007041012807D009E00220012803D005E092
:1011C0000320012802D16E1C002DE8D1002D00D192
:1011D0000420002800D070BD10680225284310604C
:1011E0005160106840210143116021461C6860076E
:1011F000284604D4E00608D4641E604260410128F9
:1012000006D14C1C0029F0D102E003200128F8D0BF
:1012100013680224A34313600029DCD1042070BDAD
:101220000100F5FF3548016880220A4302607047DB
:10123000F0B581B0314B324D2F463E461C1F22681F
:10124000570707D4D70609D4571E7A427A41012A94
:1012500007D009E00222012A03D005E00322012A77
:1012600002D1771C002EE8D1002E00D10422002AE2
:1012700040D11A680126009632431A6001802F4639
:101280003E462268570707D4D70609D4571E7A422C
:101290007A41012A07D009E00222012A03D005E0A1
:1012A0000322012A02D1771C002EE9D1002E00D1A1
:1012B0000422002A1AD1090C4180284621684A07D5
:1012C00007D4CA0609D4491E4A424A41012A07D016
:1012D00009E00222012A03D005E00322012A02D1FB
:1012E000451C0028E9D1002800D104221868009983
:1012F00088431860104601B0F0BDC0461010014090
:1013000001E0FFFF024803490160034901607047A3
:101310000410014023016745AB89EFCD10B5FFF7FD
:10132000F1FF0F20C4022046FFF734FF1A4801885E
:101330002046FFF77DFF5548018850342046FFF7CF
:1013400077FF16480188792004022046FFF770FFD6
:101350001348018850342046FFF76AFF114801887E
:101360003D2044022046FFF763FF42480188503485
:101370002046FFF75DFF0C4801787B2004022046E1
:10138000FFF756FF0948018850342046FFF750FF09
:10139000FFF748FF10BDC046A4000020B8000020A1
:1013A000A6000020A20000208B000020700000207A
:1013B000F0B593B002480078002803D183E2C0461C
:1013C000B200002006480168491C0160054F3868DA
:1013D000451C3D6004480178002909D106E0C0465B
:1013E000CC00002004010020110100200121017027
:1013F000064E30687F21CC05214604F0EBFB3060BF
:1014000003480088854205D8F4E1C0463401002035
:101410007000002002480078002803D1EAE1C046AD
:1014200012010020094D2868214604F0D3FB2860F2
:10143000FFF7AEFB064A074BFFF700F8FFF722FA6B
:1014400005490880002809D1CDE1C046DC00002014
:101450003D0AD7A3703D0E40AC00002000200A904A
:101460002860044801884E1C06800349088800282B
:1014700006D003E0AA000020A4000020401E08803F
:1014800002480188002905D002E0C046B4000020CF
:10149000491E0180FD4A1188002901D0491E118092
:1014A000FB4A1188002901D0491E1180F94A118890
:1014B000002901D0491E11800488E008F6494843FC
:1014C0000B46000D7D21CF007843251A0B94F3487D
:1014D0000580B0B2C1085943090D7943711A1291C0
:1014E00089B20D91401A394604F09AFA0890EC49F5
:1014F0000870FB4802880992D008FD494843000D56
:101500007843101A0E9080B20490101A39460F9743
:1015100004F086FA0690F8490870A9B2601A0C46E1
:101520000191394604F07CFA0790F44908702920AB
:10153000010108466043000C642460432F1AF04800
:101540000780084605960E4610910D994843000CF9
:101550006043129A101A0C9080B20290081A214629
:1015600004F05EFA0D90E7490870049A5643300C77
:1015700060430E9B181A0E9086B2901B2146119460
:1015800004F04EFA0390E0490870BDB20198401B88
:101590000095214604F044FA0490DC490870DC49C7
:1015A00008466843000C0A2460433F1AD948078064
:1015B000084602994843000C60430C9A101A80B206
:1015C000081A214604F02CFA0546D3490870D04881
:1015D0007043000C60430E9A101A80B2301A2146F4
:1015E000129404F01DFA0646CC480670B8B2009971
:1015F000081A214604F014FA0290C9490870F6212D
:101600004D430B469C270D9878430E971824089A53
:1016100062430D940599511809184919C14A11706E
:101620000C935E4303987843069A624309995118D4
:1016300009188919BC4A1170029D5D4304987843CA
:10164000079A62430B99511809184819B74908704D
:10165000A4480188C808A64B5843000D0F9D684355
:10166000081A0F460791A349088082B21099514386
:101670000492090C119C6143401AA149088084B26C
:101680000B94A3496143090C129C6143411A0691D2
:10169000A048018094480488E0085843000D68433E
:1016A000261A099493480680B81A294604F0B8F916
:1016B00005909F490870B7B2E01B294604F0B0F9C5
:1016C00008909C49087010987843000C119C604366
:1016D000351A8B4805800B98049A101A214604F09D
:1016E0009FF9064694480670A9B2781A0F460391EE
:1016F000214604F095F90490904908708448784395
:10170000000C129948432A1A0292824802800698D5
:1017100080B20B9A101A04F083F9894908700C9F63
:1017200078430E9C66430D9D059A6A4307995118AC
:101730008919081883490870029880B20399081A19
:10174000129904F06DF9804908707843049B634353
:10175000089A6A4309995118C91808187B490870F2
:1017600062480688F00862494843000D0F994843D3
:10177000371A60480780BDB2701B04F051F90F9012
:101780007349087010986843000C119948433C1A3B
:101790005B480480A7B2E81B04F042F905466D4897
:1017A00005705B487843000C129A5043201A59493F
:1017B000088080B2381A114604F032F96649087080
:1017C0000C9A42430E9969430D980F9B5843801918
:1017D0004018801861490870FFF7A0FD3F480A993A
:1017E00001803A4F3C4D002038602868FFF7AAFA84
:1017F0005B4908805B4D5C4E37785C480078002878
:1018000016D0002F14D12878002811D1584800781C
:1018100058490978014307D157480178574A127847
:101820000A4301D10121017055480178491C01701A
:1018300054480178032912D300210170244A10680A
:101840001160514904F00CFA044622480088FFF761
:10185000CBFA01462046FFF7C5F94C490860002F36
:101860002ED04B48017802292AD0002928D0494996
:101870000A78521C0A7048490B78002BD2B211D159
:101880000B2A0FD3012008701AE0C046B8000020D0
:10189000A6000020A2000020C5200000C2000020F9
:1018A000D0000020022B0BD10B2A09D3002131706C
:1018B00007220270012028703048017037480170FB
:1018C0000220FFF72BFC13B0F0BDC046040100203E
:1018D0003401002070000020DC000020AC0000205B
:1018E000A4000020B8000020A6000020A2000020D4
:1018F000C5200000C2000020D1000020D20000203E
:101900003A0100201F0100202001002021010020B9
:101910009A19000000010020280100202901002060
:101920002A010020E9000020EA000020EB0000204E
:10193000D3000020D4000020220100202301002039
:101940002B010020EC0000202C010020ED000020E5
:10195000D5000020240100202D010020EE000020F1
:10196000BA000020980000208F0000208B0000208B
:10197000320100208C000020180100201A010020F4
:101980008E000020330100200000FA449C0000205B
:1019900099000020AF000020E50000201401002085
:1019A00002688A4302607047F0B584B0C368046976
:1019B0000090806803900291C8780190002603E0AF
:1019C0003B43761C082E22D001200746B7400199E0
:1019D0000F42F6D01946029A157810222A4002D0FA
:1019E000039B3B4301E0039BBB430393002A00D1CD
:1019F00002200B460299085C002803D03C43E8070C
:101A0000DED102E0BC43E807DAD1BB43D9E7009856
:101A1000C36004610399816004B0F0BD4068084070
:101A2000411E8841704702680A4302607047704750
:101A300070470000002809D41F210840012181407F
:101A400003480160BFF34F8FBFF36F8F7047C046ED
:101A500080E100E010B5002805D40322034693433B
:101A60000E4A9A1803E00C2202400B4BD21883074F
:101A7000DB0E8907090E9940FF249C401368A3439D
:101A80000B431360002805D41F2108400121814029
:101A90000348016010BDC04614ED00E000E400E022
:101AA00000E100E070470000F0B581B014460F4639
:101AB00007284AD84000C0467844808840008744C0
:101AC00007008700D5001D0144005E017D00CA00AB
:101AD000D6480026067007200E2103F085F908205D
:101AE000314603F081F9D2480078002819D1D14855
:101AF000009701270770D0480770D0480770D04D75
:101B00000F35102029463A4600F0C8FF112029461B
:101B10003A4600F0C3FF122029463A46009F00F0E3
:101B2000BDFFC8480078012800D195E1002800D009
:101B3000A6E1C5480670C5480670C5480670C54D83
:101B400004212846FFF72CFF5BE1C0480126067000
:101B5000C04D02212846FFF723FF04212846FFF746
:101B60001FFFB84900200870B149097800291CD12D
:101B7000B7490870B4490870AC490870AE4806709F
:101B8000AC480670AD480670AD4D0F3510202946A3
:101B9000324600F083FF11202946324600F07EFFD6
:101BA00012202946324600F079FF0720002103F079
:101BB0001BF90820032103F017F961E1A34801266E
:101BC000067007200E2103F00FF908200621DFE040
:101BD000FB480126067007200E2103F005F90820B6
:101BE000314603F001F9F7480078002818D1F6488B
:101BF0000670F7480670F54806703D46F54F0F37FA
:101C000010203946324600F049FF1120394632464D
:101C100000F044FF122039462F46324600F03EFFC6
:101C2000ED480078002800D02AE1EC48007801282F
:101C300000D175E1002800D022E1E94800210170BF
:101C4000E8480170E8480170E84D02212846FFF796
:101C5000A7FE0421D6E0DA480126067007250E21EA
:101C6000284603F0C1F80820294691E0D44801260F
:101C7000067007200E21009003F0B6F8D1480078D6
:101C8000002818D1D0480670D0480670D048067099
:101C90003D46D04F0F3710203946324600F0FEFE49
:101CA00011203946324600F0F9FE122039462F46FF
:101CB000324600F0F3FEC8480078002800D0DFE08C
:101CC000C6480078012800D13EE1002800D0D7E0C6
:101CD00008200225294603F087F8C1480021017039
:101CE000C0480170C0480170C04E30462946FFF719
:101CF00057FE04213046FFF753FEC1E00097BA4873
:101D000000260670AE4801270770B84D022128460C
:101D1000FFF746FE04212846FFF742FEAF48007851
:101D2000012802D0002804D13E46AD480670AD48D7
:101D30000670A4480078002817D1A3480126067031
:101D4000A3480670A1480670A24F0F3710203946ED
:101D5000324600F0A3FE11203946324600F09EFEC6
:101D600012203946324600F099FE0720002103F088
:101D70003BF80820032103F037F8009F80E09048EB
:101D80000126067007200E2103F02EF808200521F9
:101D900003F02AF88B480078002818D18A4806708A
:101DA0008A4806708A4806703D468A4F0F371020D1
:101DB0003946324600F072FE11203946324600F0B4
:101DC0006DFE122039462F46324600F067FE8248EB
:101DD0000078002854D181480078012816D00028C6
:101DE0004ED17F48002101707E4801707E4801700D
:101DF0007E4D04212846FFF7D3FD7D4800784D280D
:101E00003ED802212846FFF7CBFD39E07448067022
:101E10007448067074480670744D04212846FFF714
:101E200002FE734800784D2826D929E0BD00002025
:101E300012010020B1000020B0000020830000202B
:101E400072000020C800002068000020B7000020B9
:101E500069000020000C00406248012101705848D0
:101E600001705F480170614D04212846FFF7DBFDDA
:101E700064480078002803D002212846FFF7D3FDEC
:101E80000F2F0DD86048F840C00709D0B8005FA1F7
:101E90000958012002F0A8FF02200A2102F0A4FF45
:101EA000E0086A494143090D694801807D20C0006E
:101EB0004843221A6748028090B28008664B434329
:101EC000580C664D288064234343D31A644A138018
:101ED0009AB2644E5643F20C634E32800A2757433F
:101EE000DB1B624F3B80624B4B431B196324E44373
:101EF000604318185A34544300195E4C2080032064
:101F000002F072FF2988042002F06EFF318805205C
:101F100002F06AFF2188062002F066FF01B0F0BDE2
:101F20002F4806702F4806702F4806702F4E042148
:101F30003046FFF778FD334800780028A0D03048BD
:101F40000078002828D09BE72A4D2878002801D067
:101F500005210AE028480078002801D0062104E085
:101F6000264800780028009902D0082002F03CFFA3
:101F70001B4806701B4806701B4806701B4E042148
:101F80003046FFF750FD1E480078002800D077E764
:101F90001C480078002802D0022130466EE7144821
:101FA00000784D2800D96BE728780028F4D1124832
:101FB00000780028F0D1114800780028ECD15FE7C4
:101FC000B700002012010020B10000208300002093
:101FD000B000002072000020B6000020C8000020E1
:101FE0006900002068000020BD000020000C0040B7
:101FF000140100208C0000208F0000209800002099
:102000006F000020C70000203F800000000000009B
:1020100001000000020000000300000004000000B6
:1020200005000000000000000000000000000000AB
:1020300000000000000000000000000000000000A0
:1020400000000000000000000F000000C52000009C
:10205000C0000020C20000207B14000038010020D6
:102060003A010020CDCC0000FE000020000100203D
:1020700018FCFFFFC40000205E490A6818239A4339
:102080008307DB0ED2180A604000202210400B6844
:1020900093431818086070477047000070B51348E4
:1020A0000078401EC5B20B2D1FD8AE0010488159D4
:1020B00010200124224600F0F1FC0EA081591120CD
:1020C000224600F0EBFC17A081591220224600F0B6
:1020D000E5FC20A0405D2249087022A0405D244913
:1020E000087024A0405D2649087070BDC90000201A
:1020F000A05E0000780000207E0000207700002015
:10210000780000207E00002077000020780000206A
:102110007E00002077000020780000207E00002054
:1021200077000020770000207B0000207500002051
:10213000770000207B000020750000207700002041
:102140007B00002075000020770000207B0000202D
:1021500075000020000101000001010000010100E4
:10216000B000002001010100010101000101010096
:1021700083000020000001000000010000000100B9
:10218000B100002070470000B0B51A480146183968
:1021900001220A600246143A002111600246083A00
:1021A000E1231360021F116018220260FF224260C7
:1021B000026142628160C160C268D207FCD1C16025
:1021C00081610D4B1C68102214431C600724E443FA
:1021D0001D6825401D60036820251D4305600368B8
:1021E00023400360036808241C43944304600348AD
:1021F0000160B0BD180001400010014008ED00E092
:10220000F0B583B00124204600F034FB012800D053
:1022100099E2204600F00EFBE54A1078431C13704B
:10222000E4480178481E0D468541E348007846425F
:1022300046412E43E14D2D786F426F413743019463
:1022400003D0DF4C0025257010E0DD4D2F787F1C7A
:102250002F70FFB22E2F09D300272F70D94F3D7852
:102260006D1CECB20C2C00D901253D70DBB2962B15
:1022700000D068E200271770002E2DD0002900D171
:1022800061E2D1490978002900D05CE2CF4E317873
:102290004B1C3370CE490C7862426241019CDBB228
:1022A000032B00D31446002C00D04CE200240C7009
:1022B000002800D138E1C748012101700520FFF74F
:1022C000B9FB0220FEF72AFFBB4804700920400139
:1022D0006030FEF74BFE34E2BF4D20212846FFF769
:1022E0009DFB0646401E3146814100911021284643
:1022F000FFF794FB421E01469141002E0CD0B74AD5
:102300001378042B01D85B1C13701478B44AB54BB6
:10231000042C0FD9B44D0BE0B24A1378042B01D82A
:102320005B1C13701478B04AAC4B052C02D3AC4D37
:1023300001242C70009D17701F7000280CD0AB4832
:102340000278042A01D8521C02700378A848A94ACE
:10235000042B0FD9A84B0BE0A6480278042A01D819
:10236000521C02700378FB48FB4A052B02D3FB4B3F
:1023700001241C70019C07701770F9480170F9481E
:102380000570F94E3078002808D002252846FEF75F
:10239000C5FE05202946FFF75DFB3770F34800783E
:1023A000002803D0F2480178491C0170F1480078F8
:1023B000002803D0F0480178491C0170EF4E3078B6
:1023C00000281FD1EC48007804281BD3E848007887
:1023D000002817D1EA4D02212846FFF724FBE948DF
:1023E00002900298411E02910028FAD1022128464B
:1023F000FFF7D6FAE44800210170E4480122027098
:10240000E3480170E0480078E0490978014307D0CB
:10241000E0480178491CCAB2022A00D00F46077072
:10242000DD480078042817D0DC490A78002A03D058
:10243000DB4A13785B1C1370DA4A13785B1CDCB23E
:10244000022C00D10023019C1370D54A1378192B5C
:1024500002D300230B701370BD490978002903D003
:10246000D1490A78521C0A703178002909D0CF4925
:102470000A78521C0A70D2B2042A02D300220A70CF
:102480003270CB4E317800295CD0CC490A78002AD2
:1024900058D1C94F3A78012A54D1C64A1378002B33
:1024A00050D1C74D2C88631C2B8003256D02641905
:1024B000A4B2082C04D8C54800210160019C41E069
:1024C0009BB2C04CA342019C3CD33D46BE4B1B7803
:1024D000BE4C2468002C2DD000270028019C2DD054
:1024E000002B2BD1BC480078002827D1B9480078B0
:1024F000002823D1B648007800281FD1B74800270C
:10250000077017700520A44A1070B54801220270A8
:102510000A70950702212846FFF742FA042128464F
:10252000A54DFFF73DFA09E0012088490870C04930
:10253000087006E1581E83415F00019C0020A049FD
:1025400008802F70A24D307800285CD028780028B1
:1025500059D19148007802210143022953D09D4866
:10256000007800284FD19F4908789F4A137883420A
:1025700044D20020107008709C490A68521C0A60FE
:102580009B498A423FD3012129708C4A1070062250
:10259000814B1A70874A1070904A10708F07022181
:1025A0003846FFF7FDF904213846FFF7F9F92AE02C
:1025B000260100206F000020B20000201201002040
:1025C00027010020C90000206D0000206E000020BF
:1025D000FB000020FA00002000040040D900002089
:1025E000DA000020D8000020DB000020E2000020FC
:1025F000E3000020E1000020E4000020002008703B
:102600007A49086010706B48017800290CD079492C
:102610000A88521C0A8092B2774B9A4204D3002255
:1026200002700A806D48027074480178484248413F
:1026300031780029214600D00146002912D15F4897
:102640000078002806D12878002803D16148007856
:10265000002807D061480178491CCAB24E2A00D927
:10266000502101706648027851425141464A127821
:10267000531E9A41454B1B78002B234604D0002B58
:1026800005D0002C06D01AE01346002BF9D10C46D9
:10269000002C14D13E490A78521C0A70D2B2072A83
:1026A0000DD3002202700A7029490978002902D04E
:1026B0005449062202E054490A6052490A705349BB
:1026C0000A78002A06D000220A700121204A1170DF
:1026D000017006E00121017000201D4908703B498E
:1026E00008604B48017801290ED14A490A88521CDA
:1026F0000A8009235B0192B29A4205D90222027034
:1027000000200880444908704448017800290CD012
:1027100043490A78521C0A70D2B2062A05D3002215
:102720000A7002703F48012101703F4E3078002846
:1027300009D03E480178491CCAB20F2A00D90021AD
:1027400001700020307003B0F0BDC046B200002020
:1027500012010020E4000020E2000020E30000203D
:10276000E0000020D7000020F60000206B000020D1
:102770006A0000206D0000206C000020F2000020A4
:10278000000C0040983A00001E010020B600002016
:102790000F010020E800002099000020F500002033
:1027A000C7000020C8000020330100208D00002059
:1027B0008B0000201A010020180100208C0000204E
:1027C000160100200BFA000032010020CC0000208E
:1027D0008F000020980000208900002014010020B4
:1027E000190100208E00002090000020940000209D
:1027F000B1AD01001C0100202711000013010020D1
:102800000D0100200E0100209C000020110100207D
:10281000E5000020E6000020AF0000208800002036
:102820008A0000208700002085000020840000200E
:10283000F900002002490A6882430A607047C046D6
:1028400010400040014A5160106070471C40004039
:102850000248016801220A430260704700400040BC
:1028600009490A6802430A607047C04680B5FFF70D
:10287000C7FC80BD04494A68D2430968C943114373
:1028800008404142484170470C400040F0B581B0DB
:10289000F74D402100912846FFF7C5F80826284645
:1028A0003146FFF7C0F8202728463946FFF7BBF826
:1028B000102428462146FFF7B6F828460099FFF76E
:1028C000B2F828463146FFF7AEF828463946FFF7FA
:1028D000AAF828462146FFF7A6F8012000F01AF8CA
:1028E000032000F017F8292000F014F80848042409
:1028F0000470304600F00EF8802000F00BF82046FF
:1029000000F008F8052000F005F801B0F0BDC04661
:102910002F010020F0B581B00546D54C402120465E
:10292000FFF73EF805200A2100BF491E0A06FBD129
:10293000401EF8D110212046FFF775F820212046CF
:10294000FFF72EF80A200146024600BF521E13066A
:10295000FBD1491EF8D120212046FFF764F80A2058
:102960000146024600BF521E1306FBD1491EF8D194
:1029700010212046FFF714F820212046FFF710F819
:102980000A200146024600BF521E1306FBD1491E13
:10299000F8D120212046FFF746F80A2001460246DA
:1029A00000BF521E1306FBD1491EF8D1102120464C
:1029B000FEF7F6FF20212046FEF7F2FF0A2001462F
:1029C000024600BF521E1306FBD1491EF8D120213A
:1029D0002046FFF728F80A200146024600BF521E93
:1029E0001306FBD1491EF8D180260027102120466E
:1029F0002E4202D0FFF717F801E0FEF7D1FF2021A9
:102A00002046FEF7CDFF0A200146024600BF521EB7
:102A10001306FBD1491EF8D120212046FFF703F809
:102A20000A200146024600BF521E1306FBD1491E72
:102A3000F8D1781C7608072F0746D7D310212046F7
:102A4000FEF7AEFF20212046FEF7AAFF0A2001462E
:102A5000024600BF521E1306FBD1491EF8D12021A9
:102A60002046FEF7E0FF0A200146024600BF521E44
:102A70001306FBD1491EF8D140212046FEF7D3FFB3
:102A800005200A2100BF491E0A06FBD1401EF8D1CD
:102A900010212046FEF7C7FF01B0F0BDF0B585B0AC
:102AA00002920E460490724C40212046FEF778FFB9
:102AB00005200A2100BF491E0A06FBD1401EF8D19D
:102AC00010212046FEF7AFFF20212046FEF768FFC9
:102AD0000A200146024600BF521E1306FBD1491EC2
:102AE000F8D120212046FEF79EFF0A20014602462B
:102AF00000BF521E1306FBD1491EF8D110212046FB
:102B0000FEF74EFF20212046FEF74AFF0A2001462D
:102B1000024600BF521E1306FBD1491EF8D12021E8
:102B20002046FEF780FF0A200146024600BF521EE3
:102B30001306FBD1491EF8D110212046FEF773FF82
:102B400020212046FEF72CFF0A200146024600BF46
:102B5000521E1306FBD1491EF8D1202520462946D6
:102B6000FEF761FF0A200146024600BF521E13060F
:102B7000FBD1491EF8D13F48007800282BD0002710
:102B800004981021054203D02046FEF74CFF02E0D6
:102B90002046FEF705FF20212046FEF701FF0A2010
:102BA0000146024600BF521E1306FBD1491EF8D152
:102BB00020212046FEF737FF0A200146024600BFCB
:102BC000521E1306FBD1491EF8D17F1C6D082948FF
:102BD00000788742D4D30298002837D00020019093
:102BE00001460391049635780126019F1021204665
:102BF0002E4202D0FEF717FF01E0FEF7D1FE2021A2
:102C00002046FEF7CDFE0A200146024600BF521EB6
:102C10001306FBD1491EF8D120212046FEF703FF01
:102C20000A200146024600BF521E1306FBD1491E70
:102C3000F8D1781C3106CE0D032F0746D6D3039961
:102C4000491C049E761C02988142CAD3402120462A
:102C5000FEF7E9FE05200A2100BF491E0A06FBD146
:102C6000401EF8D110212046FEF7DDFE05B0F0BD74
:102C7000000800400000002000B5A3B01320FFF7BB
:102C8000FBF907200990FF21FFF7DCFD01273846FB
:102C9000FFF7E6FDFFF7DCFD17203946FEF7DAFE09
:102CA0001AAC06200B90E07011252570BB48214618
:102CB000FEF77AFE0E201890E0702570BE073046B1
:102CC0002146FEF771FE7020E0702770B348214660
:102CD000FEF76AFE7820E0702570B1482146FEF7C5
:102CE00063FE3020E0702770AE482146FEF75CFEA0
:102CF0001BAC8020E0702770A7700225284629466B
:102D0000FEF714FAA6482146FEF74EFE082419964F
:102D100030462146FEF787FEFFF7B8FDA24A0F2690
:102D2000D673189890730D2151730C2111730B21D8
:102D3000D1720A2008909072092151721472099878
:102D4000D0710B9890719548052111915171042112
:102D50001591117103210A91D170139595705770D7
:102D60000025157091490D6091490D7091490D80B4
:102D700091490D801BA9CC700D708D70FEF714FE6B
:102D80002846FEF7A5F91BAC2046FEF759F9A771B6
:102D90001020A08065702046FEF7F8F8FEF759F87D
:102DA000FEF762F9FEF7A8F98448077084480770B7
:102DB0008448077084480770844807708448057009
:102DC00084480570844805708448057084481895C7
:102DD0000570F0020168834A834DA94201D8016859
:102DE0008AB2824917920A80016D814AA94201D8AC
:102DF000006D82B27F481292028079200002016841
:102E0000A9427B4C01D801688CB216977A490C8094
:102E1000016D7A4EA94201D8006D86B278480680CD
:102E20003D2040020168A942714F01D801688FB26C
:102E300074490F80016DA94203D9734900200880AD
:102E40000BE0006D7049088080B2FDF772FD6F4A9B
:102E50006F4BFDF779FDFDF7B3FA189A6D490860DD
:102E60007B2000020168A94202D80268511E8A41F3
:102E700069490A70016DA94201D9684B00E0036DF0
:102E8000129D674803800020322D169A00D3024617
:102E900017993229169900D301461143322C169AFC
:102EA00000D302461143322E169A00D30246114334
:102EB000322F169A00D302461143012909D15948ED
:102EC0000A990170179A312A4AD85748012101708E
:102ED0000BE05548002101705248159A0270534882
:102EE0000170534801210170179A604260416942A4
:102EF0006941002A169A00D00A46002A169900D184
:102F00000146724272410029169800D1104679425A
:102F100079410028169800D108460128149311D150
:102F2000404901200870179900291FD0002D26D094
:102F3000002C27D0002E7DD0002F00D081E03A4811
:102F400011997DE03748017803297AD0364900226B
:102F50000A701599017035480270354801216FE0FB
:102F6000312D06D8304813990170BEE72E490870FC
:102F700067E0312C09D82C480A990170B5E72A4836
:102F800013995DE028480A995AE0312E01D901F0E1
:102F9000C3FE254815990170A7E7C046000C004004
:102FA00000080040000400407200002004010020DE
:102FB000BC000020BE00002030010020B70000202F
:102FC000A800002083000020B0000020B1000020F5
:102FD000690000206800002082000020AE00002070
:102FE000BD000020DC0500000F270000A400002029
:102FF000B80B0000B4000020B800002070170000DB
:10300000A6000020A2000020AA0000203D0AD7A3AD
:10301000703D0E40DC0000208B000020F409000011
:1030200070000020990000200E010020C700002041
:10303000F50000200148159902E0C0460E0100206D
:103040000170FC48002118910180FB480160FB4899
:103050000170FB480170FB480170FB480170FB48A0
:103060000170FB480170FB480170FB4801220270AF
:103070001392FA480170FA480170FA480170FA4850
:103080000170FA480160FA480270FA480170FA4883
:103090000188C8080A461191F8494843000D7D216E
:1030A000CF000F977843101A1090F54C20802846D7
:1030B0003946FDF785F80D462180179E3046394682
:1030C000FDF77EF80C46701A394602F0A9FC1790FD
:1030D000EC490870642628462F463146FDF770F803
:1030E0000E91E9480180204631463546FDF768F8E3
:1030F0000E46601A2946079502F092FC0C90E349AF
:1031000008703046089C2146FDF75AF8701A21468F
:1031100002F086FC0D90DE49087012983E46C01BF6
:103120000F9C214602F07CFC0690DA4908700E9F45
:10313000F01B294602F074FC0546D7480570384656
:103140003E46089F3946FDF73BF8D4480180701A87
:10315000394602F065FC0746D1480770109881B2E5
:1031600005911198401A214602F05AFC1290CD495F
:103170000870F6200D9E464302460E909C210C9846
:1031800048430B460D911824179961430C9440183D
:103190008019C54909884018C449087057435D43E0
:1031A000069860432818C019C14909884018C149C8
:1031B0000870292000011790059B5843000C079FB9
:1031C0007843109A161AB5B2581B394602F028FCFB
:1031D0000446B9480470B9486843000C089948434C
:1031E000301A80B2281A02F01BFCB54908700E99FB
:1031F00048430D994C430C99129A4A43119951181E
:1032000009190818AF490870AF480688F0089B4CA8
:103210006043000D0F9D6843301A0696984B188046
:1032200083B2179959430393090C7943401A96497D
:10323000088087B21297A1497943090C089A514333
:10324000411A059195480180A0480188C80860434B
:10325000000D68430F1A0C46119189480780F01A37
:10326000294602F0DDFB049099490870BEB2A01B0C
:10327000294602F0D5FB10909649087017987043C4
:10328000000C079C60433D1A7F4805801298039A02
:10329000101A214602F0C4FB07468F480770A9B2F6
:1032A000701A0E460291214602F0BAFB03908B4938
:1032B000087082487043000C089948432A1A01920A
:1032C00076480280059880B2129A101A02F0A8FB84
:1032D000834908700E9D68430D9E77430C9C049AA9
:1032E000624306995118C9190818FD4908700198D8
:1032F00080B20299081A089902F092FBF949087005
:103300006843039B7343109A624311995118C9187B
:103310000818FB490870FB4802881292D0085749E8
:103320004843000D0F994843171A55480780BDB20E
:10333000501B02F075FB0446F3480470179868436D
:10334000000C079948433E1A4F480680B7B2E81B65
:1033500002F066FB0546ED48057058487843000CBE
:10336000089A5043301A4D49088080B2381A1146E5
:1033700002F056FBE6490870149EB1B21191CA08DA
:103380003E4B5A43120D0F994A43B21A3C4B1A80D6
:103390000E9B58430D9B5D430C9B5C43129BE318B3
:1033A0005B191818DB4B187095B217986843000C1E
:1033B000079B5843171A344807801198401B02F0A6
:1033C0002FFB0446D4480470BEB23C487043000C46
:1033D000089948433F1A31480780A81B079902F013
:1033E0001FFB0546CD480570B8B2301A089902F0A7
:1033F00017FBCB4908700E9948430D994D430C9922
:103400004C431499611849190818C6490870C648F0
:1034100018990170C548139E0670C5480670C548C6
:103420000670C5480670C5480170C5480170C5489A
:10343000018057E0BA0000209C0000206F000020AF
:103440006D0000206B0000206E0000206C0000204A
:103450006A000020B6000020B2000020E800002032
:10346000CA00002032010020330100203401002076
:103470003C010020C9000020AA000020C520000057
:10348000C2000020D10000203A01002020010020CD
:1034900029010020D200002021010020000100208D
:1034A0002A010020D0000020A4000020EA00002013
:1034B000B4000020EB0000201F0100209A1900003A
:1034C00028010020E9000020B8000020A60000200C
:1034D000D3000020D400002022010020230100207E
:1034E0002B0100209848017098480170984801709D
:1034F0009848016098480170984801709848017098
:10350000984806709848067098480170984801706D
:103510009848017098480670984801809848017052
:10352000984801709848017098480670984806704D
:103530009848017098480170984801709848016057
:103540009848018098480170984801709848017027
:103550009848017098480170984801609848017037
:103560009848017098480180984801700D460520E0
:103570001090FEF75FFA02242046FDF7CFFDE843E6
:103580002290219020901F901E901D901C901B90C7
:103590001BA920223046FFF781FA8D4807462146B5
:1035A000FEF741FA8B481B901B98411E1B91002887
:1035B000FAD1189D2295219520951F951E951D9550
:1035C0001C951B951BA92024139E30462246FFF70D
:1035D00065FA022138461491FEF7E2F97E4805703B
:1035E0007E4805707E4805707E4805707E480570EF
:1035F0007E4805707E4805707E4805707E480670DE
:103600007E4806707E4805707E4805707E480570CD
:103610007E4805707E4805707E4805707E480570BE
:103620007E4805703D467E4E30462146FEF7F6F94F
:10363000411E88417B49087010213046FEF7EEF9A3
:10364000411E884178490870784E169F07E0012294
:103650003D4B1A70317068490870584908605448E9
:103660000078002811D172481B901B98411E1B91B5
:103670000028FAD101204E49087002242046FDF7A7
:103680004DFD05202146FEF7E5F937480078002872
:1036900001D100F00EFC40212846FEF7BFF90028BA
:1036A00000D1FBE0189863490870139B2D48037004
:1036B0006148017848424841604909780029394603
:1036C00000D001460029189800D0F0E35C4801784A
:1036D0000529189800D9EAE3880003A1085887460D
:1036E000EC0000202C01002045380000F9390000D2
:1036F0003D3900009D390000DD380000553A0000DA
:10370000ED000020A2000020D500002024010020B0
:103710002D010020EE000020D60000202501002011
:103720002E010020EF00002027010020F4000020DF
:10373000F3000020FC000020F9000020FA00002027
:10374000180100201601002019010020130100209B
:1037500014010020CC000020C8000020F20000204E
:103760008D000020FB0000200C010020F60000204E
:1037700089000020C7000020F50000201C01002067
:103780001A010020C60000201E010020F8000020C1
:10379000F0000020100100200F0100200D0100208A
:1037A00008010020AC0000201201002011010020BF
:1037B000A00000208C0000208F000020940000203A
:1037C000AF000020E5000020E60000209800002067
:1037D000000C0040400D0300870000208A000020FC
:1037E00086000020880000208E000020900000202D
:1037F0008500002084000020F7000020F100002058
:10380000D9000020D8000020E2000020E1000020C4
:10381000DB000020DA000020E4000020E3000020AC
:1038200000040040D7000020E000002099000020A4
:10383000881300006E0000206F000020B2000020FE
:103840000E010020FE480078FE49097801431898CF
:1038500000D12CE3FC480078401EC0B2032809D8F0
:103860008000FA4908580178491CCAB2092A00D9CF
:1038700000210170F64800780F994843F54909780E
:10388000079A51430818F4490978089A5143401897
:10389000F24909784018F249088005E3F1480178B7
:1038A00048424841F049097800293946139A00D125
:1038B00001460029104600D0F9E202212846FEF711
:1038C000B2F8EA481B901B98411E1B910028FAD1C0
:1038D00002212846FEF764F81398E8E2D9480078F8
:1038E0000028189800D1E2E2E1480088E14A9042BD
:1038F00009D3E14A904206D3E04A904203D3E04A1A
:10390000904200D30022DA480280002A00D1CFE0A2
:103910000020DC49087015993170DB490B70DB49D8
:103920000870DB490870DB490870DB490978002919
:1039300000D1C7E0D9490B701099F5E0C148007873
:103940000028189800D1B2E2D5480088C94A9042B0
:1039500009D3C94A904206D3C84A904203D3C84A01
:10396000904200D30022CE480280002A00D1A1E07C
:103970000020C449087015993170C3490B70C349C0
:103980000870C3490870C3490870C3490978002901
:1039900000D19FE0C1490B7010990EE1A948007851
:1039A0000028189800D182E2BE480088B14A9042AF
:1039B00009D3B14A904206D3B04A904203D3B04AE9
:1039C000904200D30022B7480280002A74D0002021
:1039D000AC49087015993170AB490B70AB49087050
:1039E000AB490870AB490870AB490978002979D018
:1039F000AA490B70109982E1924800780028189823
:103A000000D154E2A84800889A4A904209D39A4AC1
:103A1000904206D3994A904203D3994A904200D3E8
:103A20000022A1480280002A48D000209549087051
:103A30001599317094490B70944908709449087035
:103A40009449087094490978002954D093490B701F
:103A500010999DE17B4800780028189800D126E253
:103A600092480088834A904209D3834A904206D301
:103A7000824A904203D3824A904200D300228B486C
:103A80000280002A1CD000207E49087015993170F0
:103A90007D490B707D4908707D4908707D4908702B
:103AA0007D49097800292FD07C490B701099B8E125
:103AB000337040E0337087E0337027E133706EE19C
:103AC0003370B5E17A490978002926D073490B7023
:103AD0000B9929E076490978002967D06F490B7066
:103AE0000B996AE072490978002900D100E16B491D
:103AF0000B700B9903E16E490978002900D140E170
:103B000066490B700B9943E169490978002900D196
:103B100080E162490B700B9983E1664909780029BD
:103B200009D05E490B700999317063490870634987
:103B300008706349087010460F9D29461746179272
:103B4000FCF73EFB0E465F4801806421129130462F
:103B5000FCF736FB0C465C480180B81B294601F097
:103B60005FFF0546594805700A2111912046FCF770
:103B700027FB0F4656480180301B129901F050FF79
:103B8000064654480670E01B119901F049FF139B4B
:103B9000514908700E9948430D994E430C994D4375
:103BA00017996918891908184C497BE14149097826
:103BB000002909D039490B70099931703E490870C4
:103BC0003E4908703E49087010460F9D2946174629
:103BD0001792FCF7F5FA0E463A48018064211291DB
:103BE0003046FCF7EDFA0C4637480180B81B2946F1
:103BF00001F016FF05463A4805700A21119120464A
:103C0000FCF7DEFA0F4632480180301B129901F0B2
:103C100007FF064633480670E01B119901F000FFCC
:103C2000139B314908700E9948430D994E430C99E6
:103C30004D4317996918891908182C4932E1C04673
:103C40001E010020B60000203C010020D05E0000D4
:103C5000D00000201F01002028010020E9000020E2
:103C6000AA000020B20000206F000020881300008E
:103C7000A6000020DC050000B80B00009411000035
:103C800070170000C7000020F50000206800002029
:103C900069000020BD0000208C00002019010020D8
:103CA000B4000020B8000020A4000020A2000020E2
:103CB0008F000020980000201A010020140100202D
:103CC00013010020C20000203A010020D40000208F
:103CD00000010020230100202C010020ED00002025
:103CE000D2000020210100202A010020EB0000204A
:103CF0009D490978002909D09C490B7009993170B8
:103D00009B4908709B4908709B49087010460F9D9D
:103D1000294617461792FCF753FA0E46974801803A
:103D2000642112913046FCF74BFA0C46944801800E
:103D3000B81B294601F074FE0546924805700A2119
:103D400011912046FCF73CFA0F468F480180301B4A
:103D5000129901F065FE06468C480670E01B119929
:103D600001F05EFE139B8A4908700E9948430D9935
:103D70004E430C994D4317996918891908188549BC
:103D800090E079490978002909D078490B700999A0
:103D90003170774908707749087077490870104684
:103DA0000F9D294617461792FCF70AFA0E467348EC
:103DB0000180642112913046FCF702FA0C467048EB
:103DC0000180B81B294601F02BFE0546724805709C
:103DD0000A2111912046FCF7F3F90F466A48018049
:103DE000301B129901F01CFE06466C480670E01B61
:103DF000119901F015FE139B694908700E9948430B
:103E00000D994E430C994D43179969188919081853
:103E1000644947E054490978002909D053490B7097
:103E20000999317052490870524908705249087016
:103E300010460F9D294617461792FCF7C1F90E460A
:103E40004E480180642112913046FCF7B9F90C46C6
:103E50004B480180B81B294601F0E2FD0546524857
:103E600005700A2111912046FCF7AAF90F46464831
:103E70000180301B129901F0D3FD0646F848067008
:103E8000E01B119901F0CCFD139BFA4908700E99C3
:103E900048430D994E430C994D4317996918891958
:103EA0000818F5490870169FF44803701898F449EB
:103EB0000870F4480078002878D0F3480088012280
:103EC00000243228134600D32346F04909883229BA
:103ED000154600D32546EE4E36881796322E3E46BE
:103EE00000D32E46002E3D4600D11D46E94B1B88CF
:103EF000322B164600D32646002D00D13746E64D1C
:103F00002D88322D00D32246002F169F3C4600D12B
:103F10001446012CE14E00D016E142424241484293
:103F2000484117990029394600D0014600293846F2
:103F300000D11046594259410028384600D1084660
:103F4000694269410028384600D10846012800D05E
:103F500006E13078052805D801218140252001425D
:103F600000D013E1012010E1980000201901002089
:103F70001A0100201401002013010020C2000020BB
:103F80003A010020D300002000010020220100207F
:103F90002B010020EC000020D10000202001002097
:103FA00029010020EA000020D50000200024BC48A0
:103FB0000470082112911998FDF7F2FC10200126D7
:103FC000B84D29463246FEF769FD11202946324692
:103FD000FEF764FD122029463246FEF75FFDB24827
:103FE0000470B2480470B2480470B2480470B24819
:103FF0000470B2480470B24804700A27304617961D
:10400000394600F0F1FE022011900B2100F0ECFE89
:1040100003252846394600F0E7FE1598394600F09A
:10402000E3FE0520394600F0DFFE0620394600F0A9
:10403000DBFE0720214600F0D7FE1298294600F04B
:10404000D3FE132097493246FEF728FD9D480470A1
:104050009D4F3846119D2946FDF7A2FC3846159E16
:104060003146FDF79DFC99481799017098480170F9
:10407000199F38463146FDF793FC38462946FDF72F
:104080008FFC179A93480270934804709348047009
:1040900093480470814806709248047092480470F6
:1040A00092480470924804709248047092480470D8
:1040B00092480470924804709248047092480270CA
:1040C00092480480924804709248047092480470A8
:1040D00092480480924804709248047092480460A8
:1040E0009248047092480470924804709248047098
:1040F0009248047092480460924804709248047098
:104100009248047092480470924802709248047079
:104110009248047092480470924804709248047067
:1041200092480470924804709248047092481B9020
:104130001B98411E1B910028FAD159480270169F06
:10414000614D564EFFF78BFA307803281ED10020C0
:10415000644908701598307001206B49087015E0AB
:1041600079480078002811D17648007800280DD1D0
:1041700072480078002809D1307814990843022841
:1041800004D00020574908700A9830707B480078A6
:10419000002833D008211998FDF745FC0025E84395
:1041A0002290219020901F901E901D901C901B909B
:1041B00001241BA920222046FEF770FC0221424860
:1041C000FDF731FC6E481B901B98411E1B91002887
:1041D000FAD12295219520951F951E951D951C9528
:1041E0001B951BA920222046FEF758FC02213648C9
:1041F000FDF7D6FB6148057062480470624800789C
:10420000002821D00024614804700120102100F012
:10421000EBFD0220052100F0E7FD03200B2100F05B
:10422000E3FD04252846214600F0DEFD58480078CD
:10423000002800D1DAE005200E2100F0D5FD06208F
:104240000A2100F0D1FDE4E0524800780628524CE3
:104250001D4D00D9E1E103A14000085A4000874408
:10426000240100209D0064010B013801DD00900154
:10427000BC01C0462D010020EE000020CA00002035
:104280006F000020B2000020B8000020B400002021
:10429000A4000020A6000020A20000209900002019
:1042A0000C01002072000020B000002083000020DC
:1042B000B1000020B7000020A80000206800002006
:1042C00069000020AE000020000C0040F400002037
:1042D000F1000020FC00002032010020BC00002082
:1042E00027010020C7000020B6000020BD000020EC
:1042F00089000020870000208A000020860000201E
:1043000088000020F9000020F500002016010020A0
:104310008E00002090000020AF000020E60000206A
:10432000E500002018010020CC0000201A01002028
:104330001901002014010020130100208C0000202E
:10434000940000208F0000209800002085000020AD
:1043500084000020F7000020D9000020D8000020B1
:10436000E2000020E1000020DA000020DB00002055
:10437000E4000020E300002088130000FA00002081
:10438000400D0300F6000020F20000208200002013
:104390008B0000200E0100206B0000200020ED4962
:1043A00008700121EC4A1170EC490870EC48007863
:1043B000002803D1EB48007800280DD0EA480078A7
:1043C000012809D1E9480078411E032904D80721B2
:1043D00048400A2100F008FDE3480078002800D09A
:1043E0000EE1E34802883078002107E1E1480470DB
:1043F000E1480470E148047005200F24214600F0D4
:10440000F3FC0620214600F0EFFC3078052800D1AF
:104410003570FCF783FFDA4CDA4DFEE00020CD4921
:1044200008700121CC4A1170CC490870CE48007840
:10443000012817D1CA480078002801D100F012FCE9
:1044400003200A24214600F0CFFC0420214600F07E
:10445000CBFC05202146CA4C00F0C6FC06200A21F0
:1044600000F0C2FCC0480078002800D0C8E0C64870
:10447000028830780421C1E00020B649087001218B
:10448000B54A1170B5490870B7480078012816D1AF
:10449000B3480078002800D1F5E303200A24214620
:1044A00000F0A2FC0420214600F09EFC05202146DD
:1044B000B34C00F099FC06200A2100F095FCAA48B4
:1044C0000078002800D09BE0B048028830780221B4
:1044D00094E000209F49087001219F4A11709F4974
:1044E0000870A1480078012816D19D48007800285E
:1044F00000D1D6E303200A24214600F075FC0420F5
:10450000214600F071FC052021469D4C00F06CFC1A
:1045100006200A2100F068FC9348007800286FD13B
:104520009B4802883078032168E0002089490870A0
:104530000121894A1170894908708B480078012847
:1045400016D187480078002800D1B8E303200A2458
:10455000214600F049FC0420214600F045FC0520DE
:104560002146874C00F040FC06200A2100F03CFC6C
:104570007D480078002843D18648028830780121A0
:104580003CE00020734908700121734A117073499F
:10459000087075480078012816D171480078002805
:1045A00000D19AE303200A24214600F01DFC0420D8
:1045B000214600F019FC05202146714C00F014FC46
:1045C00006200A2100F010FC67480078002817D167
:1045D000714802883078052110E001205F49087099
:1045E00000215D4A11705E4A1278002A00D1D3E2A0
:1045F000584801706948028830780F21FDF754FA55
:10460000674801784842484131780029394600D04E
:104610000146002901D1FDF741FD62480078624959
:10462000097800291AD0614A1278002A16D0604A07
:104630001278002A12D0002810D15E4800784F2846
:104640002DD302212846FDF7ABF900205A49087006
:104650005A4908700121534A11701DE0002921D0E8
:10466000574909784A1E9141564A1278002A3A461B
:1046700000D10A46012A15D1002813D14D480078EF
:104680004F280CD302212846FDF78AF9012045491D
:1046900008700020484908704B49088002E001205A
:1046A00045490870FCF700FC10212846FDF7B6F9D3
:1046B00000281FD045480078002802D10120434936
:1046C0000870002042490870207020212846FDF71C
:1046D000A5F9002800D189E000243E4804703E4836
:1046E0000078002800D1A5E000243B480470FCF7C6
:1046F00015FE9FE020780028384B0FD10221284674
:10470000FDF791F936481B901B98411E1B9100281C
:10471000FAD102212846FDF743F9304B10480178C1
:104720002078002800D022E1002900D01FE10D4AA6
:104730001278002A00D01AE100212A4801700120D5
:10474000294A10701A78521C1A70D2B2072ABBD1AB
:104750001970B9E782000020A8000020AE000020F8
:10476000B60000201E010020E80000203C010020CF
:10477000AA0000206900002068000020BD00002081
:104780006B000020000C0040A6000020B4000020B8
:10479000B8000020A4000020A2000020700000202B
:1047A000120100201A0100208B0000208C00002044
:1047B000190100201401002013010020180100201D
:1047C000980000208F0000201C010020F100002034
:1047D0006A0000206C000020CA0000200E010020AA
:1047E000881300000F0100200D010020F948007817
:1047F000012400281ED102212846FDF714F9F648AD
:104800001B901B98411E1B910028FAD102212846BB
:10481000FDF7C6F8F148007800280BD00020F049D9
:1048200008700124EF490C70EC490870EE480470E0
:10483000EE480470E7480470ED480078012841D143
:10484000307800283ED01499C943C01E884201D850
:1048500014983070E5480078002833D00024E348ED
:1048600004700221199D2846FDF79AF80421284674
:10487000FDF796F80120DF490870DF490870DF492D
:104880000C60DF490C70DF490C60DF490C70DF49B8
:104890000C60DF490C70DF49097800290BD1DE4933
:1048A0000978002907D1DD490978002903D1DC49BD
:1048B0000C70DC490870DC480470DC480470DC488B
:1048C0000480DC4D3078DC49097800293FD000288D
:1048D0003DD0DA480078002800D1C1E00221199DBE
:1048E0002846FDF75DF8042428462146FDF758F8D0
:1048F0000020C2490860C2490870C2490860C24924
:104900000870D6490860CE490870C0490860CD4992
:104910000978B24A12780A4304D10121CA4A1170B7
:10492000BB490870C54908700121CD4A1170327821
:10493000002A04D1BA4A10703470BA4A1170C349BF
:104940000870C3490860BC490870F84D88E01499A4
:104950000843022816D1BA480078022855D000280A
:104960007ED1BB48006800287AD1012076E04A4217
:104970004A410028384600D11046002800D1FFE007
:104980000120A1E6B34800780028E4D0B2480078BE
:104990000028E0D0A14800780028DCD19E480078AB
:1049A0000028D8D1F048017848424841E0490978C8
:1049B0004A1E9141FA4A1278002A3A4600D10A4624
:1049C000002A394600D101460029C4D10124D94822
:1049D0000470E6480470D84804700221199D2846E6
:1049E000FDF721F804212846D04DFDF71CF80020E2
:1049F000DD490870DA490C70F5490870F64908700D
:104A0000F6490870F7490870A5E73078002824D0E7
:104A1000DD480078002820D1E748007800281CD124
:104A2000E0480078002818D1DD480078002814D12B
:104A30000020D3490870D5490870109830700120C3
:104A4000CD490870D64908700221199C2046FCF710
:104A5000A7FF04212046FCF7A3FF0020C4490870EB
:104A6000DF48007800282DD03078FD21084201D1A0
:104A7000FEF7F5FD00243470D24804700125B048DB
:104A80000570AE4805700221199E3046FCF788FF7C
:104A900004213046AD4EFCF783FFBF480470C24886
:104AA0000460BE480570AB480570A9480470C6484C
:104AB0000470C64805709D4DC6480470C84804700F
:104AC000FEF7CDFD0020C0490870BE490870C549F9
:104AD0000A78514251413278002A3A4600D10A46BA
:104AE000002A18D19A490870159931700121994A04
:104AF0001170934A1070914A10709B4A1278002AE4
:104B000001D1994A1170A54A1170A3490870B249A0
:104B10000870B4490870AD490978002901D1FEF741
:104B20009EFDA649087093490880A54908709F49D1
:104B300008709F4908709F4908808D490870914905
:104B40000860924908708C4908708D4908708B493B
:104B50000870934909780029109901D0FEF777FD74
:104B60009049097800290B9901D0FEF770FD924910
:104B700009780029099901D0FEF769FDFEF76BFD60
:104B800078480078411CCAB20120042A024600D8A5
:104B90000A4674490A7097E57D4A1278002A00D1C6
:104BA000A9E0684801706D480078002800D121E52F
:104BB000012800D024E577480078401E032800D95A
:104BC0001EE5C046784400794000874401A09C9EC1
:104BD00006209DE06D00002088130000B600002034
:104BE000E8000020F0000020CA000020FC000020A7
:104BF000BC00002069000020680000209400002014
:104C00003201002034010020330100209C000020EC
:104C10000E0100208C0000208F0000209800002052
:104C2000C7000020F50000201A0100201401002018
:104C30001C010020000C0040DB000020F3000020DD
:104C4000180100201E0100200D010020D9000020C5
:104C5000CC000020DA000020E30000200401002046
:104C6000F40000204A480078002801D1FFF7FAFB41
:104C700048480078411E032901D9FFF7F3FB0721BB
:104C80004840FFF7ECFB42480078002800D116E4CA
:104C900040480078411E032900D910E4072148400C
:104CA0000AE43B480078002800D135E43948007810
:104CB000411E032900D92FE40721484029E4344844
:104CC0000078002800D153E432480078411E0329BF
:104CD00000D94DE40721484047E42D4800780028DA
:104CE00000D171E42B480078411E032900D96BE400
:104CF0000721484065E41349087017480068FCF72D
:104D000021F8024678E4042002E0032000E00520B8
:104D10000A2100F069F873E4312F01D9FEF7E5F8B4
:104D2000094811990170FEF7E0F8C046000C0040F8
:104D3000BC000020B0000020B1000020690000206D
:104D400068000020820000200E0100209900002051
:104D5000C7000020F50000209C000020E800002093
:104D6000320100203C010020F4000020F30000206C
:104D70001801002016010020190100201301002055
:104D800014010020CC000020890000201A0100201E
:104D90001E010020F00000200F0100200D01002066
:104DA0008C0000208F00002094000020AF00002025
:104DB000E5000020E6000020980000208E00002082
:104DC000900000208500002084000020F7000020D3
:104DD000D8000020E2000020E1000020DA000020DE
:104DE000E4000020E3000020B0B5401E072801D9F0
:104DF00000F0C3FD4000C0467844808840008744EE
:104E00000700E60070009C003C0010015101C40046
:104E1000102901D900F0B1FD880001A1085887468A
:104E2000654E00000B54000051530000A7540000D1
:104E3000E7540000615300001D5400002F5400008F
:104E4000375500007B590000155500007B590000C4
:104E50007B5900007B5900007B590000F95200008B
:104E60007353000083480078834C2146002801D109
:104E700000F0D2FC0B3100F0F0FC0F2901D900F05A
:104E80007CFD880001A108588746C046CD4E000031
:104E9000F5550000E5550000D55500008D55000082
:104EA000B155000007560000195600003D5600009D
:104EB0002B560000835500007B5900007B590000F1
:104EC0007B590000C35500009F5500006B480078D7
:104ED000694C2146002801D100F024FD0B3100F07F
:104EE0003AFD0B2901D900F048FD880001A10858BE
:104EF0008746C046254F0000B353000041530000D1
:104F0000855300000B530000F95300004D5400007E
:104F100095530000715400002F5300005F540000AF
:104F2000E952000056480078534C2146002801D130
:104F300000F055FC0B3100F053FC0A2901D900F0B8
:104F40001CFD880001A108588746C046794F000023
:104F500027520000C7510000F95100009151000094
:104F60006D5200009D52000009520000C152000025
:104F7000B5510000AF520000424800783E4C214637
:104F8000002800D1A4E30B31A3E3072901D900F0E5
:104F9000F4FC880001A108588746C046BD4F0000B8
:104FA0000551000043510000535100007B5900009F
:104FB0006D510000F3500000275100003248007886
:104FC0002D4C2146002800D144E30B3143E30B294B
:104FD00001D900F0D2FC880001A108588746C046DC
:104FE000115000004952000039520000E951000000
:104FF000A3510000D75100005B5200007F52000017
:10500000D55200007B590000555700007F51000029
:105010001E480078184C2146002800D161E30B316E
:1050200060E30F2901D900F0A8FC880001A108580D
:105030008746C0469150000095540000C5530000BB
:10504000275500004B550000D5530000B754000011
:10505000C95400006F5500005D5500001D5300004D
:105060007B5900007B5900007B5900007B590000F0
:10507000E7530000B70000207200002082000020EB
:105080006800002083000020B1000020690000209B
:10509000FC480078FC4C2146002800D1DAE30B31B3
:1050A00000F00BFC0E2912D0002901D000F065FCA5
:1050B000F6480078F44C0028214600D0611C0C20F2
:1050C00001252A46FDF7EAFC0D2000F052FCEF48CE
:1050D0000078ED4C2146002801D00F3100E00E3160
:1050E0000C2001252A46FDF7D9FC09340D2000F0DB
:1050F00040FCE7480078E44C2146002800D1A7E2B4
:105100000E31B8E2E2480078FC4D0028294600D074
:10511000691C0E2001242246FDF7C0FCA91D0F20AA
:10512000224600F028FCF6480078F44C002821467E
:1051300000D0611C0E2001252A46FDF7AFFC0E347D
:105140009FE2EF480078ED4C002800D18AE2E11D93
:1051500089E2EB480078E94C0028214600D0611C28
:105160000E2001252A46FDF799FC8AE2E4480078E2
:10517000E24C2146002800D17CE20D317BE2E1487F
:105180000078DE4C0028214600D1EBE2611CE9E208
:10519000DD480078D94D2946002800D173E20D3151
:1051A00072E2D8480078D54D2946002800D174E233
:1051B0000D3173E2D4480078D04C2146002800D14C
:1051C00075E20D3185E2D0480078CC4C002800D142
:1051D0006FE2E11D6EE2CB480078C84C2146002802
:1051E00000D16FE20D318FE2C6480078C34C002831
:1051F00000D169E2611D75E2C3480078BF4C002808
:1052000000D163E2611D64E2BF480078BB4C002816
:10521000214600D0611C062001252A46FDF73EFCF0
:105220000E340720A5E3B8480078B44D002829467D
:1052300000D129E2691C27E2B2480078AF4C00286F
:1052400000D157E2E11D56E2AE480078AB4D002890
:10525000294600D122E2691C20E2AA480078A74C26
:105260002146002800D14EE20F314DE2A6480078D9
:10527000A24C2146002800D14EE20D314FE2A14858
:1052800000789E4C0028214600D0611C0220012598
:105290002A46FDF703FC0E3403206AE39A4800789F
:1052A000964C2146002800D138E20F3137E296486B
:1052B0000078924C0028214600D139E2611C37E287
:1052C000914800788D490C460F34002800D12EE219
:1052D00021462DE28B48007888490C460F3400287F
:1052E00000D12CE221462BE288480078834C00282C
:1052F00000D13EE2611DA6E2854800787F4C214640
:10530000002800D137E20F3136E2804800787B4D2B
:105310002946002800D137E20D3136E27648007880
:10532000764C0028214600D1D0E2611CCEE27748BD
:105330000078724C2146002800D12FE20D314FE257
:10534000724800786D4C002800D129E2E11D28E266
:105350006F480078694C002800D12AE2E11D29E25B
:105360006B480078654C2146002800D12AE20D31B7
:1053700057E267480078614C2146002800D123E2BB
:105380000F3122E2614800785C4C002800D124E211
:10539000611D25E25D480078584C0028214600D068
:1053A000611C042001252A46FDF778FB0E340520F8
:1053B000DFE256480078514D0028294600D1E4E14B
:1053C000691CE2E14C4800784C4C002800D10FE207
:1053D000E11D0EE248480078484C2146002800D1E3
:1053E0000FE20D3142E244480078444C2146002847
:1053F00000D108E20F3107E2444800783F4C2146D3
:10540000002800D10AE20D3114E2414800783B4DFA
:105410000028294600D132E2691C30E23C4800787D
:10542000364C2146002800D1FAE10F31F9E1384825
:105430000078324C0028214600D0611C0020012554
:105440002A46FDF72BFB0E34284692E22F480078BF
:105450002A4C2146002800D1EBE10F31EAE12B482C
:105460000078264C0028214600D1ECE1611CEAE1DD
:105470002648007821490C460F34002800D1E1E18C
:105480002146E0E1A800002072000020B0000020CA
:10549000B100002018480078184D0028294600D196
:1054A00001E2691CFFE11A480078144C002800D181
:1054B000D2E1611DD1E110480078104C214600284E
:1054C00000D1D2E10F31D1E10B4800780B4C00281C
:1054D000214600D0611C0A2001252A46FDF7DEFA8C
:1054E0000E340B2045E20A480078044D2946002876
:1054F00000D1C3E10D31C2E1A800002072000020FC
:10550000B100002069000020830000206800002016
:10551000B7000020FB480078FB4C0028214600D152
:10552000B9E1611CB7E1F9480078F74C002800D1D7
:10553000AEE1611DC1E1F3480078F3490C460F3438
:10554000002800D1A6E12146A5E1FC480078FA4DEB
:105550002946002800D1A5E10D31A4E1F7480078E3
:10556000F54C2146002800D1A6E10D31A5E1F34814
:105570000078F1490C460F34002800D1A5E12146FE
:10558000A4E10820EC4C01252146EEE1EC4800782E
:10559000E94D2946002800D19FE10D319EE1E84800
:1055A0000078E54C2146002800D1A0E10F319FE1B1
:1055B000E3480078E04C2146002800D19FE10D31FE
:1055C000C1E1DF480078DC4C2146002800D19FE192
:1055D0000B319EE1FD480078FB4C002800D19FE193
:1055E000611DB8E1F9480078F74C002800D19BE133
:1055F000E11D9AE1F5480078F34D0028294600D1D5
:105600006CE1691C6AE1F1480078EF4C2146002802
:1056100000D197E10F3196E1EC480078EA4C002880
:10562000214600D175E1611C73E1E8480078E64C41
:105630002146002800D18DE10D318CE1E34800784E
:10564000E1490C460F34002800D18BE121468AE164
:105650000F3110E00A310E2001252A46FDF71EFA0F
:105660000F340EE0A11D0E2001252A46FDF716FA83
:105670000D3406E00C310E2001252A46FDF70EFA06
:105680000B340F2075E10C31062001242246FDF772
:1056900005FAA91D072022466DE10C3102200124E4
:1056A0002246FDF7FBF9A91D0320224663E10C31D8
:1056B0000FE0A11D062001252A46FDF7EFF90D3464
:1056C000072056E10C311FE0211D0BE0211D00E0F9
:1056D0000A31062001252A46FDF7E0F90F3407209C
:1056E00047E10A31022001252A46FDF7D7F90F3498
:1056F00003203EE1A11D022001252A46FDF7CEF937
:105700000D34032035E10E31022001252A46FDF734
:10571000C5F90B3403202CE10C3100E00E310620DA
:1057200001252A46FDF7BAF90B34072021E10E3195
:10573000062001252A46FDF7B1F9072019E10E31AF
:10574000022001252A46FDF7A9F9032021462A4611
:10575000FDF7A4F99E4800789B4C002801D0611DFC
:1057600000E0211D022001252A46FDF797F90320BC
:10577000FFE0211D67E00E31002001252A46FDF7DC
:105780008DF908342846F4E00C3104200124224627
:10579000FDF784F9A91D05202246ECE00C311FE03D
:1057A000A11D042001252A46FDF778F90D340520B6
:1057B000DFE0A11D002001252A46FDF76FF90D3419
:1057C0002846D6E00C312CE00E31002001252A4677
:1057D000FDF764F909342846CBE0211D00E00A31C9
:1057E000042001252A46FDF759F90F340520C0E0B1
:1057F000A11D0A2001252A46FDF750F90D340B2082
:10580000B7E00C3132E00E310A2001252A46FDF7BF
:1058100045F908340B20ACE00A311EE00C3109E0F8
:105820000E31002001252A46FDF738F90B342846B1
:105830009FE00E31042001252A46FDF72FF90B3495
:10584000052096E00E31042001252A46FDF726F9B1
:1058500005208EE00A3130E0211D002001252A4676
:10586000FDF71CF90F34284683E00E310A2001258C
:105870002A46FDF713F90B340B207AE00C31002097
:1058800001242246FDF70AF9A91D2046224672E0AE
:10589000211D12E00E31002001252A46FDF7FEF8F9
:1058A000284666E00C310A2001242246FDF7F6F86E
:1058B000A91D0B2022465EE00C310A2001252A4654
:1058C000FDF7ECF80F340B2053E00E310A200125D0
:1058D0002A46FDF7E3F80B204BE00C3108200124A9
:1058E0002246FDF7DBF8A91D0920224643E00E31D0
:1058F000082001252A46FDF7D1F8083438E00C319C
:1059000021E0C046B700002072000020A80000205F
:105910000A31082001252A46FDF7C0F80E3427E099
:10592000211D18E00A3116E0A11D082001252A4694
:10593000FDF7B4F80D341BE072000020A800002031
:10594000820000200E31082001252A46FDF7A6F826
:105950000B340DE00C31082001252A46FDF79EF896
:105960000F3405E00E31082001252A46FDF796F890
:10597000092021462A46FDF791F816480078414251
:105980004141154A1278531E14469C410C430E495E
:10599000012C05D1002A09D0002807D1891C00E07C
:1059A000491C13200122FDF779F8B0BD4342434161
:1059B000002A00D10123012B04D1002AF5D10028AF
:1059C000EFD0F2E7C91CECE7720000208200002053
:1059D00069000020BD000020AE00002043088B427B
:1059E0001AD3002203098B4279D3030A8B425ED378
:1059F000030B8B4242D3030C8B4227D30902FF22B5
:105A000012BA030C8B4202D31212090203D0030B09
:105A10008B4233D31AE0D3E0411A8041401C7047D7
:105A200003460B4371D443088B42F5D3002203098C
:105A30008B4254D3030A8B4239D3030B8B421DD3C1
:105A4000030C8B4202D394466EE0090AC30B8B42CF
:105A500001D3CB03C01A5241830B8B4201D38B037A
:105A6000C01A5241430B8B4201D34B03C01A52411F
:105A7000030B8B4201D30B03C01A5241C30A8B4262
:105A800001D3CB02C01A5241830A8B4201D38B024D
:105A9000C01A5241430A8B4201D34B02C01A5241F1
:105AA000030A8B4201D30B02C01A5241CDD2C30963
:105AB0008B4201D3CB01C01A524183098B4201D3DF
:105AC0008B01C01A524143098B4201D34B01C01ACA
:105AD000524103098B4201D30B01C01A5241C30842
