:020000040000FA
:10000000380700207D010000311A00002F1A00007F
:1000100000000000000000000000000000000000E0
:10002000000000000000000000000000AD20000003
:100030000000000000000000A51A00009921000047
:1000400000000000950100009501000095010000EE
:10005000950100000911000095010000000000005A
:100060000000000000000000950100009501000064
:1000700095010000950100009501000000000000BE
:1000800000000000950100009501000095010000AE
:100090000000000000000000811000009528000012
:1000A00095010000950100009501000095010000F8
:1000B00095010000950100009501000000F002F894
:1000C00000F04CF812A030C8083824182D18AC42A3
:1000D00001D100F043F80FCCA246AB460CA730CFBD
:1000E0002D1B083F3F197C427F1E54442D090426D6
:1000F000F441641EAC4201D300F030F801263342D3
:1001000000D0FB1A3343984754465D46DFE70000B2
:100110006060000080600000103A02D378C878C1A7
:10012000FAD8520701D330C830C101D504680C6039
:1001300070470000704700000023002400250026BF
:10014000103A01D378C1FBD8520700D330C100D593
:100150000B6070471FB51FBD10B510BD00F047FE06
:100160001146FFF7F7FF02F09BFD00F05FFE03B4BE
:10017000FFF7F2FF03BC00F065FE0000094880F3C2
:1001800008880948804709480047FEE7FEE7FEE780
:10019000FEE7FEE7FEE7000005480649064A074B72
:1001A00070470000380700209D210000BD000000BE
:1001B00038010020380700203803002038030020D1
:1001C000002203098B4273D3030A8B4258D3030BDB
:1001D0008B423CD3030C8B4221D312E003460B43EA
:1001E0007FD4002243088B4274D303098B425FD330
:1001F000030A8B4244D3030B8B4228D3030C8B425C
:100200000DD30902FF2212BA030C8B4202D3121241
:10021000090265D0030B8B4219D300E0090AC30B16
:100220008B4201D3CB03C01A5241830B8B4201D3C3
:100230008B03C01A5241430B8B4201D34B03C01AAC
:100240005241030B8B4201D30B03C01A5241C30A24
:100250008B4201D3CB02C01A5241830A8B4201D395
:100260008B02C01A5241430A8B4201D34B02C01A7F
:100270005241030A8B4201D30B02C01A5241CDD224
:10028000C3098B4201D3CB01C01A524183098B426F
:1002900001D38B01C01A524143098B4201D34B0158
:1002A000C01A524103098B4201D30B01C01A5241BB
:1002B000C3088B4201D3CB00C01A524183088B4242
:1002C00001D38B00C01A524143088B4201D34B002B
:1002D000C01A5241411A00D201465241104670479D
:1002E0005DE0CA0F00D04942031000D340425340A2
:1002F0009C46002203098B422DD3030A8B4212D362
:100300008901FC2212BA030A8B420CD38901921193
:100310008B4208D3890192118B4204D389013AD0D0
:10032000921100E08909C3098B4201D3CB01C01AA5
:10033000524183098B4201D38B01C01A52414309B8
:100340008B4201D34B01C01A524103098B4201D3A6
:100350000B01C01A5241C3088B4201D3CB00C01A13
:10036000524183088B4201D38B00C01A5241D9D22B
:1003700043088B4201D34B00C01A5241411A00D2AC
:1003800001465241104663465B1001D34042002BA8
:1003900000D54942704763465B1000D3404201B527
:1003A0000449002802DC491C084000E00846C04619
:1003B000C04602BDFFFFFF7F7047704770470000D7
:1003C0000246C80FC00781434B0030B54B405B006D
:1003D0009B0D20D01923DB06C91801231B05994268
:1003E00020DB0324A40704251346AB400BD3002BCA
:1003F00004D1EB0613409B00E34204D401246407BC
:10040000002312195941FF231B0599420BD2C90041
:100410000143500F09E0CB0204D501430803024316
:1004200005D0054830BDFF21C905084330BD084649
:1004300007210905884330BD0000C07FF0B5F94DA4
:100440000C091E092C402E402F468BB0A7437DD0AF
:10045000B543FCD0002E7AD0002CFCD00D465D4078
:10046000ED0F2543AC1BFF25AD0464190894C502AC
:10047000440DC9022143500DDC0204430120C00792
:1004800001430443D2020191200C110C00958C46CB
:10049000010423468B430A9161460904E24D8A43D5
:1004A0000991010A7D4449198039097805464D436F
:1004B00001266D18F605751B6943C90C640B891C70
:1004C0004C436418B5012C1B250C2E04B4434C433B
:1004D0004D43210C691889090591009DE90701D058
:1004E0000121C90704912C4601996708CD072F43C4
:1004F0004C08059DE10B4D432D0C2946664675437E
:1005000002950D4645432E46029D7D1BB441009544
:100510000D465D4301942C0C2F040D465543AE4609
:100520002D0C3D43029503947546049C2D04641BD9
:10053000049406D2029C039D641C00267541039519
:10054000029401AC70CC009F7D1B01E03EE162E1B2
:10055000B44109040095079101940599A4086143E9
:10056000090C0C464443650BE7040C46664674438D
:10057000A646640B3C43039502947446049DE40430
:100580002C1B049406D2029C039D641C002675411A
:100590000395029401AC70CC009F7D1BB441019483
:1005A0000C465C430095650FE7000C465443A64695
:1005B000640F3C43039502947446049DE4002C1B95
:1005C000049406D2029C039D641C00267541039589
:1005D000029401AC70CC009F7D1BB441AE09AF0604
:1005E000049DC900AD092F43049DA406AD060495E2
:1005F000079D344369180791059DE10B4D432D0C70
:1006000029466646754302950D4645432E46029D92
:100610007D1BB44100950D465D4301942C0C2F04C5
:100620000D465543AE462D0C3D4302950394754649
:10063000049C2D04641B049406D2029C039D641C3C
:10064000002675410395029401AC70CC009F7D1B80
:10065000B44101948C050694079C890A61180095A1
:100660000791019C0599A4086143090C0D46454377
:10067000680BEF040D46644665436C0B3C43049FD6
:10068000ED047D1BAC4602D20025641C6841009E2F
:10069000019D371B85410846584301950C46460F7E
:1006A000C5005443600F28436546E4002C1B02D26A
:1006B0000025401C6E41019D3F1AB5412846BD09E9
:1006C000800628438446A009BF064E020699A40668
:1006D00076180743079D002068410A99079019433F
:1006E0000020099B00906046FF1913434041E20F30
:1006F00064003A43A4460446D71A8C41A04203D969
:100700000120009020463A46C70F941840416246A7
:10071000D20F2243644664000494009CBE466400E9
:10072000D71AA446044602978C417746002F01D180
:10073000A04204D96046401C8446029A2046C40F59
:10074000A64694184041049A0546D20F22436446B7
:100750006400D31A8D417146002901D1A84202D903
:1007600028461A46641C10430122002800D0164374
:1007700061020020079B891904465C410223002C7A
:1007800002DB491813466441089DCE0A2D145D19F9
:100790004B056705E10A2C050D1908993E43C90769
:1007A0006940002B08D0934006D30022761C5141AB
:1007B000002B01D1760876001C4A002D43DB154240
:1007C00041D0AA433FD030460BB0F0BD06180D46CD
:1007D0004D41174C7642AC411AD395181C465C41EA
:1007E000134A6D42A24113D3012252054C00D44258
:1007F0000AD15C00D4420BD04B4002D59202114387
:10080000E2E749004908DFE75940C90FC90718E086
:1008100000200849D8E7054801420DD10342F7D02E
:10082000F2E700000000FF07685B00000000F07FB7
:100830000000E0FF0000F87F114859400143C0125A
:1008400041400020C0E70123089A9B069A4205DC3C
:10085000032252078918C90FC907B5E705225207B5
:100860008918074A1143D2125140ADE770B51546B9
:100870001C4602460B4628462146FFF7DFFD70BDA9
:10088000FFFFFF7F30B50346CA02400D1043164DEF
:10089000164C0A1502D02043002A06DBAA1A002AA9
:1008A00012DDD040FF2A0BDC30BD5205520D01D1C4
:1008B00040004008AA1A07D4D0404042FF2A01DD78
:1008C000002030BD0028FCDD4A00002B01D00120B3
:1008D00000E00020101801225205D042F0D8C817BD
:1008E000C043604030BD00001E04000000000080D6
:1008F0001F22030C02D10F22000402D0030E03D0EA
:1009000004E00020014670470002083A030F01D1BD
:100910000001121F830F01D18000921E002801DB0D
:100920004000521E120551184205C01241181046CF
:100930007047C10FC90700D04042012292071143FE
:10094000D6E701218907D3E7F0B58B4C0F0925467F
:1009500089B0BD437BD01D092646AE43FAD00E4672
:100960005E402740F60F3E43254071D024012142CE
:10097000FBD0FF24AD19A4042D1B039501252D05E3
:10098000DB02DB0AC9022B43C90A29431E01090104
:10099000040F130F050121431701880B82039143B4
:1009A0002D098C46A90B1E438A039543B30B9A036A
:1009B00096433F09BA0B9403A74302962E467E4303
:1009C0000497B6464E19D7190C460196544305971D
:1009D0007E43371B7646BF1B3601B646BE0B361923
:1009E00000967646BC043719009C01D3641C009421
:1009F0006400002F01D001263443029E049F7543FA
:100A000066467E430496760034196E0034190094CD
:100A1000029C019E1C196643751BAE4606946546F2
:100A20004519059C05956C43594375460891691A0B
:100A30000191049E01465143A41B0491611A009C3C
:100A40000791E10605D061090122114302E072E03D
:100A50006EE06109089D00272C0A2D066918049D87
:100A60007C412A0A2D066918019D6241AC0DAD0238
:100A70006D185441079A910D920255196141029ADD
:100A8000644658435443069B059A5A43121A131B53
:100A90009A0E9B015B187A41010B0005C318514166
:100AA000220A200644195A419A4200D2491C0120C8
:100AB0004002814203D315230226F64302E01423A9
:100AC0000326F6432020C51AA9401746AF40DA4056
:100AD0000A4320460399D840091473181905511880
:100AE000039A3843D2075140AC4009D001229440C8
:100AF00006D30022401C5141002C01D14008400087
:100B00001E4A934212D3012203989206904207DBB9
:100B10000520400709181A480143C012414004E06B
:100B2000032040070818C10FC907002009B0F0BD15
:100B30000020F107FAE705180C464C4111486D42B8
:100B4000A04115D394181A465A410E486442904168
:100B50000ED301204A004005824209D35A00824246
:100B600006D35940C90F084AC90700201143DDE7E1
:100B700000200649DAE700000000FF07FE0700003A
:100B8000FFFFFF7F0000E0FF0000F07F0000F87F24
:100B90000121C9050123411842001B06D3185B0E31
:100BA0000AD0C1100722D206891840075242D1420A
:100BB00001D5520089187047090208D50146002A5C
:100BC00003D0C10FC907002070471046704742028A
:100BD00002D0002002497047072109050143F4E7CC
:100BE0000000F87FF0B5FF252D04C609C209FF27D4
:100BF00004462E400137CB093E4348402A402B4053
:100C00000746002A6BD0002B69D0AA4267D0AB42BE
:100C100065D0002800DA32460125ED0529432C4332
:100C200009022002090AD21A4B0C7F24E31A434C12
:100C3000000A7C44E35C7D242404121914145B0034
:100C4000A218884201D3521C00E0400049420C46E1
:100C50005C4324115C43DB016415E318040A5C4324
:100C6000C502200D0C4644436419250A5D43230345
:100C7000EC0C0D46654300030019EB184C42A342EF
:100C800001D35B18401CD4052018002B07D05B0053
:100C9000C91804D3401C002901D1400840003F215D
:100CA00089048A4209D3002A08DC1106090F04D0FE
:100CB000032149074018C00FC007F0BD01224100C1
:100CC000120689187F2252069142F6D20521490761
:100CD000C84201D59010F0BDFF20C005F0BD002F27
:100CE00000DA32461648AA4207D2AB4205D21902B0
:100CF000090E17D0F80FC007F0BDFF2563002D06C1
:100D0000AB42F9D84900A942F6D8AB4201D1A94279
:100D1000F2D0A94201D1002101E061004908D005CB
:100D20000843F0BD1102090EFBD0FF200243D0059D
:100D3000F0BD0A460146104654E700005A54000030
:100D40000000C07F10B501469E240002CA15A3070B
:100D5000002A02D01843002A04DBA21A002A0CDD64
:100D6000D04010BD1206120E01D140004008A21A58
:100D700003D4D04040420028F3DDFF224800120691
:100D8000904201D9002010BDC817C043584010BD83
:100D90001F22030C02D10F2200041CD0030E01D12C
:100DA0000002083A030F01D10001121F830F01D185
:100DB0008000921E002801DB4000521ED20551180F
:100DC000021251181922904004D3491C002801D165
:100DD0004908490008467047C10FC90700D0404282
:100DE000012292071143D3E701218907D0E7754615
:100DF00000F024F8AE46050069465346C008C0001E
:100E0000854618B020B5FFF7C7F960BCB646002686
:100E10000027C0C5C0C5C0C5C0C5C0C5C0C5C0C508
:100E2000C0C5403D490849008D46704710B504468D
:100E3000C046C0462046FFF79AF910BD00487047EB
:100E40000800002001491820ABBEFEE72600020082
:100E50007047B0B50025284600F046F900F00AF9C1
:100E60000320C401204600F081F800F0FDF800F0F6
:100E700043F9204600F020F90028FAD0204600F07F
:100E800075F8681C092D0546F1D300F0E1F800F073
:100E9000F9F8404240B200F027F900F0DFF82046B0
:100EA00000F064F8B0BD000010B50320C401204676
:100EB00000F002F9002802D1204600F057F800F0B7
:100EC000E1F81C4908801C4948431C4904F09EFE77
:100ED0001B49088080B2FF212E3188420DD3204863
:100EE000017800290ED01F480078002809D0154845
:100EF000012101701448017010BD124800780028CB
:100F000005D010BD184901220A70027010BD0E49AB
:100F1000002008700D490A78022A08D10C4A107086
:100F200004220A700B4901220A700B490A700B490E
:100F3000087010BDBE000020E40C0000FF0F000090
:100F40002801002089000020BC000020990000201A
:100F5000C7000020ED000020F40000208A000020DF
:100F6000860000208700002088000020FF21CA435F
:100F7000C1431143C005554803D4C2680A40C2604A
:100F8000704702680A4002607047C046F0B52B49BE
:100F90000B1F1A680124A2431A6002781C6870258E
:100FA000AC435207520EA2181A6084791D680222BF
:100FB0009543E407A40F2C191C60037A0C680825DC
:100FC000AC43DB071B0FE3180B6084780D683023FC
:100FD0009D43E407E40E2C190C608478A40040259E
:100FE0002C400E68AE4334190C60858800242E46D0
:100FF000E640F60703D1641C092CF8D109240D68DA
:1010000015430D600F2634400D46083D2F68B74349
:101010003C192C60D2430C6814400C60C4790E68F3
:101020001640E207920FB2180A60296899432960B6
:101030004078296801432960F0BDC04688440040DB
:1010400001210172818000218170C180018070477F
:101050002C480168012291430160704721480168D2
:1010600001229143016070472648016801220A432A
:10107000026070471B48016801220A430260704702
:10108000704700000F2108020A4A1346083B1B68FC
:101090001B0707D4136852680A40F0301901014059
:1010A000881870475168126812020240C8B21018BE
:1010B0007047C04690440040C105044900D40C313B
:1010C00009680840C0B2411E884170478044004012
:1010D00004490A6804239A43C007400F10180860A7
:1010E0007047C046C04400403F21014001480160B4
:1010F0007047C046C44400400248016801220A43C8
:10110000026070478444004080B50348007800289E
:1011100001D000F04DF980BDA000002001218140E8
:10112000014801607047C0460818004006282ED8C4
:10113000784400794000874403120B192A2A2200C0
:1011400003200140124A1368834358181060704707
:101150000F48026830239A438907890E0CE00C4837
:1011600002680C239A438907090F05E008480268C2
:10117000C0239A438907090E51180160704704483B
:10118000426804239A43C907490F511841607047C8
:101190000018004070B50146584A214C2646354695
:1011A000131F1868460707D4C60609D4461E7042A6
:1011B0007041012807D009E00220012803D005E092
:1011C0000320012802D16E1C002DE8D1002D00D192
:1011D0000420002800D070BD10680225284310604C
:1011E0005160106840210143116021461C6860076E
:1011F000284604D4E00608D4641E604260410128F9
:1012000006D14C1C0029F0D102E003200128F8D0BF
:1012100013680224A34313600029DCD1042070BDAD
:101220000100F5FF3548016880220A4302607047DB
:10123000F0B581B0314B324D2F463E461C1F22681F
:10124000570707D4D70609D4571E7A427A41012A94
:1012500007D009E00222012A03D005E00322012A77
:1012600002D1771C002EE8D1002E00D10422002AE2
:1012700040D11A680126009632431A6001802F4639
:101280003E462268570707D4D70609D4571E7A422C
:101290007A41012A07D009E00222012A03D005E0A1
:1012A0000322012A02D1771C002EE9D1002E00D1A1
:1012B0000422002A1AD1090C4180284621684A07D5
:1012C00007D4CA0609D4491E4A424A41012A07D016
:1012D00009E00222012A03D005E00322012A02D1FB
:1012E000451C0028E9D1002800D104221868009983
:1012F00088431860104601B0F0BDC0461010014090
:1013000001E0FFFF024803490160034901607047A3
:101310000410014023016745AB89EFCD10B5FFF7FD
:10132000F1FF0F20C4022046FFF734FF1A4801885E
:101330002046FFF77DFF5548018850342046FFF7CF
:1013400077FF16480188792004022046FFF770FFD6
:101350001348018850342046FFF76AFF114801887E
:101360003D2044022046FFF763FF42480188503485
:101370002046FFF75DFF0C4801787B2004022046E1
:10138000FFF756FF0948018850342046FFF750FF09
:10139000FFF748FF10BDC046A4000020B8000020A1
:1013A000A6000020A20000208B000020700000207A
:1013B000F0B593B002480078002803D183E2C0461C
:1013C000B200002006480168491C0160054F3868DA
:1013D000451C3D6004480178002909D106E0C0465B
:1013E000CC000020FC000020090100200121017038
:1013F000064E30687F21CC05214604F003FD3060A5
:1014000003480088854205D8F4E1C0462C0100203D
:101410007000002002480078002803D1EAE1C046AD
:101420000A010020094D2868214604F0EBFC2860E1
:10143000FFF7AEFB064A074BFFF700F8FFF722FA6B
:1014400005490880002809D1CDE1C046D800002018
:101450003D0AD7A3703D0E40AC00002000200A904A
:101460002860044801884E1C06800349088800282B
:1014700006D003E0AA000020A4000020401E08803F
:1014800002480188002905D002E0C046B4000020CF
:10149000491E0180FD4A1188002901D0491E118092
:1014A000FB4A1188002901D0491E1180F94A118890
:1014B000002901D0491E11800488E008F6494843FC
:1014C0000B46000D7D21CF007843251A0B94F3487D
:1014D0000580B0B2C1085943090D7943711A1291C0
:1014E00089B20D91401A394604F0B2FB0890EC49DC
:1014F0000870FB4802880992D008FD494843000D56
:101500007843101A0E9080B20490101A39460F9743
:1015100004F09EFB0690F8490870A9B2601A0C46C8
:101520000191394604F094FB0790F4490870292092
:10153000010108466043000C642460432F1AF04800
:101540000780084605960E4610910D994843000CF9
:101550006043129A101A0C9080B20290081A214629
:1015600004F076FB0D90E7490870049A5643300C5E
:1015700060430E9B181A0E9086B2901B2146119460
:1015800004F066FB0390E0490870BDB20198401B6F
:101590000095214604F05CFB0490DC490870DC49AE
:1015A00008466843000C0A2460433F1AD948078064
:1015B000084602994843000C60430C9A101A80B206
:1015C000081A214604F044FB0546D3490870D04868
:1015D0007043000C60430E9A101A80B2301A2146F4
:1015E000129404F035FB0646CC480670B8B2009958
:1015F000081A214604F02CFB0290C9490870F62114
:101600004D430B469C270D9878430E971824089A53
:1016100062430D940599511809184919C14A11706E
:101620000C935E4303987843069A624309995118D4
:1016300009188919BC4A1170029D5D4304987843CA
:10164000079A62430B99511809184819B74908704D
:10165000A4480188C808A64B5843000D0F9D684355
:10166000081A0F460791A349088082B21099514386
:101670000492090C119C6143401AA149088084B26C
:101680000B94A3496143090C129C6143411A0691D2
:10169000A048018094480488E0085843000D68433E
:1016A000261A099493480680B81A294604F0D0FAFD
:1016B00005909F490870B7B2E01B294604F0C8FAAC
:1016C00008909C49087010987843000C119C604366
:1016D000351A8B4805800B98049A101A214604F09D
:1016E000B7FA064694480670A9B2781A0F460391D5
:1016F000214604F0ADFA049090490870844878437C
:10170000000C129948432A1A0292824802800698D5
:1017100080B20B9A101A04F09BFA894908700C9F4A
:1017200078430E9C66430D9D059A6A4307995118AC
:101730008919081883490870029880B20399081A19
:10174000129904F085FA804908707843049B63433A
:10175000089A6A4309995118C91808187B490870F2
:1017600062480688F00862494843000D0F994843D3
:10177000371A60480780BDB2701B04F069FA0F90F9
:101780007349087010986843000C119948433C1A3B
:101790005B480480A7B2E81B04F05AFA05466D487E
:1017A00005705B487843000C129A5043201A59493F
:1017B000088080B2381A114604F04AFA6649087067
:1017C0000C9A42430E9969430D980F9B5843801918
:1017D0004018801861490870FFF7A0FD3F480A993A
:1017E00001803A4F3C4D002038602868FFF7AAFA84
:1017F0005B4908805B4D5C4E37785C480078002878
:1018000016D0002F14D12878002811D1584800781C
:1018100058490978014307D157480178574A127847
:101820000A4301D10121017055480178491C01701A
:1018300054480178032912D300210170244A10680A
:101840001160514904F024FB044622480088FFF748
:10185000CBFA01462046FFF7C5F94C490860002F36
:101860002ED04B48017802292AD0002928D0494996
:101870000A78521C0A7048490B78002BD2B211D159
:101880000B2A0FD3012008701AE0C046B8000020D0
:10189000A6000020A2000020C5200000C2000020F9
:1018A000D0000020022B0BD10B2A09D3002131706C
:1018B00007220270012028703048017037480170FB
:1018C0000220FFF72BFC13B0F0BDC046FC00002047
:1018D0002C01002070000020D8000020AC00002067
:1018E000A4000020B8000020A6000020A2000020D4
:1018F000C5200000C2000020D1000020D20000203E
:1019000032010020170100201801002019010020D9
:101910009A190000F8000020200100202101002079
:1019200022010020E1000020E2000020E30000206E
:10193000D3000020D40000201A0100201B01002049
:1019400023010020E400002024010020E500002005
:10195000D50000201C01002025010020E600002009
:10196000BA000020980000208F0000208B0000208B
:101970002A0100208C00002010010020120100200C
:101980008E0000202B0100200000FA449C00002063
:1019900099000020AF000020DC0000200C01002096
:1019A00002688A4302607047F0B584B0C368046976
:1019B0000090806803900291C8780190002603E0AF
:1019C0003B43761C082E22D001200746B7400199E0
:1019D0000F42F6D01946029A157810222A4002D0FA
:1019E000039B3B4301E0039BBB430393002A00D1CD
:1019F00002200B460299085C002803D03C43E8070C
:101A0000DED102E0BC43E807DAD1BB43D9E7009856
:101A1000C36004610399816004B0F0BD4068084070
:101A2000411E8841704702680A4302607047704750
:101A300070470000002809D41F210840012181407F
:101A400003480160BFF34F8FBFF36F8F7047C046ED
:101A500080E100E010B5002805D40322034693433B
:101A60000E4A9A1803E00C2202400B4BD21883074F
:101A7000DB0E8907090E9940FF249C401368A3439D
:101A80000B431360002805D41F2108400121814029
:101A90000348016010BDC04614ED00E000E400E022
:101AA00000E100E070470000F0B581B014460F4639
:101AB000072854D84000C0467844808840008744B6
:101AC00007009100DF0027014E0068018700D40065
:101AD000FB480026067007200E2103F09DFA08201F
:101AE000314603F099FAF7480078002819D1F648F2
:101AF000009701270770F5480770F5480770F54D06
:101B00000F35102029463A4600F0DCFF1120294607
:101B10003A4600F0D7FF122029463A46009F00F0CF
:101B2000D1FFED480078002800D05EE1EB48007856
:101B3000012800D1FAE1002800D056E1E8480670FB
:101B4000E8480670E8480670E84D04212846FFF78B
:101B500027FFE7480078002800D046E1ABE1E148E4
:101B600001260670E14D02212846FFF719FF0421E6
:101B70002846FFF715FFD94900200870D149097898
:101B800000291CD1D8490870D5490870CC49087083
:101B9000CE480670CC480670CD480670CD4D0F3546
:101BA00010202946324600F08DFF1120294632468A
:101BB00000F088FF12202946324600F083FF0720FC
:101BC000002103F029FA0820032103F025FA0CE193
:101BD000C4480126067007200E2103F01DFA0820D4
:101BE0000621DFE0FB480126067007200E2103F0E6
:101BF00013FA0820314603F00FFAF748007800285E
:101C000018D1F6480670F7480670F54806703D464C
:101C1000F54F0F3710203946324600F053FF1120A0
:101C20003946324600F04EFF122039462F463246E2
:101C300000F048FFED480078002800D0D5E0EC48DF
:101C40000078012800D16AE1002800D0CDE0E94801
:101C500000210170E8480170E8480170E84D022158
:101C60002846FFF79DFE042126E1DA48012606708A
:101C700007250E21284603F0CFF90820294691E0D8
:101C8000D4480126067007200E21009003F0C4F905
:101C9000D1480078002818D1D0480670D048067086
:101CA000D04806703D46D04F0F3710203946324697
:101CB00000F008FF11203946324600F003FF1220E1
:101CC00039462F46324600F0FDFEC848007800280D
:101CD00000D08AE0C6480078012800D141E1002800
:101CE00000D082E008200225294603F095F9C1487A
:101CF00000210170C0480170C0480170C04E3046DC
:101D00002946FFF74DFE04213046FFF749FE6CE0FF
:101D10000097BA4800260670AE4801270770B84DF4
:101D200002212846FFF73CFE04212846FFF738FE33
:101D3000AF480078012802D0002804D13E46AD48C3
:101D40000670AD480670A4480078002817D1A34853
:101D500001260670A3480670A1480670A24F0F37EF
:101D600010203946324600F0ADFE11203946324689
:101D700000F0A8FE12203946324600F0A3FE0720EC
:101D8000002103F049F90820032103F045F9009FE1
:101D90002BE090480126067007200E2103F03CF945
:101DA0000820052103F038F98B480078002818D165
:101DB0008A4806708A4806708A4806703D468A4FEF
:101DC0000F3710203946324600F07CFE112039468C
:101DD000324600F077FE122039462F46324600F098
:101DE00071FE8248007800284FD00F2F0DD88B4805
:101DF000F840C00709D0B80089A10958012003F0B4
:101E00000BF902200A2103F007F9E0089449414345
:101E1000090D944801807D20C0004843221A924851
:101E2000028090B28008914B4343580C904D28801B
:101E300064234343D31A8F4A13809AB28E4E56437B
:101E4000F20C8E4E32800A275743DB1B8C4F3B80AF
:101E50008C4B4B431B196324E443604318185A34DA
:101E600054430019884C2080032003F0D5F82988BA
:101E7000042003F0D1F83188052003F0CDF8218843
:101E8000062003F0C9F801B0F0BD594800780128D8
:101E900030D00028A9D15748002101705648017060
:101EA00056480170564D04212846FFF779FD5548E4
:101EB00000784D2899D802212846FFF771FD94E754
:101EC000BD0000200A010020B1000020B000002069
:101ED0008300002072000020B6000020C80000200F
:101EE00068000020B700002069000020000C0040BE
:101EF0006F0000203F4806703F4806703F4806705C
:101F00003F4D04212846FFF78EFD3E4800784D28BE
:101F100000D96AE702212846FFF785FD65E73548C5
:101F20000670354806703548067006E032480121D3
:101F30000170284801702F480170314E042130464D
:101F4000FFF771FD34480078002800D14DE7314893
:101F50000078002800D048E702213046FFF763FDF3
:101F600043E7294D2878002801D005210AE02748B9
:101F70000078002801D0062104E0254800780028D8
:101F8000009902D0082003F047F81A4806701A4852
:101F900006701A4806701A4E04213046FFF743FDBA
:101FA0001C480078002800D01FE71B480078002854
:101FB000D2D1144800784D2800D916E72878002897
:101FC000CAD1124800780028C6D1114800780028EC
:101FD000C2D10AE7B70000200A010020B1000020AA
:101FE00083000020B000002072000020B600002016
:101FF000C80000206900002068000020BD0000200B
:10200000000C00400C0100208C0000208F000020FC
:10201000980000206F000020C70000203F800000D3
:1020200000000000010000000200000003000000AA
:102030000400000005000000000000000000000097
:102040000000000000000000000000000000000090
:102050000000000000000000000000000F00000071
:10206000C5200000C0000020C20000207B1400003A
:102070003001002032010020CDCC0000F60000200D
:10208000F800002018FCFFFFC40000205E490A6829
:1020900018239A438307DB0ED2180A6040002022DF
:1020A00010400B6893431818086070477047000091
:1020B00070B513480078401EC5B20B2D1FD8AE0076
:1020C0001048815910200124224600F0FBFC0EA08C
:1020D00081591120224600F0F5FC17A081591220E9
:1020E000224600F0EFFC20A0405D2249087022A0AB
:1020F000405D2449087024A0405D2649087070BDE9
:10210000C9000020D0600000780000207E00002080
:1021100077000020780000207E000020770000205B
:10212000780000207E00002077000020780000204A
:102130007E00002077000020770000207B00002038
:1021400075000020770000207B0000207500002033
:10215000770000207B000020750000207700002021
:102160007B0000207500002000010100000101003B
:1021700000010100B0000020010101000101010087
:1021800001010100830000200000010000000100A7
:1021900000000100B100002070470000B0B51A48EF
:1021A0000146183901220A600246143A00211160E2
:1021B0000246083AE1231360021F116018220260F0
:1021C000FF224260026142628160C160C268D20740
:1021D000FCD1C16081610D4B1C68102214431C604E
:1021E0000724E4431D6825401D60036820251D4326
:1021F0000560036823400360036808241C4394437C
:10220000046003480160B0BD1800014000100140A7
:1022100008ED00E0F0B585B00124204600F03EFB5B
:10222000012800D0B7E20294204600F017FBE74AED
:102230001078431C1370E6480178481E0D4685410E
:10224000E4480078464246412E43E34C25786F42ED
:102250006F41374303D0E14C0025257010E0DF4D7E
:102260002F787F1C2F70FFB22E2F09D300272F70DD
:10227000DB4F3D786D1CECB20C2C00D901253D7074
:10228000DBB2962B029D00D085E200271770002E4E
:1022900031D0002900D17EE2D2490978002900D14D
:1022A000FAE0D14E3078411C3170D04D2A7850423E
:1022B0005041C9B2042900D302900298002800D0EE
:1022C00069E2CB4C02212046FFF7ADFBC9480490E0
:1022D0000498411E04910028FAD102212046FFF7FC
:1022E0005FFB00203070C44901220A70C3490870A6
:1022F0002870C34E4DE2C34E3078002808D0022526
:102300002846FEF70BFF05202946FFF7A3FB377091
:10231000BD480078002803D0BC480178491C0170F2
:10232000BA48BB490A78BB4B1C78002C2AD0BA4C5F
:102330002578002D26D0022D24D00478032C21D31B
:10234000032A1FD300260670B44C01252570B44C17
:102350002680B44C2670B44C2660B44C2670B44C25
:102360002670B44C2670B44C2670B44C2670B44C15
:102370002660B44C2670B44C26701E70B34B1C788B
:102380006C401C70974B1B78002B01D0521C0A70BC
:10239000A24E3278002A1DD1097804291AD3007878
:1023A000002817D1924D02212846FFF73CFB9148A7
:1023B00003900398411E03910028FAD10221284678
:1023C000FFF7EEFA8C48002101708C480122027060
:1023D0008B48017088480178884802781046084385
:1023E00007D0EE4803785B1CDCB2022C00D01F46FD
:1023F0000770ED480078002AEA4F1AD1042818D057
:10240000002916D1F8490A78002A03D0F74A137830
:102410005B1C1370F64A13785B1CDCB2022C00D1F3
:1024200000231370F14A1378192B02D300230B7089
:1024300013703978002903D0EE490A78521C0A70CB
:102440003178002909D0EC490A78521C0A70D2B2BE
:10245000042A02D300220A703270DF4D2978002945
:102460007CD0D9490A78002A78D1D14E3278012A15
:1024700074D1D14A1378002B70D1CC4F3C88631CA7
:102480003B8003277F02E419A4B2082C28D8C9484E
:1024900000210160C34F61E0EC4E31784B1C33707A
:1024A000EB490C7862426241DBB2032B00D3154644
:1024B000002D00D06FE100240C70002841D0E548C9
:1024C000012101700520FFF7B5FA0220FEF726FE74
:1024D000B3480470092040016030FEF747FD58E121
:1024E0009BB2C64CA342AF4F38D3C54B1B78B14CFF
:1024F0002468002C2BD0002400282BD0002B29D1BD
:10250000C0480078002825D1B2480078002821D1A1
:10251000AF48007800281DD1A94800240470147029
:102520000520A14A1070A548012202700A70900788
:1025300001900221FFF734FA04210198FFF730FAE5
:1025400008E0012096490870C349087021E1581E2F
:1025500083415C0000209549088034709C4E2878A7
:1025600000287AD03078002877D18F48007802216F
:102570000143022971D09748007800286DD1A24903
:102580000878A24A1378834262D200201070087043
:102590008E490A68521C0A609D498A425DD3012116
:1025A0003170894A107006227F4B1A70824A10706F
:1025B000834A10708F0702213846FFF7F1F9042192
:1025C0003846784FFFF7ECF947E0C0461E0100207F
:1025D0006F000020B20000200A0100201F0100202F
:1025E000C90000206D000020C6000020F00000207F
:1025F000000C0040983A000016010020B6000020B0
:1026000007010020EE0000206B0000206A0000207F
:102610006C000020E900002099000020EA00002062
:102620000E01002010010020CC000020120100202B
:10263000110100200C0100200B0100208C00002063
:10264000940000208F000020980000208B000020C4
:10265000002008705D490860107057480178002913
:102660000CD06C490A88521C0A8092B26A4B9A427A
:1026700004D3002202700A80514802705148017848
:102680004842484129780029029C214600D0014651
:10269000002912D14C480078002806D13078002853
:1026A00003D14C480078002807D045480178491CE0
:1026B000CAB24E2A00D950210170584802785142BE
:1026C0005141464A1278531E9A41454B1B78002BC4
:1026D000234604D0002B05D0002C06D019E0134669
:1026E000002BF9D10C46002C13D13E490A78521C1C
:1026F0000A70D2B2072A0CD3002202700A7039780D
:10270000002902D04649062202E046490A604449AF
:102710000A7045490A78002A05D000220A70012172
:102720003970017005E001210170002038702149E5
:1027300008603E48017801290ED13D490A88521CA3
:102740000A8009235B0192B29A4205D902220270E3
:1027500000200880374908703748017800290CD0DC
:1027600036490A78521C0A70D2B2062A05D30022D2
:102770000A700270324801210170324E3078002810
:1027800009D031480178491CCAB20F2A00D900216A
:1027900001700020307005B0F0BDC046E0000020A0
:1027A000B20000200A010020990000200E01002044
:1027B00010010020CC000020120100201101002097
:1027C0000C0100200B0100208C0000209400002050
:1027D0008F000020980000208B00002016010020B0
:1027E000B600002007010020ED000020C7000020F7
:1027F000C80000202B0100208D0000200BFA0000F3
:102800002A010020890000208E0000209000002076
:10281000B1AD0100140100202711000005010020C6
:10282000060100209C00002009010020DC0000209F
:10283000DE000020AF000020880000208A00002079
:102840008700002085000020840000206E0000200A
:10285000F3000020F2000020F100002002490A6885
:1028600082430A607047C04610400040014A5160F0
:10287000106070471C4000400248016801220A4372
:10288000026070470040004009490A6802430A603C
:102890007047C04680B5FFF7BDFC80BD04494A685B
:1028A000D2430968C9431143084041424841704737
:1028B0000C400040F0B581B0F74D40210091284612
:1028C000FFF7B1F8082628463146FFF7ACF8202775
:1028D00028463946FFF7A7F8102428462146FFF777
:1028E000A2F828460099FFF79EF828463146FFF7E0
:1028F0009AF828463946FFF796F828462146FFF70A
:1029000092F8012000F01AF8032000F017F82920AF
:1029100000F014F8084804240470304600F00EF863
:10292000802000F00BF8204600F008F8052000F0A9
:1029300005F801B0F0BDC04627010020F0B581B018
:102940000546D54C40212046FFF72AF805200A21EC
:1029500000BF491E0A06FBD1401EF8D110212046B7
:10296000FFF761F820212046FFF71AF80A200146F8
:10297000024600BF521E1306FBD1491EF8D120218A
:102980002046FFF750F80A200146024600BF521EBB
:102990001306FBD1491EF8D110212046FFF700F89D
:1029A00020212046FEF7FCFF0A200146024600BF18
:1029B000521E1306FBD1491EF8D120212046FFF7F5
:1029C00032F80A200146024600BF521E1306FBD110
:1029D000491EF8D110212046FEF7E2FF20212046B3
:1029E000FEF7DEFF0A200146024600BF521E130614
:1029F000FBD1491EF8D120212046FFF714F80A2008
:102A00000146024600BF521E1306FBD1491EF8D1F3
:102A100080260027102120462E4202D0FFF703F81F
:102A200001E0FEF7BDFF20212046FEF7B9FF0A2096
:102A30000146024600BF521E1306FBD1491EF8D1C3
:102A400020212046FEF7EFFF0A200146024600BF84
:102A5000521E1306FBD1491EF8D1781C7608072FA9
:102A60000746D7D310212046FEF79AFF20212046A3
:102A7000FEF796FF0A200146024600BF521E1306CB
:102A8000FBD1491EF8D120212046FEF7CCFF0A20B9
:102A90000146024600BF521E1306FBD1491EF8D163
:102AA00040212046FEF7BFFF05200A2100BF491E36
:102AB0000A06FBD1401EF8D110212046FEF7B3FFD5
:102AC00001B0F0BDF0B585B002920E460490724C94
:102AD00040212046FEF764FF05200A2100BF491E61
:102AE0000A06FBD1401EF8D110212046FEF79BFFBD
:102AF00020212046FEF754FF0A200146024600BF6F
:102B0000521E1306FBD1491EF8D120212046FEF7A4
:102B10008AFF0A200146024600BF521E1306FBD15F
:102B2000491EF8D110212046FEF73AFF2021204609
:102B3000FEF736FF0A200146024600BF521E13066A
:102B4000FBD1491EF8D120212046FEF76CFF0A2058
:102B50000146024600BF521E1306FBD1491EF8D1A2
:102B600010212046FEF75FFF20212046FEF718FFC8
:102B70000A200146024600BF521E1306FBD1491E21
:102B8000F8D1202520462946FEF74DFF0A200146B0
:102B9000024600BF521E1306FBD1491EF8D13F4822
:102BA000007800282BD0002704981021054203D07C
:102BB0002046FEF738FF02E02046FEF7F1FE202116
:102BC0002046FEF7EDFE0A200146024600BF521ED7
:102BD0001306FBD1491EF8D120212046FEF723FF22
:102BE0000A200146024600BF521E1306FBD1491EB1
:102BF000F8D17F1C6D08294800788742D4D3029809
:102C0000002837D0002001900146039104963578C2
:102C10000126019F102120462E4202D0FEF703FF1D
:102C200001E0FEF7BDFE20212046FEF7B9FE0A2096
:102C30000146024600BF521E1306FBD1491EF8D1C1
:102C400020212046FEF7EFFE0A200146024600BF83
:102C5000521E1306FBD1491EF8D1781C3106CE0D49
:102C6000032F0746D6D30399491C049E761C02986D
:102C70008142CAD340212046FEF7D5FE05200A2115
:102C800000BF491E0A06FBD1401EF8D11021204684
:102C9000FEF7C9FE05B0F0BD0008004000000020AE
:102CA00000B5A3B01320FFF7F1F907200890FF212A
:102CB000FFF7DCFD01273846FFF7E6FDFFF7DCFDF7
:102CC00017203946FEF7C6FE1AAC06200B90E070BE
:102CD00011252570BB482146FEF766FE0E20189090
:102CE000E0702570BE0730462146FEF75DFE70207D
:102CF000E0702770B3482146FEF756FE7820E0705A
:102D00002570B1482146FEF74FFE3020E070277055
:102D1000AE482146FEF748FE1BAC8020E0702770CD
:102D2000A770022528462946FEF700FAA648214644
:102D3000FEF73AFE0824199630462146FEF773FE48
:102D4000FFF7B8FDA24A0F26D673189890730D218D
:102D500051730C2111730B21D1720A200A909072C9
:102D60000921517214720898D0710B98907195488E
:102D700005211191517104211591117103210791C0
:102D8000D1701495957057700025157091490D609C
:102D900091490D7091490D8091490D801BA9CC700E
:102DA0000D708D70FEF700FE2846FEF791F91BAC02
:102DB0002046FEF745F9A7711020A08065702046D7
:102DC000FEF7E4F8FEF745F8FEF74EF9FEF794F942
:102DD00084480770844807708448077084480770E7
:102DE00084480770844805708448057084480570DD
:102DF00084480570844818950570F0020168834A7C
:102E0000834DA94201D801688AB2824917920A808B
:102E1000016D814AA94201D8006D82B27F481292A9
:102E20000280792000020168A9427B4C01D8016828
:102E30008CB216977A490C80016D7A4EA94201D85E
:102E4000006D86B2784806803D2040020168A942A4
:102E5000714F01D801688FB274490F80016DA9428A
:102E600003D97349002008800BE0006D7049088089
:102E700080B2FDF75EFD6F4A6F4BFDF765FDFDF714
:102E80009FFA189A6D4908607B2000020168A942E8
:102E900002D80268511E8A4169490A70016DA9422F
:102EA00001D9684B00E0036D129D67480380002044
:102EB000322D169A00D3024617993229169900D35B
:102EC00001461143322C169A00D302461143322E8A
:102ED000169A00D302461143322F169A00D30246A7
:102EE0001143012909D1594807990170179A312ACC
:102EF0004AD85748012101700BE055480021017064
:102F00005248159A027053480170534801210170CC
:102F1000179A6042604169426941002A169A00D0BE
:102F20000A46002A169900D10146724272410029D0
:102F3000169800D11046794279410028169800D1A0
:102F400008460128139311D14049012008701799B0
:102F500000291FD0002D26D0002C27D0002E7DD098
:102F6000002F00D081E03A4811997DE03748017880
:102F700003297AD0364900220A7015990170354824
:102F80000270354801216FE0312D06D83048149980
:102F90000170BEE72E49087067E0312C09D82C4833
:102FA00007990170B5E72A4814995DE02848079908
:102FB0005AE0312E01D901F0C0FF25481599017062
:102FC000A7E7C046000C0040000800400004004095
:102FD00072000020FC000020BC000020BE00002089
:102FE00028010020B7000020A80000208300002056
:102FF000B0000020B100002069000020680000201F
:1030000082000020AE000020BD000020DC05000092
:103010000F270000A4000020B80B0000B40000201F
:10302000B800002070170000A6000020A2000020B9
:10303000AA0000203D0AD7A3703D0E40D800002012
:103040008B000020F409000070000020990000208F
:1030500006010020C7000020ED000020014815995E
:1030600002E0C046060100200170FC4800211891D2
:103070000180FB480160FB480170FB480170FB4880
:103080000170FB480170FB480170FB480170FB4870
:103090000170FB48012202701492FA480170FA484C
:1030A0000170FA480170FA480170FA480160FA4864
:1030B0000270FA480170FA480188C8080A4611915E
:1030C000F8494843000D7D21CF000F977843101A2F
:1030D0001090F54C208028463946FDF771F80D46D2
:1030E0002180179E30463946FDF76AF80C46701A63
:1030F000394602F0ADFD1790EC4908706426284669
:103100002F463146FDF75CF80E91E94801802046D4
:1031100031463546FDF754F80E46601A29460995A2
:1031200002F096FD0C90E349087030460A9C214657
:10313000FDF746F8701A214602F08AFD0D90DE492F
:10314000087012983E46C01B0F9C214602F080FD7D
:103150000690DA4908700E9FF01B294602F078FDB0
:103160000546D748057038463E460A9F3946FDF762
:1031700027F8D4480180701A394602F069FD0746E5
:10318000D1480770109881B205911198401A2146D4
:1031900002F05EFD1290CD490870F6200D9E464368
:1031A00002460E909C210C9848430B460D91182422
:1031B000179961430C9440188019C5490988401833
:1031C000C449087057435D43069860432818C019E6
:1031D000C14909884018C149087029200001179089
:1031E000059B5843000C099F7843109A161AB5B2F4
:1031F000581B394602F02CFD0446B9480470B94802
:103200006843000C0A994843301A80B2281A02F029
:103210001FFDB54908700E9948430D994C430C9910
:10322000129A4A431199511809190818AF490870A0
:10323000AF480688F0089B4C6043000D0F9D684323
:10324000301A0696984B188083B217995943039306
:10325000090C7943401A9649088087B21297A14910
:103260007943090C0A9A5143411A05919548018006
:10327000A0480188C8086043000D68430F1A0C4637
:10328000119189480780F01A294602F0E1FC049068
:1032900099490870BEB2A01B294602F0D9FC1090D3
:1032A0009649087017987043000C099C60433D1ABA
:1032B0007F4805801298039A101A214602F0C8FC34
:1032C0000746FB480770A9B2701A0E4602912146C4
:1032D00002F0BEFC0390FE49087082487043000C67
:1032E0000A9948432A1A019276480280059880B2CA
:1032F000129A101A02F0ACFCF64908700E9D684351
:103300000D9E77430C9C049A624306995118C91983
:103310000818F1490870019880B20299081A0A99B0
:1033200002F096FCED4908706843039B7343109AC2
:10333000624311995118C9180818E9490870E948F9
:1033400002881292D00857494843000D0F9948430C
:10335000171A55480780BDB2501B02F079FC04468D
:10336000E148047017986843000C099948433E1AD5
:103370004F480680B7B2E81B02F06AFC0546DB48FE
:10338000057058487843000C0A9A5043301A4D494A
:10339000088080B2381A114602F05AFCD4490870ED
:1033A000139EB1B21191CA083E4B5A43120D0F99A8
:1033B0004A43B21A3C4B1A800E9B58430D9B5D4307
:1033C0000C9B5C43129BE3185B191818C94B1870CF
:1033D00095B217986843000C099B5843171A344854
:1033E00007801198401B02F033FC0446C248047069
:1033F000BEB23C487043000C0A9948433F1A31481A
:103400000780A81B099902F023FC0546BB480570FC
:10341000B8B2149F301A0A9902F01AFCB849087021
:103420000E9948430D994D430C994C4313996118DB
:1034300049190818B3490870B348189C0470B34878
:103440000770B3480770B3480770B3480770B348B4
:103450000470B3480470B348048051E0BA000020FF
:103460009C0000206F0000206D0000206B000020F9
:103470006E0000206C0000206A000020B6000020D2
:10348000B2000020E0000020CA0000202A01002035
:103490002B0100202C01002034010020C900002055
:1034A000AA000020C5200000C2000020D10000209A
:1034B000320100201801002021010020D20000204C
:1034C00019010020F800002022010020D000002077
:1034D000A4000020E2000020B4000020E30000204F
:1034E000170100209A19000020010020E1000020AF
:1034F000B8000020A6000020D3000020D400002047
:1035000089480470894804708948047089480460B7
:103510008948047089480470894804708948077094
:103520008948077089480470894804708948047084
:103530008948077089480480894804708948047064
:103540008948047089480770894807708948047061
:103550008948047089480470894804608948048057
:103560008948047089480470894804708948047047
:103570008948047089480460894804708948047047
:10358000894804808948047005201090FEF752FA9B
:10359000E0432290219020901F901E901D901C903F
:1035A0001B901BA920223846FFF78CFA0221804885
:1035B000FEF739FA7F481B901B98411E1B9100288B
:1035C000FAD1189C2294219420941F941E941D9447
:1035D0001C941B941BA920223846FFF773FA022182
:1035E00073481191FEF7DCF9734804707348047056
:1035F000734804707348047073480470734804700F
:1036000073480470734804707348077073480770F8
:10361000734E744D169F02E001206D490870102111
:103620007148FEF7FBF9002803D102211998FEF733
:10363000B7F95748007800280DD16C481B901B98AB
:10364000411E1B910028FAD1012051490870052024
:103650000221FEF7FFF93C480078002801D100F074
:103660009BFD40215248FEF7D9F9002800D1F2E035
:1036700018985F4908701498324908705D480178BD
:10368000484248415C4909780029394600D0014642
:103690000029189801D000F07DFD29780629189896
:1036A00001D900F077FD880002A108588746C0467E
:1036B0001A010020FD370000B9390000F938000078
:1036C0005939000099380000193A0000793A000091
:1036D0001B01002023010020E40000202401002021
:1036E000E5000020A2000020D50000201C010020E1
:1036F00025010020E6000020D60000201D0100204A
:1037000026010020E70000201F010020EC0000201F
:10371000EB000020F4000020F1000020F200002067
:10372000100100200E010020110100200B010020DB
:103730000C010020CC000020C8000020EA0000207E
:103740008D000020F300002004010020EE00002086
:1037500089000020C7000020ED0000201401002097
:1037600012010020C600002016010020F0000020F9
:10377000E8000020080100200701002005010020CA
:1037800000010020AC0000200A01002009010020F7
:10379000A00000208C0000208F000020940000205A
:1037A000AF000020DC000020DE0000209800002098
:1037B000000C0040400D0300870000208A0000201C
:1037C00086000020880000208E000020900000204D
:1037D0008500002084000020EF000020E900002088
:1037E000990000200601002000040040881300001A
:1037F0006E0000206F000020B2000020F548007825
:10380000F54909780143189801D100F0C3FCF34849
:103810000078401EC0B2032809D88000F04908583B
:103820000178491CCAB2092A00D900210170ED486B
:1038300000780F994843EC490978099A51430818D0
:10384000EA4909780A9A51434018E9490978401829
:10385000E84908809AE2E848017848424841FE4930
:1038600009780029394600D101460029149801D071
:1038700000F090FC0221F948FEF7D5F8F8481B90BB
:103880001B98411E1B910028FAD10221F348FEF734
:1038900087F8149800F07EFCEE480078002800D1EC
:1038A0001DE1F0480088F04B9842149A09D3EF4B81
:1038B000984206D3EE4B984203D3EE4B984200D386
:1038C0000023E8480380002B00D16AE20020EA4987
:1038D000087015993170E9490A70E9490870E94999
:1038E0000870E9490870E9490978002900D162E2C5
:1038F000E7490A701099A2E2D6480078002800D162
:1039000016E1E4480088D84B9842149A09D3D74B63
:10391000984206D3D64B984203D3D64B984200D355
:103920000023DC480380002B00D13CE20020D24978
:10393000087015993170D1490A70D1490870D14980
:103940000870D1490870D1490978002900D13AE2BC
:10395000CF490A701099BAE2BE480078002800D119
:103960000FE1CD480088C04B9842149A09D3BF4B51
:10397000984206D3BE4B984203D3BE4B984200D325
:103980000023C5480380002B00D10EE20020BA4975
:10399000087015993170B9490A70B9490870B94968
:1039A0000870B9490870B9490978002900D112E2B4
:1039B000B7490A701099D2E2A6480078002800D1D1
:1039C0001CE1B6480088A84B9842149A09D3A74B2B
:1039D000984206D3A64B984203D3A64B984200D3F5
:1039E0000023AE480380002B00D1E0E10020A24973
:1039F000087015993170A1490A70A1490870A14950
:103A00000870A1490870A1490978002900D1EBE1AB
:103A10009F490A701099EAE28E480078002800D188
:103A200076E19F480088904B9842149A09D38F4BB7
:103A3000984206D38E4B984203D38E4B984200D3C4
:103A4000002397480380002B00D1B2E100208A496F
:103A500008701599317089490A7089490870894937
:103A600008708949087089490978002900D1C4E1A2
:103A700087490A7010994AE3754800780028189819
:103A800000D187E387480078401EC0B2032809D8D8
:103A90008000854908580178491CCAB2092A00D912
:103AA00000210170814800780F99484380490978C6
:103AB000099A514308187F4909780A9A51434018D6
:103AC0007D49097840187D4908800004189800D085
:103AD00060E31499784801707848018056E15C48A9
:103AE00000780028189800D154E36E480078401EF2
:103AF000C0B2032809D88000714908580178491CD0
:103B0000CAB2092A00D9002101706E4800780F99C5
:103B100048436D490978099A514308186B49097857
:103B20000A9A514340186A49097840184D4917E1EB
:103B3000474800780028189800D12BE359480078AE
:103B4000401EC0B2032809D8800062490858017895
:103B5000491CCAB2092A00D9002101705E480078C8
:103B60000F9948435D490978099A514308185C49FF
:103B700009780A9A514340185A490978401845492A
:103B8000EEE0334800780028189800D102E3454859
:103B90000078401EC0B2032809D880005249085856
:103BA0000178491CCAB2092A00D9002101704F4886
:103BB00000780F9948434E490978099A51430818EB
:103BC0004C4909780A9A514340184B4909784018E2
:103BD0003149C5E016010020B60000203401002064
:103BE00000610000D000002017010020200100200B
:103BF000E1000020AA000020B20000201448007854
:103C00000028189800D1C5E226480078401EC0B2AE
:103C1000032809D88000394908580178491CCAB2DC
:103C2000092A00D900210170354800780F994843CE
:103C300034490978099A51430818334909780A9A8E
:103C400051434018314909784018144988E0C0466A
:103C500016010020B60000206F000020000C00407C
:103C600088130000A6000020DC050000B80B00004F
:103C70009411000070170000C7000020ED00002024
:103C80006800002069000020BD0000208C0000209A
:103C900011010020B4000020B8000020A400002082
:103CA000A2000020E800002020610000D6000020D3
:103CB0001D01002026010020E700002070000020E8
:103CC00060610000D40000201B01002024010020BE
:103CD000E500002040610000D20000201901002012
:103CE00022010020E300002050610000D3000020EA
:103CF0001A01002023010020E400002030610000B0
:103D0000D10000201801002021010020E200002045
:103D1000D74800780028189800D13BE2D5480078B1
:103D2000401EC0B2032809D88000D3490858017842
:103D3000491CCAB2092A00D900210170CF48007875
:103D40000F994843CE490978099A51430818CD493B
:103D500009780A9A51434018CB4909784018CB4951
:103D60000880000410D00020C949087015993170EE
:103D7000149AC8490A70C8490978002908D0C74967
:103D80000A70109931704CE014983070189801E264
:103D9000C3490978002939D01498C04908700B9894
:103DA0003DE0327052E0327098E03270DEE0327006
:103DB00024E13270B2E1BA490978002938D0B74914
:103DC0000A700B993BE0B6490978002978D0B349CD
:103DD0000A700B997BE0B2490978002900D1B7E05D
:103DE000AE490A700B99BAE0AD490978002900D1B3
:103DF000F6E0AA490A700B99F9E0A9490978002967
:103E000000D17DE1A5490A700B9980E1A5490978A7
:103E1000002900D1BEE11498A049087008983070BC
:103E20000020A1490870A1490870A1490870B1E1BA
:103E30009C490978002909D098490A70089931707D
:103E400099490870994908709949087018460F9D5A
:103E500029461F461793FCF7B3F90E469548018093
:103E6000642113913046FCF7ABF90C46924801806F
:103E7000B81B294601F0ECFE0546904805700A2162
:103E800012912046FCF79CF90F468D480180301BAB
:103E9000139901F0DDFE06468A480670E01B129970
:103EA00001F0D6FE884908700E9948430D994E439B
:103EB0000C994D431799691889190818834966E1C7
:103EC00078490978002909D074490A700899317035
:103ED00075490870754908707549087018460F9D36
:103EE00029461F461793FCF76BF90E46714801806F
:103EF000642113913046FCF763F90C466E4801804B
:103F0000B81B294601F0A4FE0546714805700A2138
:103F100012912046FCF754F90F4669480180301B86
:103F2000139901F095FE06466A480670E01B129947
:103F300001F08EFE684908700E9948430D994E4372
:103F40000C994D43179969188919081863491EE19E
:103F500054490978002909D050490A7008993170EC
:103F600051490870514908705149087018460F9D11
:103F700029461F461793FCF723F90E464D4801804A
:103F8000642113913046FCF71BF90C464A48018026
:103F9000B81B294601F05CFE0546514805700A2110
:103FA00012912046FCF70CF90F4645480180301B62
:103FB000139901F04DFE06464A480670E01B12991F
:103FC00001F046FE484908700E9948430D994E434A
:103FD0000C994D4317996918891908184349D6E077
:103FE00030490978002909D02C490A7008993170A4
:103FF0002D4908702D4908702D49087018460F9DED
:1040000029461F461793FCF7DBF80E462948018026
:10401000642113913046FCF7D3F80C462648018002
:10402000B81B294601F014FE0546314805700A21E7
:1040300012912046FCF7C4F80F4621480180301B3E
:10404000139901F005FE06462A480670E01B1299F6
:1040500001F0FEFD284908700E9948430D994E4322
:104060000C994D43179969188919081823498EE04E
:1040700016010020E800002010610000D50000209B
:104080001C01002025010020E6000020A2000020E5
:10409000C7000020ED0000208C000020110100204E
:1040A0008F00002098000020120100200C01002049
:1040B0000B010020C200002032010020D4000020AB
:1040C000F80000201B01002024010020E500002052
:1040D000D20000201901002022010020E30000206E
:1040E000D30000201A01002023010020E40000205A
:1040F000D10000201801002021010020E200002052
:10410000FB490978002909D0FA490A7008993170E9
:10411000F9490870F9490870F949087018460F9D67
:1041200029461F461793FCF74BF80E46F5480180C9
:10413000642113913046FCF743F80C46F2480180A5
:10414000B81B294601F084FD0546F04805700A2198
:1041500012912046FCF734F80F46ED480180301BE1
:10416000139901F075FD0646EA480670E01B1299A6
:1041700001F06EFDE84908700E9948430D994E43D1
:104180000C994D431799691889190818E349087063
:104190001898169FE2490870E2480078002856D027
:1041A000E1480088012200243228134600D3234628
:1041B000DE4909883229154600D32546DC4E36886B
:1041C0001796322E3E4600D32E46002E3D4600D195
:1041D0001D46D84B1B88322B164600D32646002D91
:1041E00000D13746D44D2D88322D00D32246002FE2
:1041F000169F3C4600D11446012CD04E00D0E4E07E
:10420000424242414842484117990029394600D06C
:1042100001460029384600D110465942594100282C
:10422000384600D10846694269410028384600D125
:104230000846012800D0D4E03078052805D80121AF
:1042400081402520014200D0E1E00120DEE000268F
:10425000BB480670082113911998FDF7A1FB1020A7
:104260000124B84D29462246FEF72CFC1120294690
:104270002246FEF727FC122029462246FEF722FCA2
:10428000B1480670B1480670B1480670B148067072
:10429000B1480670B1480670B14806700A2720463A
:1042A0001794394600F0B8FE022012900B2100F05E
:1042B000B3FE03252846394600F0AEFE1598394670
:1042C00000F0AAFE0520394600F0A6FE0620394679
:1042D00000F0A2FE0720314600F09EFE139829460A
:1042E00000F09AFE132097492246FEF7EBFB9D480B
:1042F00006709D4F3846129D2946FDF751FB384602
:10430000159C2146FDF74CFB984817990170984879
:104310000170199F38462146FDF742FB3846294671
:10432000FDF73EFB179A9348027093480670934836
:10433000067093480670814804709248067092484F
:10434000067092480670924806709248067092482D
:10435000067092480670924806709248067092481D
:104360000270924806809248067092480670924801
:1043700006709248068092480670924806709248ED
:1043800006605D4806705B4806705C4806705C48D5
:1043900006708E4806708E4806608E480670544837
:1043A00006708D4806708D4806708D4802708D48E5
:1043B0001B901B98411E1B910028FAD16048027087
:1043C000169F5E4E884DFFF72AF9307803281ED1DC
:1043D00000206C49087015983070012072490870EF
:1043E00015E043480078002811D17A480078002869
:1043F0000DD176480078002809D13078119908430A
:10440000022804D000205F49087007983070774870
:104410000078002833D008211998FDF704FB002507
:10442000E8432290219020901F901E901D901C9098
:104430001B9001241BA920222046FEF743FB0221EA
:104440004948FDF7F0FA6A481B901B98411E1B91E2
:104450000028FAD12295219520951F951E951D952E
:104460001C951B951BA920222046FEF72BFB022141
:104470003D48FDF795FA5D4805705E4804705E485A
:104480000078002821D000245C480470012010210D
:1044900000F0C2FD0220052100F0BEFD03200B212B
:1044A00000F0BAFD04252846214600F0B5FD544829
:1044B0000078002800D1CFE005200E2100F0ACFDEF
:1044C00006200A2100F0A8FDD9E0474D28780628EB
:1044D0004C4C00D9D6E140007844808840008744A5
:1044E0009300590100012D01D3008501B101C0469F
:1044F0009800002011010020120100200C01002072
:104500000B010020C200002032010020D500002055
:10451000F80000201C01002025010020E6000020FA
:104520006F000020B2000020B8000020B40000207E
:10453000A4000020A6000020A20000209900002076
:104540000401002072000020B00000208300002041
:10455000B1000020B7000020A80000206800002063
:1045600069000020AE000020000C0040EC0000209C
:10457000E9000020F40000202A010020BC000020F7
:104580001F010020C7000020B6000020BD00002051
:1045900089000020870000208A000020860000207B
:1045A00088000020F1000020ED0000200E01002016
:1045B0008E00002090000020AF000020DE000020D0
:1045C000DC00002010010020CC0000208C00002026
:1045D000940000208F00002085000020840000202F
:1045E000EF0000208813000006010020F2000020E8
:1045F000400D0300EE000020EA00002082000020B1
:104600008B0000206B0000200020FA490870012177
:10461000F94A1170F9490870F9480078002803D167
:10462000F848007800280DD0F7480078012809D113
:10463000F6480078411E032904D8072148400A2182
:1046400000F0EAFCF0480078002800D00DE1F048C6
:1046500002883078002106E1EE480470EE480470CC
:10466000EE48047005200F24214600F0D5FC0620FA
:10467000214600F0D1FC3078052800D13570FCF7D8
:104680004DFEF74CF74DFDE00020EE49087001218A
:10469000ED4A1170ED490870EF480078012816D1F5
:1046A000EB480078002800D1F0E303200A242146DB
:1046B00000F0B2FC0420214600F0AEFC05202146AB
:1046C000E74C00F0A9FC06200A2100F0A5FCE24816
:1046D0000078002800D0C8E0E34802883078042140
:1046E000C1E00020D74908700121D74A1170D7498D
:1046F0000870D9480078012816D1D54800780028DC
:1047000000D1D1E303200A24214600F085FC0420D7
:10471000214600F081FC05202146D14C00F07CFCB4
:1047200006200A2100F078FCCB480078002800D051
:104730009BE0CE4802883078022194E00020C149F5
:1047400008700121C04A1170C0490870C248007841
:10475000012816D1BE480078002800D1B2E303201A
:104760000A24214600F058FC0420214600F054FCA5
:1047700005202146BA4C00F04FFC06200A2100F02B
:104780004BFCB548007800286FD1B94802883078D2
:10479000032168E00020AB4908700121AA4A11708A
:1047A000AA490870AC480078012816D1A8480078BA
:1047B000002800D194E303200A24214600F02CFCB9
:1047C0000420214600F028FC05202146A44C00F0DE
:1047D00023FC06200A2100F01FFC9F4800780028D7
:1047E00043D1A4480288307801213CE0002095495B
:1047F00008700121944A1170944908709648007815
:10480000012816D192480078002800D176E30320D1
:104810000A24214600F000FC0420214600F0FCFBA5
:10482000052021468E4C00F0F7FB06200A2100F0FF
:10483000F3FB89480078002817D18F480288307828
:10484000052110E001208149087000217E4A117085
:104850007F4A1278002A00D1D8E27A48017087484E
:10486000028830780F21FDF71FF98548017848420A
:10487000484131780029394600D00146002901D14C
:10488000FDF716FC7F4800787F49097800291AD087
:104890007E4A1278002A16D07D4A1278002A12D059
:1048A000002810D17B4800784F282DD302217A4868
:1048B000FDF776F8002079490870794908700121E0
:1048C000704A11701DE0002921D0764909784A1EEE
:1048D0009141754A1278002A3A4600D10A46012AC7
:1048E00015D1002813D16B4800784F280CD3022132
:1048F0006948FDF755F801206249087000206749B2
:1049000008706A49088002E0012064490870FCF7D9
:10491000CBFA10216048FDF781F800281ED06448CA
:104920000078002802D10120614908700020614907
:104930000870207020215848FDF770F8002838D002
:1049400000245D4804705D480078002800D1D3E061
:1049500000245A480470FCF7E1FCCDE020780028E0
:104960000ED102214C48FDF75EF855481B901B986C
:10497000411E1B910028FAD102214748FDF710F88B
:1049800034480178324802782378002B48D1002A35
:1049900046D1002944D100214A48017001204A4AE9
:1049A00010702A78521C2A70D2B2072AC1D12970FD
:1049B000BFE7464800780124002800D09CE002218F
:1049C0003548FDF730F83E481B901B98411E1B915F
:1049D0000028FAD102213048FCF7E2FF1C49087890
:1049E000002877D000201C4A10700124384A147027
:1049F00008707DE082000020A8000020AE000020AA
:104A0000B600002016010020E00000203401002044
:104A1000AA0000206900002068000020BD000020DE
:104A20000120002B85D1002A00D1D6E10B48007867
:104A3000411CCAB20120042A024600D80A4607498E
:104A40000A7076E782000020A8000020AE00002057
:104A5000B600002016010020E000002034010020F4
:104A60006B00002006010020A6000020B4000020FA
:104A7000B8000020A4000020A20000207000002048
:104A80000A010020120100208B0000208C00002071
:104A9000110100200C010020000C00400B0100203F
:104AA00010010020980000208F0000201401002039
:104AB000E90000206A0000206C000020CA000020ED
:104AC0008813000007010020050100206D00002070
:104AD000E8000020DC48007800280DD00020DB49E9
:104AE00008700124DA490C70D7490870D94804705D
:104AF000D9480470D9480470D9480470D94800785E
:104B0000012840D1307800283DD01199C943C01EFA
:104B1000884201D811983070D0480078002832D0EF
:104B20000024CE4804700221199D2846FCF738FF66
:104B300004212846CC4DFCF733FF0120CB490870F7
:104B4000CB490870CF490C60CA490C70CA490C6047
:104B5000CA490C70CA490C602C70CB4909780029ED
:104B60000BD1FB490978002907D1FA4909780029B6
:104B700003D1FB490C70FB490870F7480470FA48F0
:104B80000470F64804802021FA48FCF747FF00280B
:104B90002FD0F6480078002800D198E00221199D16
:104BA0002846FCF7FDFE04242846FA4D2146FCF772
:104BB000F7FE0020E5490860AE490870AE4908607C
:104BC000AE490870EC490860E9490870F549086089
:104BD00028700121F84A1170F84A10703278002AC2
:104BE00004D1EE4A10703470ED4A1170F949086032
:104BF0006DE03078022833D0D648007800282FD1D5
:104C0000FA48007800282BD1EB4801784842484107
:104C1000DA4909784A1E9141F34A1278002A3A4645
:104C200000D10A46002A394600D10146002917D191
:104C30000124D3480470E1480470D2480470022172
:104C4000199D2846FCF7EFFE04212846D14DFCF7BC
:104C5000EAFE06202870D64804700020D649087065
:104C6000D7480078022807D0002830D1D9480068FA
:104C700000282CD1012028E03078002824D0D64804
:104C80000078002820D1DE48007800281CD1D748C1
:104C90000078002818D1D4480078002814D10020CA
:104CA000CB490870CD490870052030700120C649F5
:104CB0000870CD4908700221199C2046FCF770FE4F
:104CC00004212046FCF76CFE0020BD49087010212D
:104CD000A848FCF7A3FE00282FD03078FD21084219
:104CE00001D1FEF79CFCCA480078062801D2FEF7E5
:104CF00093FC00243470C54804700125A348057056
:104D0000A14805700221199E3046FCF749FE042196
:104D10003046A14EFCF744FEA3480470B44804603A
:104D2000A24804709E4805709C480470B8480470FE
:104D3000B8480570974DFEF76FFC0020B449087025
:104D4000B24908703178002910D19449087015993A
:104D500031700121924A11708C4A10708A4A107089
:104D6000954A1278002A01D1934A1170A94909780D
:104D7000002901D1FEF753FCA2490870914908802F
:104D8000A14908709B4908709B4908709B4908809D
:104D90008B4908708F490860904908708A490870EB
:104DA0008B490870894908708F4909780029109942
:104DB00009D18E49097800290B9904D190490978C5
:104DC0000029089903D001227F4B1A703170914954
:104DD000087087490860FEF722FC002900D1A8E589
:104DE00074480078411CCAB20120042A024600D847
:104DF0000A4670490A707B490978491CCAB2042ADC
:104E0000024600D80A4677490A7092E5744A127839
:104E1000002A00D180E05E480170644800780028D4
:104E200000D11CE5012800D01FE56E480078401E27
:104E3000032800D919E5C04678440079400087442A
:104E400001777375062074E016010020E000002051
:104E5000E8000020F0000020CA000020F40000203C
:104E60006D000020BC000020060100206900002029
:104E7000680000202A0100202C0100202B010020C6
:104E80009C000020940000208C00002054480078F2
:104E9000002800D11BE453480078411E032900D9A3
:104EA00015E4072148400FE44D480078002800D160
:104EB0003AE44C480078411E032900D934E4072124
:104EC00048402EE446480078002800D159E445487F
:104ED0000078411E032900D953E4072148404DE4DE
:104EE0003F480078002800D177E43E480078411E12
:104EF000032900D971E4072148406BE43848007861
:104F0000002800D195E437480078411E032900D9D4
:104F10008FE40721484089E41D4908702148006852
:104F2000FBF710FF02469CE4042002E0032000E0AF
:104F300005200A2100F070F897E4312F01D9FDF720
:104F4000E8FF144811990170FDF7E3FF9400002079
:104F50008F00002098000020120100201401002082
:104F6000C7000020ED0000200C010020EB00002015
:104F70001001002000040040FC000020BC000020C4
:104F8000B0000020B100002069000020680000206F
:104F9000820000200601002099000020C7000020A8
:104FA000ED0000209C000020B6000020E000002062
:104FB0002A01002034010020EC000020EB0000203A
:104FC000100100200E010020110100200B01002023
:104FD0000C010020CC0000208900002012010020DC
:104FE00016010020E80000208C0000208F00002027
:104FF00094000020AF000020DC000020DE00002034
:10500000980000208E0000209000002085000020E5
:1050100084000020EF000020B0B5401E072801D911
:1050200000F0C3FD4000C0467844808840008744BB
:105030000700E60070009C003C0010015101C40014
:10504000102901D900F0B1FD880001A10858874658
:10505000955000003B56000081550000D7560000D7
:1050600017570000915500004D5600005F56000094
:1050700067570000AB5B000045570000AB5B0000CA
:10508000AB5B0000AB5B0000AB5B00002955000090
:10509000A355000083480078834C2146002801D1A5
:1050A00000F0D2FC0B3100F0F0FC0F2901D900F028
:1050B0007CFD880001A108588746C046FD500000CD
:1050C000255800001558000005580000BD57000085
:1050D000E157000037580000495800006D580000A3
:1050E0005B580000B3570000AB5B0000AB5B0000F7
:1050F000AB5B0000F3570000CF5700006B4800780F
:10510000694C2146002801D100F024FD0B3100F04C
:105110003AFD0B2901D900F048FD880001A108588B
:105120008746C04655510000E35500007155000008
:10513000B55500003B550000295600007D56000083
:10514000C5550000A15600005F5500008F560000B5
:105150001955000056480078534C2146002801D1CB
:1051600000F055FC0B3100F053FC0A2901D900F086
:105170001CFD880001A108588746C046A9510000BF
:1051800057540000F753000029540000C153000099
:105190009D540000CD54000039540000F15400002B
:1051A000E5530000DF540000424800783E4C2146A1
:1051B000002800D1A4E30B31A3E3072901D900F0B3
:1051C000F4FC880001A108588746C046ED51000054
:1051D000355300007353000083530000AB5B0000A5
:1051E0009D530000235300005753000032480078BD
:1051F0002D4C2146002800D144E30B3143E30B2919
:1052000001D900F0D2FC880001A108588746C046A9
:105210004152000079540000695400001954000004
:10522000D3530000075400008B540000AF5400001B
:1052300005550000AB5B000085590000AF5300002E
:105240001E480078184C2146002800D161E30B313C
:1052500060E30F2901D900F0A8FC880001A10858DB
:105260008746C046C1520000C5560000F5550000F3
:10527000575700007B57000005560000E756000016
:10528000F95600009F5700008D5700004D55000053
:10529000AB5B0000AB5B0000AB5B0000AB5B0000F6
:1052A00017560000B7000020720000208200002086
:1052B0006800002083000020B10000206900002069
:1052C000FC480078FC4C2146002800D1DAE30B3181
:1052D00000F00BFC0E2912D0002901D000F065FC73
:1052E000F6480078F44C0028214600D0611C0C20C0
:1052F00001252A46FDF7E6FB0D2000F052FCEF48A1
:105300000078ED4C2146002801D00F3100E00E312D
:105310000C2001252A46FDF7D5FB09340D2000F0AD
:1053200040FCE7480078E44C2146002800D1A7E281
:105330000E31B8E2E2480078FC4D0028294600D042
:10534000691C0E2001242246FDF7BCFBA91D0F207D
:10535000224600F028FCF6480078F44C002821464C
:1053600000D0611C0E2001252A46FDF7ABFB0E3450
:105370009FE2EF480078ED4C002800D18AE2E11D61
:1053800089E2EB480078E94C0028214600D0611CF6
:105390000E2001252A46FDF795FB8AE2E4480078B5
:1053A000E24C2146002800D17CE20D317BE2E1484D
:1053B0000078DE4C0028214600D1EBE2611CE9E2D6
:1053C000DD480078D94D2946002800D173E20D311F
:1053D00072E2D8480078D54D2946002800D174E201
:1053E0000D3173E2D4480078D04C2146002800D11A
:1053F00075E20D3185E2D0480078CC4C002800D110
:105400006FE2E11D6EE2CB480078C84C21460028CF
:1054100000D16FE20D318FE2C6480078C34C0028FE
:1054200000D169E2611D75E2C3480078BF4C0028D5
:1054300000D163E2611D64E2BF480078BB4C0028E4
:10544000214600D0611C062001252A46FDF73AFBC3
:105450000E340720A5E3B8480078B44D002829464B
:1054600000D129E2691C27E2B2480078AF4C00283D
:1054700000D157E2E11D56E2AE480078AB4D00285E
:10548000294600D122E2691C20E2AA480078A74CF4
:105490002146002800D14EE20F314DE2A6480078A7
:1054A000A24C2146002800D14EE20D314FE2A14826
:1054B00000789E4C0028214600D0611C0220012566
:1054C0002A46FDF7FFFA0E3403206AE39A48007873
:1054D000964C2146002800D138E20F3137E2964839
:1054E0000078924C0028214600D139E2611C37E255
:1054F000914800788D490C460F34002800D12EE2E7
:1055000021462DE28B48007888490C460F3400284C
:1055100000D12CE221462BE288480078834C0028F9
:1055200000D13EE2611DA6E2854800787F4C21460D
:10553000002800D137E20F3136E2804800787B4DF9
:105540002946002800D137E20D3136E2764800784E
:10555000764C0028214600D1D0E2611CCEE277488B
:105560000078724C2146002800D12FE20D314FE225
:10557000724800786D4C002800D129E2E11D28E234
:105580006F480078694C002800D12AE2E11D29E229
:105590006B480078654C2146002800D12AE20D3185
:1055A00057E267480078614C2146002800D123E289
:1055B0000F3122E2614800785C4C002800D124E2DF
:1055C000611D25E25D480078584C0028214600D036
:1055D000611C042001252A46FDF774FA0E340520CB
:1055E000DFE256480078514D0028294600D1E4E119
:1055F000691CE2E14C4800784C4C002800D10FE2D5
:10560000E11D0EE248480078484C2146002800D1B0
:105610000FE20D3142E244480078444C2146002814
:1056200000D108E20F3107E2444800783F4C2146A0
:10563000002800D10AE20D3114E2414800783B4DC8
:105640000028294600D132E2691C30E23C4800784B
:10565000364C2146002800D1FAE10F31F9E13848F3
:105660000078324C0028214600D0611C0020012522
:105670002A46FDF727FA0E34284692E22F48007892
:105680002A4C2146002800D1EBE10F31EAE12B48FA
:105690000078264C0028214600D1ECE1611CEAE1AB
:1056A0002648007821490C460F34002800D1E1E15A
:1056B0002146E0E1A800002072000020B000002098
:1056C000B100002018480078184D0028294600D164
:1056D00001E2691CFFE11A480078144C002800D14F
:1056E000D2E1611DD1E110480078104C214600281C
:1056F00000D1D2E10F31D1E10B4800780B4C0028EA
:10570000214600D0611C0A2001252A46FDF7DAF95E
:105710000E340B2045E20A480078044D2946002843
:1057200000D1C3E10D31C2E1A800002072000020C9
:10573000B1000020690000208300002068000020E4
:10574000B7000020FB480078FB4C0028214600D120
:10575000B9E1611CB7E1F9480078F74C002800D1A5
:10576000AEE1611DC1E1F3480078F3490C460F3406
:10577000002800D1A6E12146A5E1FC480078FA4DB9
:105780002946002800D1A5E10D31A4E1F7480078B1
:10579000F54C2146002800D1A6E10D31A5E1F348E2
:1057A0000078F1490C460F34002800D1A5E12146CC
:1057B000A4E10820EC4C01252146EEE1EC480078FC
:1057C000E94D2946002800D19FE10D319EE1E848CE
:1057D0000078E54C2146002800D1A0E10F319FE17F
:1057E000E3480078E04C2146002800D19FE10D31CC
:1057F000C1E1DF480078DC4C2146002800D19FE160
:105800000B319EE1FD480078FB4C002800D19FE160
:10581000611DB8E1F9480078F74C002800D19BE100
:10582000E11D9AE1F5480078F34D0028294600D1A2
:105830006CE1691C6AE1F1480078EF4C21460028D0
:1058400000D197E10F3196E1EC480078EA4C00284E
:10585000214600D175E1611C73E1E8480078E64C0F
:105860002146002800D18DE10D318CE1E34800781C
:10587000E1490C460F34002800D18BE121468AE132
:105880000F3110E00A310E2001252A46FDF71AF9E2
:105890000F340EE0A11D0E2001252A46FDF712F956
:1058A0000D3406E00C310E2001252A46FDF70AF9D9
:1058B0000B340F2075E10C31062001242246FDF740
:1058C00001F9A91D072022466DE10C3102200124B7
:1058D0002246FDF7F7F8A91D0320224663E10C31AB
:1058E0000FE0A11D062001252A46FDF7EBF80D3437
:1058F000072056E10C311FE0211D0BE0211D00E0C7
:105900000A31062001252A46FDF7DCF80F3407206E
:1059100047E10A31022001252A46FDF7D3F80F346A
:1059200003203EE1A11D022001252A46FDF7CAF809
:105930000D34032035E10E31022001252A46FDF702
:10594000C1F80B3403202CE10C3100E00E310620AD
:1059500001252A46FDF7B6F80B34072021E10E3168
:10596000062001252A46FDF7ADF8072019E10E3182
:10597000022001252A46FDF7A5F8032021462A46E4
:10598000FDF7A0F89E4800789B4C002801D0611DCF
:1059900000E0211D022001252A46FDF793F803208F
:1059A000FFE0211D67E00E31002001252A46FDF7AA
:1059B00089F808342846F4E00C31042001242246FA
:1059C000FDF780F8A91D05202246ECE00C311FE010
:1059D000A11D042001252A46FDF774F80D34052089
:1059E000DFE0A11D002001252A46FDF76BF80D34EC
:1059F0002846D6E00C312CE00E31002001252A4645
:105A0000FDF760F809342846CBE0211D00E00A319B
:105A1000042001252A46FDF755F80F340520C0E083
:105A2000A11D0A2001252A46FDF74CF80D340B2054
:105A3000B7E00C3132E00E310A2001252A46FDF78D
:105A400041F808340B20ACE00A311EE00C3109E0CB
:105A50000E31002001252A46FDF734F80B34284684
:105A60009FE00E31042001252A46FDF72BF80B3468
:105A7000052096E00E31042001252A46FDF722F884
:105A800005208EE00A3130E0211D002001252A4644
:105A9000FDF718F80F34284683E00E310A2001255F
:105AA0002A46FDF70FF80B340B207AE00C3100206A
:105AB00001242246FDF706F8A91D2046224672E081
:105AC000211D12E00E31002001252A46FCF7FAFFC5
:105AD000284666E00C310A2001242246FCF7F2FF3A
