:020000040000FA
:10000000400700207D010000311A00002F1A000077
:1000100000000000000000000000000000000000E0
:10002000000000000000000000000000AD20000003
:100030000000000000000000A51A00009921000047
:1000400000000000950100009501000095010000EE
:10005000950100000911000095010000000000005A
:100060000000000000000000950100009501000064
:1000700095010000950100009501000000000000BE
:1000800000000000950100009501000095010000AE
:10009000000000000000000081100000892800001E
:1000A00095010000950100009501000095010000F8
:1000B00095010000950100009501000000F002F894
:1000C00000F04CF812A030C8083824182D18AC42A3
:1000D00001D100F043F80FCCA246AB460CA730CFBD
:1000E0002D1B083F3F197C427F1E54442D090426D6
:1000F000F441641EAC4201D300F030F801263342D3
:1001000000D0FB1A3343984754465D46DFE70000B2
:10011000F85D0000185E0000103A02D378C878C17C
:10012000FAD8520701D330C830C101D504680C6039
:1001300070470000704700000023002400250026BF
:10014000103A01D378C1FBD8520700D330C100D593
:100150000B6070471FB51FBD10B510BD00F047FE06
:100160001146FFF7F7FF02F095FD00F05FFE03B4C4
:10017000FFF7F2FF03BC00F065FE0000094880F3C2
:1001800008880948804709480047FEE7FEE7FEE780
:10019000FEE7FEE7FEE7000005480649064A074B72
:1001A00070470000400700209D210000BD000000B6
:1001B00040010020400700204003002040030020B1
:1001C000002203098B4273D3030A8B4258D3030BDB
:1001D0008B423CD3030C8B4221D312E003460B43EA
:1001E0007FD4002243088B4274D303098B425FD330
:1001F000030A8B4244D3030B8B4228D3030C8B425C
:100200000DD30902FF2212BA030C8B4202D3121241
:10021000090265D0030B8B4219D300E0090AC30B16
:100220008B4201D3CB03C01A5241830B8B4201D3C3
:100230008B03C01A5241430B8B4201D34B03C01AAC
:100240005241030B8B4201D30B03C01A5241C30A24
:100250008B4201D3CB02C01A5241830A8B4201D395
:100260008B02C01A5241430A8B4201D34B02C01A7F
:100270005241030A8B4201D30B02C01A5241CDD224
:10028000C3098B4201D3CB01C01A524183098B426F
:1002900001D38B01C01A524143098B4201D34B0158
:1002A000C01A524103098B4201D30B01C01A5241BB
:1002B000C3088B4201D3CB00C01A524183088B4242
:1002C00001D38B00C01A524143088B4201D34B002B
:1002D000C01A5241411A00D201465241104670479D
:1002E0005DE0CA0F00D04942031000D340425340A2
:1002F0009C46002203098B422DD3030A8B4212D362
:100300008901FC2212BA030A8B420CD38901921193
:100310008B4208D3890192118B4204D389013AD0D0
:10032000921100E08909C3098B4201D3CB01C01AA5
:10033000524183098B4201D38B01C01A52414309B8
:100340008B4201D34B01C01A524103098B4201D3A6
:100350000B01C01A5241C3088B4201D3CB00C01A13
:10036000524183088B4201D38B00C01A5241D9D22B
:1003700043088B4201D34B00C01A5241411A00D2AC
:1003800001465241104663465B1001D34042002BA8
:1003900000D54942704763465B1000D3404201B527
:1003A0000449002802DC491C084000E00846C04619
:1003B000C04602BDFFFFFF7F7047704770470000D7
:1003C0000246C80FC00781434B0030B54B405B006D
:1003D0009B0D20D01923DB06C91801231B05994268
:1003E00020DB0324A40704251346AB400BD3002BCA
:1003F00004D1EB0613409B00E34204D401246407BC
:10040000002312195941FF231B0599420BD2C90041
:100410000143500F09E0CB0204D501430803024316
:1004200005D0054830BDFF21C905084330BD084649
:1004300007210905884330BD0000C07FF0B5F94DA4
:100440000C091E092C402E402F468BB0A7437DD0AF
:10045000B543FCD0002E7AD0002CFCD00D465D4078
:10046000ED0F2543AC1BFF25AD0464190894C502AC
:10047000440DC9022143500DDC0204430120C00792
:1004800001430443D2020191200C110C00958C46CB
:10049000010423468B430A9161460904E24D8A43D5
:1004A0000991010A7D4449198039097805464D436F
:1004B00001266D18F605751B6943C90C640B891C70
:1004C0004C436418B5012C1B250C2E04B4434C433B
:1004D0004D43210C691889090591009DE90701D058
:1004E0000121C90704912C4601996708CD072F43C4
:1004F0004C08059DE10B4D432D0C2946664675437E
:1005000002950D4645432E46029D7D1BB441009544
:100510000D465D4301942C0C2F040D465543AE4609
:100520002D0C3D43029503947546049C2D04641BD9
:10053000049406D2029C039D641C00267541039519
:10054000029401AC70CC009F7D1B01E03EE162E1B2
:10055000B44109040095079101940599A4086143E9
:10056000090C0C464443650BE7040C46664674438D
:10057000A646640B3C43039502947446049DE40430
:100580002C1B049406D2029C039D641C002675411A
:100590000395029401AC70CC009F7D1BB441019483
:1005A0000C465C430095650FE7000C465443A64695
:1005B000640F3C43039502947446049DE4002C1B95
:1005C000049406D2029C039D641C00267541039589
:1005D000029401AC70CC009F7D1BB441AE09AF0604
:1005E000049DC900AD092F43049DA406AD060495E2
:1005F000079D344369180791059DE10B4D432D0C70
:1006000029466646754302950D4645432E46029D92
:100610007D1BB44100950D465D4301942C0C2F04C5
:100620000D465543AE462D0C3D4302950394754649
:10063000049C2D04641B049406D2029C039D641C3C
:10064000002675410395029401AC70CC009F7D1B80
:10065000B44101948C050694079C890A61180095A1
:100660000791019C0599A4086143090C0D46454377
:10067000680BEF040D46644665436C0B3C43049FD6
:10068000ED047D1BAC4602D20025641C6841009E2F
:10069000019D371B85410846584301950C46460F7E
:1006A000C5005443600F28436546E4002C1B02D26A
:1006B0000025401C6E41019D3F1AB5412846BD09E9
:1006C000800628438446A009BF064E020699A40668
:1006D00076180743079D002068410A99079019433F
:1006E0000020099B00906046FF1913434041E20F30
:1006F00064003A43A4460446D71A8C41A04203D969
:100700000120009020463A46C70F941840416246A7
:10071000D20F2243644664000494009CBE466400E9
:10072000D71AA446044602978C417746002F01D180
:10073000A04204D96046401C8446029A2046C40F59
:10074000A64694184041049A0546D20F22436446B7
:100750006400D31A8D417146002901D1A84202D903
:1007600028461A46641C10430122002800D0164374
:1007700061020020079B891904465C410223002C7A
:1007800002DB491813466441089DCE0A2D145D19F9
:100790004B056705E10A2C050D1908993E43C90769
:1007A0006940002B08D0934006D30022761C5141AB
:1007B000002B01D1760876001C4A002D43DB154240
:1007C00041D0AA433FD030460BB0F0BD06180D46CD
:1007D0004D41174C7642AC411AD395181C465C41EA
:1007E000134A6D42A24113D3012252054C00D44258
:1007F0000AD15C00D4420BD04B4002D59202114387
:10080000E2E749004908DFE75940C90FC90718E086
:1008100000200849D8E7054801420DD10342F7D02E
:10082000F2E700000000FF07605900000000F07FC1
:100830000000E0FF0000F87F114859400143C0125A
:1008400041400020C0E70123089A9B069A4205DC3C
:10085000032252078918C90FC907B5E705225207B5
:100860008918074A1143D2125140ADE770B51546B9
:100870001C4602460B4628462146FFF7DFFD70BDA9
:10088000FFFFFF7F30B50346CA02400D1043164DEF
:10089000164C0A1502D02043002A06DBAA1A002AA9
:1008A00012DDD040FF2A0BDC30BD5205520D01D1C4
:1008B00040004008AA1A07D4D0404042FF2A01DD78
:1008C000002030BD0028FCDD4A00002B01D00120B3
:1008D00000E00020101801225205D042F0D8C817BD
:1008E000C043604030BD00001E04000000000080D6
:1008F0001F22030C02D10F22000402D0030E03D0EA
:1009000004E00020014670470002083A030F01D1BD
:100910000001121F830F01D18000921E002801DB0D
:100920004000521E120551184205C01241181046CF
:100930007047C10FC90700D04042012292071143FE
:10094000D6E701218907D3E7F0B58B4C0F0925467F
:1009500089B0BD437BD01D092646AE43FAD00E4672
:100960005E402740F60F3E43254071D024012142CE
:10097000FBD0FF24AD19A4042D1B039501252D05E3
:10098000DB02DB0AC9022B43C90A29431E01090104
:10099000040F130F050121431701880B82039143B4
:1009A0002D098C46A90B1E438A039543B30B9A036A
:1009B00096433F09BA0B9403A74302962E467E4303
:1009C0000497B6464E19D7190C460196544305971D
:1009D0007E43371B7646BF1B3601B646BE0B361923
:1009E00000967646BC043719009C01D3641C009421
:1009F0006400002F01D001263443029E049F7543FA
:100A000066467E430496760034196E0034190094CD
:100A1000029C019E1C196643751BAE4606946546F2
:100A20004519059C05956C43594375460891691A0B
:100A30000191049E01465143A41B0491611A009C3C
:100A40000791E10605D061090122114302E072E03D
:100A50006EE06109089D00272C0A2D066918049D87
:100A60007C412A0A2D066918019D6241AC0DAD0238
:100A70006D185441079A910D920255196141029ADD
:100A8000644658435443069B059A5A43121A131B53
:100A90009A0E9B015B187A41010B0005C318514166
:100AA000220A200644195A419A4200D2491C0120C8
:100AB0004002814203D315230226F64302E01423A9
:100AC0000326F6432020C51AA9401746AF40DA4056
:100AD0000A4320460399D840091473181905511880
:100AE000039A3843D2075140AC4009D001229440C8
:100AF00006D30022401C5141002C01D14008400087
:100B00001E4A934212D3012203989206904207DBB9
:100B10000520400709181A480143C012414004E06B
:100B2000032040070818C10FC907002009B0F0BD15
:100B30000020F107FAE705180C464C4111486D42B8
:100B4000A04115D394181A465A410E486442904168
:100B50000ED301204A004005824209D35A00824246
:100B600006D35940C90F084AC90700201143DDE7E1
:100B700000200649DAE700000000FF07FE0700003A
:100B8000FFFFFF7F0000E0FF0000F07F0000F87F24
:100B90000121C9050123411842001B06D3185B0E31
:100BA0000AD0C1100722D206891840075242D1420A
:100BB00001D5520089187047090208D50146002A5C
:100BC00003D0C10FC907002070471046704742028A
:100BD00002D0002002497047072109050143F4E7CC
:100BE0000000F87FF0B5FF252D04C609C209FF27D4
:100BF00004462E400137CB093E4348402A402B4053
:100C00000746002A6BD0002B69D0AA4267D0AB42BE
:100C100065D0002800DA32460125ED0529432C4332
:100C200009022002090AD21A4B0C7F24E31A434C12
:100C3000000A7C44E35C7D242404121914145B0034
:100C4000A218884201D3521C00E0400049420C46E1
:100C50005C4324115C43DB016415E318040A5C4324
:100C6000C502200D0C4644436419250A5D43230345
:100C7000EC0C0D46654300030019EB184C42A342EF
:100C800001D35B18401CD4052018002B07D05B0053
:100C9000C91804D3401C002901D1400840003F215D
:100CA00089048A4209D3002A08DC1106090F04D0FE
:100CB000032149074018C00FC007F0BD01224100C1
:100CC000120689187F2252069142F6D20521490761
:100CD000C84201D59010F0BDFF20C005F0BD002F27
:100CE00000DA32461648AA4207D2AB4205D21902B0
:100CF000090E17D0F80FC007F0BDFF2563002D06C1
:100D0000AB42F9D84900A942F6D8AB4201D1A94279
:100D1000F2D0A94201D1002101E061004908D005CB
:100D20000843F0BD1102090EFBD0FF200243D0059D
:100D3000F0BD0A460146104654E70000525200003A
:100D40000000C07F10B501469E240002CA15A3070B
:100D5000002A02D01843002A04DBA21A002A0CDD64
:100D6000D04010BD1206120E01D140004008A21A58
:100D700003D4D04040420028F3DDFF224800120691
:100D8000904201D9002010BDC817C043584010BD83
:100D90001F22030C02D10F2200041CD0030E01D12C
:100DA0000002083A030F01D10001121F830F01D185
:100DB0008000921E002801DB4000521ED20551180F
:100DC000021251181922904004D3491C002801D165
:100DD0004908490008467047C10FC90700D0404282
:100DE000012292071143D3E701218907D0E7754615
:100DF00000F024F8AE46050069465346C008C0001E
:100E0000854618B020B5FFF7C7F960BCB646002686
:100E10000027C0C5C0C5C0C5C0C5C0C5C0C5C0C508
:100E2000C0C5403D490849008D46704710B504468D
:100E3000C046C0462046FFF79AF910BD00487047EB
:100E40000800002001491820ABBEFEE72600020082
:100E50007047B0B50025284600F046F900F00AF9C1
:100E60000320C401204600F081F800F0FDF800F0F6
:100E700043F9204600F020F90028FAD0204600F07F
:100E800075F8681C092D0546F1D300F0E1F800F073
:100E9000F9F8404240B200F027F900F0DFF82046B0
:100EA00000F064F8B0BD000010B50320C401204676
:100EB00000F002F9002802D1204600F057F800F0B7
:100EC000E1F81C4908801C4948431C4904F09AFD7C
:100ED0001B49088080B2FF212E3188420DD3204863
:100EE000017800290ED01F480078002809D0154845
:100EF000012101701448017010BD124800780028CB
:100F000005D010BD184901220A70027010BD0E49AB
:100F1000002008700D490A78022A08D10C4A107086
:100F200004220A700B4901220A700B490A700B490E
:100F3000087010BDBE000020E40C0000FF0F000090
:100F40003001002089000020BC0000209900002012
:100F5000C7000020F5000020FC0000208A000020CF
:100F6000860000208700002088000020FF21CA435F
:100F7000C1431143C005554803D4C2680A40C2604A
:100F8000704702680A4002607047C046F0B52B49BE
:100F90000B1F1A680124A2431A6002781C6870258E
:100FA000AC435207520EA2181A6084791D680222BF
:100FB0009543E407A40F2C191C60037A0C680825DC
:100FC000AC43DB071B0FE3180B6084780D683023FC
:100FD0009D43E407E40E2C190C608478A40040259E
:100FE0002C400E68AE4334190C60858800242E46D0
:100FF000E640F60703D1641C092CF8D109240D68DA
:1010000015430D600F2634400D46083D2F68B74349
:101010003C192C60D2430C6814400C60C4790E68F3
:101020001640E207920FB2180A60296899432960B6
:101030004078296801432960F0BDC04688440040DB
:1010400001210172818000218170C180018070477F
:101050002C480168012291430160704721480168D2
:1010600001229143016070472648016801220A432A
:10107000026070471B48016801220A430260704702
:10108000704700000F2108020A4A1346083B1B68FC
:101090001B0707D4136852680A40F0301901014059
:1010A000881870475168126812020240C8B21018BE
:1010B0007047C04690440040C105044900D40C313B
:1010C00009680840C0B2411E884170478044004012
:1010D00004490A6804239A43C007400F10180860A7
:1010E0007047C046C04400403F21014001480160B4
:1010F0007047C046C44400400248016801220A43C8
:10110000026070478444004080B50348007800289E
:1011100001D000F04DF980BDA000002001218140E8
:10112000014801607047C0460818004006282ED8C4
:10113000784400794000874403120B192A2A2200C0
:1011400003200140124A1368834358181060704707
:101150000F48026830239A438907890E0CE00C4837
:1011600002680C239A438907090F05E008480268C2
:10117000C0239A438907090E51180160704704483B
:10118000426804239A43C907490F511841607047C8
:101190000018004070B50146584A214C2646354695
:1011A000131F1868460707D4C60609D4461E7042A6
:1011B0007041012807D009E00220012803D005E092
:1011C0000320012802D16E1C002DE8D1002D00D192
:1011D0000420002800D070BD10680225284310604C
:1011E0005160106840210143116021461C6860076E
:1011F000284604D4E00608D4641E604260410128F9
:1012000006D14C1C0029F0D102E003200128F8D0BF
:1012100013680224A34313600029DCD1042070BDAD
:101220000100F5FF3548016880220A4302607047DB
:10123000F0B581B0314B324D2F463E461C1F22681F
:10124000570707D4D70609D4571E7A427A41012A94
:1012500007D009E00222012A03D005E00322012A77
:1012600002D1771C002EE8D1002E00D10422002AE2
:1012700040D11A680126009632431A6001802F4639
:101280003E462268570707D4D70609D4571E7A422C
:101290007A41012A07D009E00222012A03D005E0A1
:1012A0000322012A02D1771C002EE9D1002E00D1A1
:1012B0000422002A1AD1090C4180284621684A07D5
:1012C00007D4CA0609D4491E4A424A41012A07D016
:1012D00009E00222012A03D005E00322012A02D1FB
:1012E000451C0028E9D1002800D104221868009983
:1012F00088431860104601B0F0BDC0461010014090
:1013000001E0FFFF024803490160034901607047A3
:101310000410014023016745AB89EFCD10B5FFF7FD
:10132000F1FF0F20C4022046FFF734FF1A4801885E
:101330002046FFF77DFF5548018850342046FFF7CF
:1013400077FF16480188792004022046FFF770FFD6
:101350001348018850342046FFF76AFF114801887E
:101360003D2044022046FFF763FF42480188503485
:101370002046FFF75DFF0C4801787B2004022046E1
:10138000FFF756FF0948018850342046FFF750FF09
:10139000FFF748FF10BDC046A4000020B8000020A1
:1013A000A6000020A20000208B000020700000207A
:1013B000F0B593B002480078002803D183E2C0461C
:1013C000B200002006480168491C0160054F3868DA
:1013D000451C3D6004480178002909D106E0C0465B
:1013E000CC00002004010020110100200121017027
:1013F000064E30687F21CC05214604F0FFFB3060AB
:1014000003480088854205D8F4E1C0463401002035
:101410007000002002480078002803D1EAE1C046AD
:1014200012010020094D2868214604F0E7FB2860DE
:10143000FFF7AEFB064A074BFFF700F8FFF722FA6B
:1014400005490880002809D1CDE1C046DC00002014
:101450003D0AD7A3703D0E40AC00002000200A904A
:101460002860044801884E1C06800349088800282B
:1014700006D003E0AA000020A4000020401E08803F
:1014800002480188002905D002E0C046B4000020CF
:10149000491E0180FD4A1188002901D0491E118092
:1014A000FB4A1188002901D0491E1180F94A118890
:1014B000002901D0491E11800488E008F6494843FC
:1014C0000B46000D7D21CF007843251A0B94F3487D
:1014D0000580B0B2C1085943090D7943711A1291C0
:1014E00089B20D91401A394604F0AEFA0890EC49E1
:1014F0000870FB4802880992D008FD494843000D56
:101500007843101A0E9080B20490101A39460F9743
:1015100004F09AFA0690F8490870A9B2601A0C46CD
:101520000191394604F090FA0790F4490870292097
:10153000010108466043000C642460432F1AF04800
:101540000780084605960E4610910D994843000CF9
:101550006043129A101A0C9080B20290081A214629
:1015600004F072FA0D90E7490870049A5643300C63
:1015700060430E9B181A0E9086B2901B2146119460
:1015800004F062FA0390E0490870BDB20198401B74
:101590000095214604F058FA0490DC490870DC49B3
:1015A00008466843000C0A2460433F1AD948078064
:1015B000084602994843000C60430C9A101A80B206
:1015C000081A214604F040FA0546D3490870D0486D
:1015D0007043000C60430E9A101A80B2301A2146F4
:1015E000129404F031FA0646CC480670B8B200995D
:1015F000081A214604F028FA0290C9490870F62119
:101600004D430B469C270D9878430E971824089A53
:1016100062430D940599511809184919C14A11706E
:101620000C935E4303987843069A624309995118D4
:1016300009188919BC4A1170029D5D4304987843CA
:10164000079A62430B99511809184819B74908704D
:10165000A4480188C808A64B5843000D0F9D684355
:10166000081A0F460791A349088082B21099514386
:101670000492090C119C6143401AA149088084B26C
:101680000B94A3496143090C129C6143411A0691D2
:10169000A048018094480488E0085843000D68433E
:1016A000261A099493480680B81A294604F0CCF902
:1016B00005909F490870B7B2E01B294604F0C4F9B1
:1016C00008909C49087010987843000C119C604366
:1016D000351A8B4805800B98049A101A214604F09D
:1016E000B3F9064694480670A9B2781A0F460391DA
:1016F000214604F0A9F90490904908708448784381
:10170000000C129948432A1A0292824802800698D5
:1017100080B20B9A101A04F097F9894908700C9F4F
:1017200078430E9C66430D9D059A6A4307995118AC
:101730008919081883490870029880B20399081A19
:10174000129904F081F9804908707843049B63433F
:10175000089A6A4309995118C91808187B490870F2
:1017600062480688F00862494843000D0F994843D3
:10177000371A60480780BDB2701B04F065F90F90FE
:101780007349087010986843000C119948433C1A3B
:101790005B480480A7B2E81B04F056F905466D4883
:1017A00005705B487843000C129A5043201A59493F
:1017B000088080B2381A114604F046F9664908706C
:1017C0000C9A42430E9969430D980F9B5843801918
:1017D0004018801861490870FFF7A0FD3F480A993A
:1017E00001803A4F3C4D002038602868FFF7AAFA84
:1017F0005B4908805B4D5C4E37785C480078002878
:1018000016D0002F14D12878002811D1584800781C
:1018100058490978014307D157480178574A127847
:101820000A4301D10121017055480178491C01701A
:1018300054480178032912D300210170244A10680A
:101840001160514904F020FA044622480088FFF74D
:10185000CBFA01462046FFF7C5F94C490860002F36
:101860002ED04B48017802292AD0002928D0494996
:101870000A78521C0A7048490B78002BD2B211D159
:101880000B2A0FD3012008701AE0C046B8000020D0
:10189000A6000020A2000020C5200000C2000020F9
:1018A000D0000020022B0BD10B2A09D3002131706C
:1018B00007220270012028703048017037480170FB
:1018C0000220FFF72BFC13B0F0BDC046040100203E
:1018D0003401002070000020DC000020AC0000205B
:1018E000A4000020B8000020A6000020A2000020D4
:1018F000C5200000C2000020D1000020D20000203E
:101900003A0100201F0100202001002021010020B9
:101910009A19000000010020280100202901002060
:101920002A010020E9000020EA000020EB0000204E
:10193000D3000020D4000020220100202301002039
:101940002B010020EC0000202C010020ED000020E5
:10195000D5000020240100202D010020EE000020F1
:10196000BA000020980000208F0000208B0000208B
:10197000320100208C000020180100201A010020F4
:101980008E000020330100200000FA449C0000205B
:1019900099000020AF000020E50000201401002085
:1019A00002688A4302607047F0B584B0C368046976
:1019B0000090806803900291C8780190002603E0AF
:1019C0003B43761C082E22D001200746B7400199E0
:1019D0000F42F6D01946029A157810222A4002D0FA
:1019E000039B3B4301E0039BBB430393002A00D1CD
:1019F00002200B460299085C002803D03C43E8070C
:101A0000DED102E0BC43E807DAD1BB43D9E7009856
:101A1000C36004610399816004B0F0BD4068084070
:101A2000411E8841704702680A4302607047704750
:101A300070470000002809D41F210840012181407F
:101A400003480160BFF34F8FBFF36F8F7047C046ED
:101A500080E100E010B5002805D40322034693433B
:101A60000E4A9A1803E00C2202400B4BD21883074F
:101A7000DB0E8907090E9940FF249C401368A3439D
:101A80000B431360002805D41F2108400121814029
:101A90000348016010BDC04614ED00E000E400E022
:101AA00000E100E070470000F0B581B014460F4639
:101AB000072854D84000C0467844808840008744B6
:101AC00007009100DF0027014E0068018700D40065
:101AD000FB480026067007200E2103F099F9082024
:101AE000314603F095F9F7480078002819D1F648F7
:101AF000009701270770F5480770F5480770F54D06
:101B00000F35102029463A4600F0D6FF112029460D
:101B10003A4600F0D1FF122029463A46009F00F0D5
:101B2000CBFFED480078002800D05EE1EB4800785C
:101B3000012800D1FAE1002800D056E1E8480670FB
:101B4000E8480670E8480670E84D04212846FFF78B
:101B500027FFE7480078002800D046E1ABE1E148E4
:101B600001260670E14D02212846FFF719FF0421E6
:101B70002846FFF715FFD94900200870D149097898
:101B800000291CD1D8490870D5490870CC49087083
:101B9000CE480670CC480670CD480670CD4D0F3546
:101BA00010202946324600F087FF11202946324690
:101BB00000F082FF12202946324600F07DFF072008
:101BC000002103F025F90820032103F021F90CE19D
:101BD000C4480126067007200E2103F019F90820D9
:101BE0000621DFE0FB480126067007200E2103F0E6
:101BF0000FF90820314603F00BF9F7480078002868
:101C000018D1F6480670F7480670F54806703D464C
:101C1000F54F0F3710203946324600F04DFF1120A6
:101C20003946324600F048FF122039462F463246E8
:101C300000F042FFED480078002800D0D5E0EC48E5
:101C40000078012800D16AE1002800D0CDE0E94801
:101C500000210170E8480170E8480170E84D022158
:101C60002846FFF79DFE042126E1DA48012606708A
:101C700007250E21284603F0CBF80820294691E0DD
:101C8000D4480126067007200E21009003F0C0F80A
:101C9000D1480078002818D1D0480670D048067086
:101CA000D04806703D46D04F0F3710203946324697
:101CB00000F002FF11203946324600F0FDFE1220EE
:101CC00039462F46324600F0F7FEC8480078002813
:101CD00000D08AE0C6480078012800D141E1002800
:101CE00000D082E008200225294603F091F8C1487F
:101CF00000210170C0480170C0480170C04E3046DC
:101D00002946FFF74DFE04213046FFF749FE6CE0FF
:101D10000097BA4800260670AE4801270770B84DF4
:101D200002212846FFF73CFE04212846FFF738FE33
:101D3000AF480078012802D0002804D13E46AD48C3
:101D40000670AD480670A4480078002817D1A34853
:101D500001260670A3480670A1480670A24F0F37EF
:101D600010203946324600F0A7FE1120394632468F
:101D700000F0A2FE12203946324600F09DFE0720F8
:101D8000002103F045F80820032103F041F8009FEB
:101D90002BE090480126067007200E2103F038F84A
:101DA0000820052103F034F88B480078002818D16A
:101DB0008A4806708A4806708A4806703D468A4FEF
:101DC0000F3710203946324600F076FE1120394692
:101DD000324600F071FE122039462F46324600F09E
:101DE0006BFE8248007800284FD00F2F0DD88B480B
:101DF000F840C00709D0B80089A10958012003F0B4
:101E000007F802200A2103F003F8E008944941434F
:101E1000090D944801807D20C0004843221A924851
:101E2000028090B28008914B4343580C904D28801B
:101E300064234343D31A8F4A13809AB28E4E56437B
:101E4000F20C8E4E32800A275743DB1B8C4F3B80AF
:101E50008C4B4B431B196324E443604318185A34DA
:101E600054430019884C2080032002F0D1FF2988B8
:101E7000042002F0CDFF3188052002F0C9FF21883F
:101E8000062002F0C5FF01B0F0BD594800780128D6
:101E900030D00028A9D15748002101705648017060
:101EA00056480170564D04212846FFF779FD5548E4
:101EB00000784D2899D802212846FFF771FD94E754
:101EC000BD00002012010020B1000020B000002061
:101ED0008300002072000020B6000020C80000200F
:101EE00068000020B700002069000020000C0040BE
:101EF0006F0000203F4806703F4806703F4806705C
:101F00003F4D04212846FFF78EFD3E4800784D28BE
:101F100000D96AE702212846FFF785FD65E73548C5
:101F20000670354806703548067006E032480121D3
:101F30000170284801702F480170314E042130464D
:101F4000FFF771FD34480078002800D14DE7314893
:101F50000078002800D048E702213046FFF763FDF3
:101F600043E7294D2878002801D005210AE02748B9
:101F70000078002801D0062104E0254800780028D8
:101F8000009902D0082002F043FF1A4806701A4850
:101F900006701A4806701A4E04213046FFF743FDBA
:101FA0001C480078002800D01FE71B480078002854
:101FB000D2D1144800784D2800D916E72878002897
:101FC000CAD1124800780028C6D1114800780028EC
:101FD000C2D10AE7B700002012010020B1000020A2
:101FE00083000020B000002072000020B600002016
:101FF000C80000206900002068000020BD0000200B
:10200000000C0040140100208C0000208F000020F4
:10201000980000206F000020C70000203F800000D3
:1020200000000000010000000200000003000000AA
:102030000400000005000000000000000000000097
:102040000000000000000000000000000000000090
:102050000000000000000000000000000F00000071
:10206000C5200000C0000020C20000207B1400003A
:10207000380100203A010020CDCC0000FE000020F5
:102080000001002018FCFFFFC40000205E490A6820
:1020900018239A438307DB0ED2180A6040002022DF
:1020A00010400B6893431818086070477047000091
:1020B00070B513480078401EC5B20B2D1FD8AE0076
:1020C0001048815910200124224600F0F5FC0EA092
:1020D00081591120224600F0EFFC17A081591220EF
:1020E000224600F0E9FC20A0405D2249087022A0B1
:1020F000405D2449087024A0405D2649087070BDE9
:10210000C9000020C85E0000780000207E0000208A
:1021100077000020780000207E000020770000205B
:10212000780000207E00002077000020780000204A
:102130007E00002077000020770000207B00002038
:1021400075000020770000207B0000207500002033
:10215000770000207B000020750000207700002021
:102160007B0000207500002000010100000101003B
:1021700000010100B0000020010101000101010087
:1021800001010100830000200000010000000100A7
:1021900000000100B100002070470000B0B51A48EF
:1021A0000146183901220A600246143A00211160E2
:1021B0000246083AE1231360021F116018220260F0
:1021C000FF224260026142628160C160C268D20740
:1021D000FCD1C16081610D4B1C68102214431C604E
:1021E0000724E4431D6825401D60036820251D4326
:1021F0000560036823400360036808241C4394437C
:10220000046003480160B0BD1800014000100140A7
:1022100008ED00E0F0B583B00124204600F038FB63
:10222000012800D09FE2204600F012FBE84A107817
:10223000431C1370E7480178481E0D468541E64867
:102240000078464246412E43E44D2D786F426F415F
:102250003743019403D0E24C0025257010E0E04D97
:102260002F787F1C2F70FFB22E2F09D300272F70DD
:10227000DC4F3D786D1CECB20C2C00D901253D7073
:10228000DBB2962B00D06EE200271770002E2DD007
:10229000002900D167E2D4490978002900D062E220
:1022A000D24E31784B1C3370D1490C786242624176
:1022B000019CDBB2032B00D31446002C00D052E269
:1022C00000240C70002800D13EE1CA4801210170B1
:1022D0000520FFF7AFFB0220FEF720FFBE48047089
:1022E000092040016030FEF741FE3AE2C24D202154
:1022F0002846FFF793FB0646401E31468141009178
:1023000010212846FFF78AFB421E01469141002E0C
:102310000CD0BA4A1378042B01D85B1C13701478C4
:10232000B74AB84B042C0FD9B74D0BE0B54A137818
:10233000042B01D85B1C13701478B34AAF4B052CE7
:1023400002D3AF4D01242C70009D17701F70002820
:102350000CD0AE480278042A01D8521C02700378CF
:10236000AB48AC4A042B0FD9AB4B0BE0A948027821
:10237000042A01D8521C02700378FE48A34A052B98
:1023800002D3FD4B01241C70019C07701770FB48A1
:102390000170FB480570FB4E3078002808D00225FC
:1023A0002846FEF7BBFE05202946FFF753FB377092
:1023B000F5480078002803D0F4480178491C0170E2
:1023C000F3480078002803D0F2480178491C0170D6
:1023D000F14E307800281FD1EE48007804281BD336
:1023E000EA480078002817D1EC4D02212846FFF773
:1023F0001AFBEB4802900298411E02910028FAD184
:1024000002212846FFF7CCFAE64800210170E64891
:1024100001220270E5480170E2480178E248027842
:102420001046084308D0E24803785B1CDCB2022C5B
:1024300000D01F460770019CDE480078002A1BD19F
:10244000042819D0002917D1DB490A78002A03D0C3
:10245000DA4A13785B1C1370D94A13785B1CDCB220
:10246000022C00D10023019C1370D44A1378192B3D
:1024700002D300230B701370BD490978002903D0E3
:10248000D0490A78521C0A703178002909D0CE4907
:102490000A78521C0A70D2B2042A02D300220A70AF
:1024A0003270CA4E317800295CD0CB490A78002AB4
:1024B00058D1C84F3A78012A54D1C54A1378002B15
:1024C00050D1C64D2C88631C2B8003256D026419E6
:1024D000A4B2082C04D8C44800210160019C41E04A
:1024E0009BB2BF4CA342019C3CD33D46BD4B1B78E5
:1024F000BD4C2468002C2DD000270028019C2DD035
:10250000002B2BD1BB480078002827D1B848007891
:10251000002823D1B548007800281FD1B6480027ED
:10252000077017700520A34A1070B448012202708A
:102530000A70950702212846FFF732FA042128463F
:10254000A44DFFF72DFA09E0012088490870BF4922
:10255000087006E1581E83415F00019C00209F49DE
:1025600008802F70A14D307800285CD02878002892
:1025700059D19048007802210143022953D09C4848
:10258000007800284FD19E4908789E4A13788342EC
:1025900044D20020107008709B490A68521C0A60DF
:1025A0009A498A423FD3012129708B4A1070062232
:1025B000804B1A70864A10708F4A10708F07022164
:1025C0003846FFF7EDF904213846FFF7E9F92AE02C
:1025D000260100206F000020B20000201201002020
:1025E00027010020C90000206D0000206E0000209F
:1025F000FB000020FA00002000040040D900002069
:10260000DA000020D8000020DB000020E2000020DB
:10261000E3000020E1000020E4000020002008701A
:102620007949086010706A48017800290CD078490F
:102630000A88521C0A8092B2764B9A4204D3002236
:1026400002700A806C480270734801784842484121
:1026500031780029214600D00146002912D15E4878
:102660000078002806D12878002803D16048007837
:10267000002807D060480178491CCAB24E2A00D908
:10268000502101706548027851425141454A127803
:10269000531E9A41444B1B78002B234604D0002B39
:1026A00005D0002C06D01AE01346002BF9D10C46B9
:1026B000002C14D13D490A78521C0A70D2B2072A64
:1026C0000DD3002202700A7029490978002902D02E
:1026D0005349062202E053490A6051490A7052499F
:1026E0000A78002A06D000220A700121204A1170BF
:1026F000017006E00121017000201D4908703A496F
:1027000008604A48017801290ED149490A88521CBB
:102710000A8009235B0192B29A4205D90222027013
:1027200000200880434908704348017800290CD0F4
:1027300042490A78521C0A70D2B2062A05D30022F6
:102740000A7002703E48012101703E4E3078002828
:1027500009D03D480178491CCAB20F2A00D900218E
:1027600001700020307003B0F0BDC046B200002000
:1027700012010020E4000020E3000020E00000201F
:10278000D7000020F60000206B0000206A00002027
:102790006D0000206C000020F2000020000C0040C2
:1027A000983A00001E010020B60000200F01002012
:1027B000E800002099000020F5000020C70000205C
:1027C000C8000020330100208D0000208B00002075
:1027D0001A010020180100208C00002016010020A2
:1027E0000BFA000032010020CC0000208F000020F6
:1027F0009800002089000020140100201901002009
:102800008E0000209000002094000020B1AD010057
:102810001C01002027110000130100200D010020E1
:102820000E0100209C00002011010020E500002086
:10283000E6000020AF000020880000208A00002071
:10284000870000208500002084000020F90000207F
:1028500002490A6882430A607047C046104000403F
:10286000014A5160106070471C40004002480168F6
:1028700001220A43026070470040004009490A688B
:1028800002430A607047C04680B5FFF7C3FC80BDB5
:1028900004494A68D2430968C94311430840414288
:1028A000484170470C400040F0B581B0F74D4021E1
:1028B00000912846FFF7B7F8082628463146FFF76B
:1028C000B2F8202728463946FFF7ADF810242846ED
:1028D0002146FFF7A8F828460099FFF7A4F82846F4
:1028E0003146FFF7A0F828463946FFF79CF82846FE
:1028F0002146FFF798F8012000F01AF8032000F0B5
:1029000017F8292000F014F8084804240470304611
:1029100000F00EF8802000F00BF8204600F008F8D8
:10292000052000F005F801B0F0BDC0462F010020E1
:10293000F0B581B00546D54C40212046FFF730F870
:1029400005200A2100BF491E0A06FBD1401EF8D10E
:1029500010212046FFF767F820212046FFF720F8D6
:102960000A200146024600BF521E1306FBD1491E33
:10297000F8D120212046FFF756F80A2001460246EA
:1029800000BF521E1306FBD1491EF8D1102120466C
:10299000FFF706F820212046FFF702F80A2001463B
:1029A000024600BF521E1306FBD1491EF8D120215A
:1029B0002046FFF738F80A200146024600BF521EA3
:1029C0001306FBD1491EF8D110212046FEF7E8FF7F
:1029D00020212046FEF7E4FF0A200146024600BF00
:1029E000521E1306FBD1491EF8D120212046FFF7C5
:1029F0001AF80A200146024600BF521E1306FBD1F8
:102A0000491EF8D180260027102120462E4202D0F0
:102A1000FFF709F801E0FEF7C3FF20212046FEF78B
:102A2000BFFF0A200146024600BF521E1306FBD11B
:102A3000491EF8D120212046FEF7F5FF0A20014665
:102A4000024600BF521E1306FBD1491EF8D1781C66
:102A50007608072F0746D7D310212046FEF7A0FFA0
:102A600020212046FEF79CFF0A200146024600BFB7
:102A7000521E1306FBD1491EF8D120212046FEF735
:102A8000D2FF0A200146024600BF521E1306FBD1A8
:102A9000491EF8D140212046FEF7C5FF05200A2136
:102AA00000BF491E0A06FBD1401EF8D11021204666
:102AB000FEF7B9FF01B0F0BDF0B585B002920E4649
:102AC0000490724C40212046FEF76AFF05200A213F
:102AD00000BF491E0A06FBD1401EF8D11021204636
:102AE000FEF7A1FF20212046FEF75AFF0A200146EB
:102AF000024600BF521E1306FBD1491EF8D1202109
:102B00002046FEF790FF0A200146024600BF521EF3
:102B10001306FBD1491EF8D110212046FEF740FFD5
:102B200020212046FEF73CFF0A200146024600BF56
:102B3000521E1306FBD1491EF8D120212046FEF774
:102B400072FF0A200146024600BF521E1306FBD147
:102B5000491EF8D110212046FEF765FF20212046AE
:102B6000FEF71EFF0A200146024600BF521E130652
:102B7000FBD1491EF8D1202520462946FEF753FFF8
:102B80000A200146024600BF521E1306FBD1491E11
:102B9000F8D13F48007800282BD000270498102156
:102BA000054203D02046FEF73EFF02E02046FEF736
:102BB000F7FE20212046FEF7F3FE0A2001460246DA
:102BC00000BF521E1306FBD1491EF8D1202120461A
:102BD000FEF729FF0A200146024600BF521E1306D7
:102BE000FBD1491EF8D17F1C6D0829480078874227
:102BF000D4D30298002837D00020019001460391D9
:102C0000049635780126019F102120462E4202D0DD
:102C1000FEF709FF01E0FEF7C3FE20212046FEF784
:102C2000BFFE0A200146024600BF521E1306FBD11A
:102C3000491EF8D120212046FEF7F5FE0A20014664
:102C4000024600BF521E1306FBD1491EF8D1781C64
:102C50003106CE0D032F0746D6D30399491C049E97
:102C6000761C02988142CAD340212046FEF7DBFE43
:102C700005200A2100BF491E0A06FBD1401EF8D1DB
:102C800010212046FEF7CFFE05B0F0BD0008004041
:102C90000000002000B5A3B01320FFF7F7F90720CC
:102CA0000990FF21FFF7DCFD01273846FFF7E6FD1D
:102CB000FFF7DCFD17203946FEF7CCFE1AAC0620E4
:102CC0000E90E07011252570BB482146FEF76CFE82
:102CD0000E201890E0702570BE0730462146FEF7A2
:102CE00063FE7020E0702770B3482146FEF75CFE5B
:102CF0007820E0702570B1482146FEF755FE30205F
:102D0000E0702770AE482146FEF74EFE1BAC8020D7
:102D1000E0702770A770022528462946FEF706FABC
:102D2000A6482146FEF740FE082419963046214663
:102D3000FEF779FEFFF7B8FDA24A0F26D673189862
:102D400090730D2151730C2111730B21D1720A2044
:102D5000089090720921517214720998D0710E98DE
:102D600090719548052111915171042115911171AE
:102D700003210A91D1701395957057700025157035
:102D800091490D6091490D7091490D8091490D80D7
:102D90001BA9CC700D708D70FEF706FE2846FEF75D
:102DA00097F91BAC2046FEF74BF9A7711020A080C5
:102DB00065702046FEF7EAF8FEF74BF8FEF754F987
:102DC000FEF79AF9844807708448077084480770B2
:102DD00084480770844807708448057084480570EB
:102DE0008448057084480570844818950570F00281
:102DF0000168834A834DA94201D801688AB2824999
:102E000017920A80016D814AA94201D8006D82B2F1
:102E10007F4812920280792000020168A9427B4C0F
:102E200001D801688CB216977A490C80016D7A4EF0
:102E3000A94201D8006D86B2784806803D20400244
:102E40000168A942714F01D801688FB274490F809F
:102E5000016DA94203D97349002008800BE0006D81
:102E60007049088080B2FDF764FD6F4A6F4BFDF733
:102E70006BFDFDF7A5FA189A6D4908607B200002EA
:102E80000168A94202D80268511E8A4169490A7044
:102E9000016DA94201D9684B00E0036D129D67489E
:102EA00003800020322D169A00D30246179932294A
:102EB000169900D301461143322C169A00D30246CC
:102EC0001143322E169A00D302461143322F169A1E
:102ED00000D302461143012909D159480A990170CA
:102EE000179A312A4AD85748012101700BE05548FA
:102EF000002101705248159A0270534801705348DE
:102F000001210170179A6042604169426941002ABB
:102F1000169A00D00A46002A169900D1014672423C
:102F200072410029169800D1104679427941002853
:102F3000169800D108460128149311D14049012068
:102F40000870179900291FD0002D26D0002C27D0FB
:102F5000002E7DD0002F00D081E03A4811997DE00D
:102F60003748017803297AD0364900220A7015992A
:102F7000017035480270354801216FE0312D06D8C7
:102F8000304813990170BEE72E49087067E0312C74
:102F900009D82C480A990170B5E72A4813995DE0D1
:102FA00028480A995AE0312E01D901F0C2FE25487D
:102FB00015990170A7E7C046000C004000080040CA
:102FC000000400407200002004010020BC0000202A
:102FD000BE00002030010020B7000020A800002023
:102FE00083000020B0000020B10000206900002014
:102FF0006800002082000020AE000020BD000020FC
:10300000DC0500000F270000A4000020B80B000022
:10301000B4000020B800002070170000A6000020B7
:10302000A2000020AA0000203D0AD7A3703D0E4058
:10303000DC0000208B000020F4090000700000205C
:10304000990000200E010020C7000020F50000209C
:103050000148159902E0C0460E0100200170FC48AD
:10306000002118910180FB480160FB480170FB487A
:103070000170FB480170FB480170FB480170FB4880
:103080000170FB480170FB48012202701392FA485C
:103090000170FA480170FA480170FA480170FA4864
:1030A0000160FA480270FA480170FA480188C808BD
:1030B0000A461191F8494843000D7D21CF000F9732
:1030C0007843101A1090F54C208028463946FDF7B9
:1030D00077F80D462180179E30463946FDF770F887
:1030E0000C46701A394602F0AFFC1790EC49087094
:1030F000642628462F463146FDF762F80D91E948CF
:103100000180204631463546FDF75AF80E46601AD2
:103110002946079502F098FC0B90E3490870304669
:10312000089C2146FDF74CF8701A214602F08CFCF1
:103130000C90DE49087012983E46C01B0F9C214639
:1031400002F082FC0690DA4908700D9FF01B2946B8
:1031500002F07AFC0546D748057038463E46089F7F
:103160003946FDF72DF8D4480180701A394602F02F
:103170006BFC0746D1480770109881B205911198F1
:10318000401A214602F060FC1290CD490870F620EA
:103190000C9E464302460D909C210B9848430B46DB
:1031A0000C911824179961430B9440188019C54954
:1031B00009884018C449087057435D430698604326
:1031C0002818C019C14909884018C1490870292028
:1031D00000011790059B5843000C079F7843109AF5
:1031E000161AB5B2581B394602F02EFC0446B948EF
:1031F0000470B9486843000C08994843301A80B2FB
:10320000281A02F021FCB54908700D9948430C9921
:103210004C430B99129A4A431199511809190818ED
:10322000AF490870AF480688F0089B4C6043000D1A
:103230000F9D6843301A0696984B188083B21799F1
:1032400059430393090C7943401A9649088087B281
:103250001297A1497943090C089A5143411A0591E3
:1032600095480180A0480188C8086043000D684364
:103270000F1A0C46119189480780F01A294602F06E
:10328000E3FB049099490870BEB2A01B294602F0E6
:10329000DBFB10909649087017987043000C079C50
:1032A00060433D1A7F4805801298039A101A214600
:1032B00002F0CAFB07468F480770A9B2701A0E4683
:1032C0000291214602F0C0FB03908B4908708248AE
:1032D0007043000C089948432A1A019276480280EC
:1032E000059880B2129A101A02F0AEFB834908705A
:1032F0000D9D68430C9E77430B9C049A624306998C
:103300005118C9190818F9490870019880B2029932
:10331000081A089902F098FBFB4908706843039B60
:103320007343109A624311995118C9180818F74944
:103330000870F74802881292D00857494843000D98
:103340000F994843171A55480780BDB2501B02F029
:103350007BFB0446EF48047017986843000C0799FC
:1033600048433E1A4F480680B7B2E81B02F06CFB98
:103370000546E948057058487843000C089A5043C0
:10338000301A4D49088080B2381A114602F05CFBB1
:10339000E2490870149EB1B21191CA083E4B5A43DB
:1033A000120D0F994A43B21A3C4B1A800D9B584399
:1033B0000C9B5D430B9B5C43129BE3185B19181835
:1033C000D74B187095B217986843000C079B584369
:1033D000171A344807801198401B02F035FB044649
:1033E000D0480470BEB23C487043000C0899484372
:1033F0003F1A31480780A81B079902F025FB0546B4
:10340000C9480570B8B2301A089902F01DFBC749C7
:1034100008700D9948430C994D430B994C431499EE
:10342000611849190818C2490870C248189C0470EC
:10343000C148139D0570C1480570C1480570C14859
:103440000570C1480470C1480470C148048057E049
:10345000BA0000209C0000206F0000206D000020BA
:103460006B0000206E0000206C0000206A0000202D
:10347000B6000020B2000020E8000020CA000020B2
:103480003201002033010020340100203C010020E3
:10349000C9000020AA000020C5200000C2000020B2
:1034A000D10000203A010020200100202901002045
:1034B000D200002021010020000100202A0100206C
:1034C000D0000020A4000020EA000020B40000206A
:1034D000EB0000201F0100209A19000028010020A5
:1034E000E9000020B8000020A6000020D300002042
:1034F000D400002022010020230100202B01002005
:10350000944804709448047094480470944804608B
:10351000944804709448047094480470944805706A
:10352000944805709448047094480470944804705A
:10353000944805709448048094480470944804703A
:103540009448047094480570944805709448047039
:10355000944804709448047094480460944804802B
:10356000944804709448047094480470944804701B
:10357000944804709448046094480470944804701B
:10358000944804809448047005201090FEF752FA85
:10359000E0432290219020901F901E901D901C903F
:1035A0001B901BA920222846FFF786FA02218B4890
:1035B0000746FEF738FA8A481B901B98411E1B915C
:1035C0000028FAD1189D2295219520951F951E95CA
:1035D0001D951C951B951BA92024139E3046224641
:1035E000FFF76AFA022138461491FEF7D9F97D48AF
:1035F00005707D4805707D4805707D4805707D48E3
:1036000005707D4805707D4805707D4805707D48D2
:1036100006707D4806707D4805707D4805707D48C0
:1036200005707D4805707D4805707D4805707D48B2
:1036300005707D4805703D467C4E30462146FEF7BC
:10364000EDF9411E88417A49087010213046FEF795
:10365000E5F9411E884177490870774E169F07E0CB
:1036600001223C4B1A703170664908705649086057
:103670005248007800280DD170481B901B98411EBD
:103680001B910028FAD101204C4908700520022125
:10369000FEF7E0F937480078002801D100F00FFC70
:1036A00040212846FEF7BAF9002800D1FCE018981E
:1036B00063490870139B2E480370624801784842A2
:1036C0004841614909780029394600D0014600295E
:1036D000189800D0F1E35D4801780529189800D9C1
:1036E000EBE3880002A108588746C046EC000020A2
:1036F00051380000053A000049390000A93900009E
:10370000E9380000613A00002C010020ED000020A3
:10371000A2000020D5000020240100202D0100205F
:10372000EE000020D6000020250100202E01002000
:10373000EF00002027010020F4000020F30000200B
:10374000FC000020F9000020FA00002018010020F1
:10375000160100201901002013010020140100208F
:10376000CC000020C8000020F20000208D000020C6
:10377000FB0000200C010020F60000208900002042
:10378000C7000020F50000201C0100201A010020C5
:10379000C60000201E010020F8000020F0000020DC
:1037A000100100200F0100200D0100200801002061
:1037B000AC0000201201002011010020A000002018
:1037C0008C0000208F00002094000020AF0000201B
:1037D000E5000020E600002098000020000C0040DA
:1037E000400D0300870000208A0000208600002092
:1037F000880000208E00002090000020850000201E
:1038000084000020F7000020F1000020D9000020F3
:10381000D8000020E2000020E1000020DB000020B2
:10382000DA000020E4000020E30000200004004053
:10383000D7000020E000002099000020881300003D
:103840006E0000206F000020B20000200E0100205A
:10385000FE480078FE4909780143189800D12CE30E
:10386000FC480078401EC0B2032809D88000FA49FD
:1038700008580178491CCAB2092A00D900210170F0
:10388000F64800780F994843F5490978079A51435B
:103890000818F4490978089A51434018F249097800
:1038A0004018F249088005E3F14801784842484150
:1038B000F049097800293946139A00D101460029B8
:1038C000104600D0F9E202212846FEF7ACF8EA489B
:1038D0001B901B98411E1B910028FAD102212846FB
:1038E000FEF75EF81398E8E2D948007800281898A7
:1038F00000D1E2E2E1480088E14A904209D3E14A7E
:10390000904206D3E04A904203D3E04A904200D36B
:103910000022DA480280002A00D1CFE00020DC49F2
:10392000087015993170DB490B70DB490870DB4971
:103930000870DB490870DB490978002900D1C7E02D
:10394000D9490B701099F5E0C14800780028189803
:1039500000D1B2E2D5480088C94A904209D3C94A89
:10396000904206D3C84A904203D3C84A904200D33B
:103970000022CE480280002A00D1A1E00020C449E4
:10398000087015993170C3490B70C3490870C34959
:103990000870C3490870C3490978002900D19FE025
:1039A000C1490B7010990EE1A948007800281898B9
:1039B00000D182E2BE480088B14A904209D3B14AA0
:1039C000904206D3B04A904203D3B04A904200D30B
:1039D0000022B7480280002A74D00020AC49087049
:1039E00015993170AB490B70AB490870AB49087041
:1039F000AB490870AB490978002979D0AA490B7006
:103A0000109982E1924800780028189800D154E279
:103A1000A84800889A4A904209D39A4A904206D30D
:103A2000994A904203D3994A904200D30022A14878
:103A30000280002A48D000209549087015993170FD
:103A400094490B709449087094490870944908701F
:103A500094490978002954D093490B7010999DE13D
:103A60007B4800780028189800D126E29248008808
:103A7000834A904209D3834A904206D3824A9042B5
:103A800003D3824A904200D300228B480280002A4E
:103A90001CD000207E490870159931707D490B704B
:103AA0007D4908707D4908707D4908707D49097815
:103AB00000292FD07C490B701099B8E1337040E099
:103AC000337087E0337027E133706EE13370B5E116
:103AD0007A490978002926D073490B700E9929E09C
:103AE00076490978002967D06F490B700E996AE012
:103AF00072490978002900D100E16B490B700E99D9
:103B000003E16E490978002900D140E166490B7054
:103B10000E9943E169490978002900D180E16249A1
:103B20000B700E9983E166490978002909D05E4936
:103B30000B700999317063490870634908706349D3
:103B4000087010460F9D294617461792FCF738FB60
:103B50000E465F480180642112913046FCF730FB2D
:103B60000C465C480180B81B294601F06DFF0546F4
:103B7000594805700A2111912046FCF721FB0F4698
:103B800056480180301B129901F05EFF06465448EA
:103B90000670E01B119901F057FF139B5149087003
:103BA0000D9948430C994E430B994D431799691849
:103BB000891908184C497BE141490978002909D045
:103BC00039490B70099931703E4908703E490870B7
:103BD0003E49087010460F9D294617461792FCF77C
:103BE000EFFA0E463A480180642112913046FCF704
:103BF000E7FA0C4637480180B81B294601F024FF3C
:103C000005463A4805700A2111912046FCF7D8FA7A
:103C10000F4632480180301B129901F015FF06460D
:103C200033480670E01B119901F00EFF139B3149D8
:103C300008700D9948430C994E430B994D431799C1
:103C40006918891908182C4932E1C0461E01002064
:103C5000B60000203C010020F85E0000D0000020EB
:103C60001F01002028010020E9000020AA000020F8
:103C7000B20000206F00002088130000A600002082
:103C8000DC050000B80B0000941100007017000064
:103C9000C7000020F5000020680000206900002017
:103CA000BD0000208C00002019010020B40000207D
:103CB000B8000020A4000020A20000208F000020F7
:103CC000980000201A010020140100201301002098
:103CD000C20000203A010020D40000200001002092
:103CE000230100202C010020ED000020D200002044
:103CF000210100202A010020EB0000209D490978C5
:103D0000002909D09C490B70099931709B490870B2
:103D10009B4908709B49087010460F9D294617461D
:103D20001792FCF74DFA0E469748018064211291D4
:103D30003046FCF745FA0C4694480180B81B2946EA
:103D400001F082FE0546924805700A211191204635
:103D5000FCF736FA0F468F480180301B129901F0AC
:103D600073FE06468C480670E01B119901F06CFE4C
:103D7000139B8A4908700D9948430C994E430B993F
:103D80004D431799691889190818854990E07949B0
:103D90000978002909D078490B7009993170774961
:103DA0000870774908707749087010460F9D2946BA
:103DB00017461792FCF704FA0E46734801806421F7
:103DC00012913046FCF7FCF90C4670480180B81B94
:103DD000294601F039FE0546724805700A21119105
:103DE0002046FCF7EDF90F466A480180301B129916
:103DF00001F02AFE06466C480670E01B119901F09E
:103E000023FE139B694908700D9948430C994E4352
:103E10000B994D431799691889190818644947E0A7
:103E200054490978002909D053490B700999317018
:103E300052490870524908705249087010460F9D47
:103E4000294617461792FCF7BBF90E464E480180EB
:103E5000642112913046FCF7B3F90C464B480180BF
:103E6000B81B294601F0F0FD0546524805700A21AD
:103E700011912046FCF7A4F90F4646480180301BFB
:103E8000129901F0E1FD0646F8480670E01B119911
:103E900001F0DAFD139BFA4908700D9948430C991B
:103EA0004E430B994D431799691889190818F5491C
:103EB0000870169FF44803701898F4490870F44885
:103EC0000078002878D0F3480088012200243228A6
:103ED000134600D32346F04909883229154600D3FA
:103EE0002546EE4E36881796322E3E4600D32E4695
:103EF000002E3D4600D11D46E94B1B88322B16464D
:103F000000D32646002D00D13746E64D2D88322DB0
:103F100000D32246002F169F3C4600D11446012CA8
:103F2000E14E00D016E142424241484248411799D1
:103F30000029394600D001460029384600D11046F4
:103F4000594259410028384600D108466942694122
:103F50000028384600D10846012800D006E1307814
:103F6000052805D8012181402520014200D013E118
:103F7000012010E198000020190100201A01002002
:103F80001401002013010020C20000203A0100208B
:103F9000D300002000010020220100202B0100207E
:103FA000EC000020D1000020200100202901002089
:103FB000EA000020D50000200024BC48047008213D
:103FC00012911998FDF7ECFC10200126B84D2946F6
:103FD0003246FEF771FD112029463246FEF76CFD90
:103FE000122029463246FEF767FDB2480470B248F7
:103FF0000470B2480470B2480470B2480470B24809
:104000000470B24804700A2730461796394600F00B
:10401000FFFE022011900B2100F0FAFE0325284636
:10402000394600F0F5FE1598394600F0F1FE0520FE
:10403000394600F0EDFE0620394600F0E9FE072083
:10404000214600F0E5FE1298294600F0E1FE13201B
:1040500097493246FEF730FD9D4804709D4F384623
:10406000119D2946FDF79CFC3846159E3146FDF70B
:1040700097FC99481799017098480170199F384624
:104080003146FDF78DFC38462946FDF789FC179A25
:1040900093480270934804709348047093480470E6
:1040A00081480670924804709248047092480470E7
:1040B00092480470924804709248047092480470C8
:1040C00092480470924804709248027092480480AA
:1040D0009248047092480470924804709248048098
:1040E00092480470924804709248046092480470A8
:1040F0009248047092480470924804709248047088
:104100009248046092480470924804709248047087
:104110009248047092480270924804709248047069
:104120009248047092480470924804709248047057
:10413000924804709248047092481B901B98411E4C
:104140001B910028FAD159480270169F614D564EB6
:10415000FFF78EFA307803281ED1002064490870DA
:104160001598307001206B49087015E07948007887
:10417000002811D17648007800280DD172480078C7
:10418000002809D1307814990843022804D000206F
:10419000574908700A9830707B480078002833D05F
:1041A00008211998FDF73FFC0025E8432290219053
:1041B00020901F901E901D901C901B9001241BA905
:1041C00020222046FEF778FC02214248FDF72BFC16
:1041D0006E481B901B98411E1B910028FAD1229516
:1041E000219520951F951E951D951C951B951BA926
:1041F00020222046FEF760FC02213648FDF7D0FB66
:10420000614805706248047062480078002821D037
:104210000024614804700120102100F0F9FD022003
:10422000052100F0F5FD03200B2100F0F1FD042530
:104230002846214600F0ECFD58480078002800D1BF
:10424000DAE005200E2100F0E3FD06200A2100F04F
:10425000DFFDE4E0524800780628524C1D4D00D99D
:10426000E2E103A14000085A4000874424010020F5
:104270009D0065010B013901DD009101BD01C046C2
:104280002D010020EE000020CA0000206F00002059
:10429000B2000020B8000020B4000020A4000020DC
:1042A000A6000020A2000020990000200C010020A0
:1042B00072000020B000002083000020B100002028
:1042C000B7000020A800002068000020690000203E
:1042D000AE000020000C0040F4000020F10000209F
:1042E000FC00002032010020BC000020270100203B
:1042F000C7000020B6000020BD000020890000207B
:10430000870000208A00002086000020880000200E
:10431000F9000020F5000020160100208E0000208A
:1043200090000020AF000020E6000020E500002003
:1043300018010020CC0000201A01002019010020E3
:1043400014010020130100208C00002094000020A4
:104350008F000020980000208500002084000020AD
:10436000F7000020D9000020D8000020E200002043
:10437000E1000020DA000020DB000020E400002043
:10438000E300002088130000FA000020400D030025
:10439000F6000020F2000020820000208B000020A8
:1043A0000E0100206B0000200020EE490870012162
:1043B000ED4A1170ED490870ED480078002803D1EE
:1043C000EC48007800280DD0EB480078012809D18E
:1043D000EA480078411E032904D8072148400A21F1
:1043E00000F016FDE4480078002800D00FE1E44812
:1043F00002883078002108E1E2480470E248047045
:10440000E248047005200F24214600F001FD06203B
:10441000214600F0FDFC3078052800D13570FCF70E
:104420007DFFDB4CDB4DFFE00020CE490870012111
:10443000CD4A1170CD490870CF480078012817D1B6
:10444000CB480078002801D100F018FC03200A2492
:10445000214600F0DDFC0420214600F0D9FC0520B7
:104460002146CB4C00F0D4FC06200A2100F0D0FC01
:10447000C1480078002800D0C9E0C74802883078D9
:104480000421C2E00020B74908700121B64A11702A
:10449000B6490870B8480078012817D1B4480078A8
:1044A000002801D100F0FBFB03200A24214600F084
:1044B000AFFC0420214600F0ABFC05202146B44CA3
:1044C00000F0A6FC06200A2100F0A2FCAA48007811
:1044D000002800D09BE0B14802883078022194E0A7
:1044E0000020A049087001219F4A11709F4908705F
:1044F000A1480078012816D19D480078002800D1F5
:10450000DCE303200A24214600F082FC042021463B
:1045100000F07EFC052021469D4C00F079FC062031
:104520000A2100F075FC9448007800286FD19C485F
:1045300002883078032168E000208A490870012150
:10454000894A1170894908708B480078012816D172
:1045500087480078002800D1BEE303200A242146C2
:1045600000F056FC0420214600F052FC05202146B4
:10457000874C00F04DFC06200A2100F049FC7E48E3
:104580000078002843D187480288307801213CE038
:104590000020744908700121734A11707349087032
:1045A00075480078012816D171480078002800D19C
:1045B000A0E303200A24214600F02AFC042021461F
:1045C00000F026FC05202146714C00F021FC06205D
:1045D0000A2100F01DFC68480078002817D17248B5
:1045E00002883078052110E0012060490870002120
:1045F0005D4A11705E4A1278002A00D1DFE2594804
:1046000001706A48028830780F21FDF74DFA68483A
:1046100001784842484131780029394600D00146A6
:10462000002901D1FDF744FD62480078624909780C
:1046300000291AD0614A1278002A16D0604A1278EE
:10464000002A12D0002810D15E4800784F282DD3C0
:1046500002212846FDF7A4F900205B4908705B4958
:1046600008700121534A11701DE0002921D05849DA
:1046700009784A1E9141574A1278002A3A4600D1D9
:104680000A46012A15D1002813D14E4800784F2838
:104690000CD302212846FDF783F901204549087013
:1046A0000020494908704C49088002E00120464931
:1046B0000870FCF7F9FB10212846FDF7AFF9002838
:1046C0001FD046480078002802D1012043490870D5
:1046D000002043490870207020212846FDF79EF9EC
:1046E000002800D18AE000243E4804703E4800784B
:1046F000002800D1A6E000243B480470FCF70EFE21
:10470000A0E020780028394B0FD102212846FDF780
:104710008AF937481B901B98411E1B910028FAD13B
:1047200002212846FDF73CF9304B114801782078EA
:10473000002800D01BE1002900D018E10D4A1278B2
:10474000002A00D013E100212A48017001202A4AE2
:1047500010701A78521C1A70D2B2072ABBD1197085
:10476000B9E7C04682000020A8000020AE0000206B
:10477000B60000201E010020E80000203C010020BF
:10478000AA0000206900002068000020BD00002071
:104790006B000020000C0040A6000020B4000020A8
:1047A000B8000020A4000020A2000020700000201B
:1047B000120100201A0100208B0000208C00002034
:1047C000190100201401002013010020180100200D
:1047D000980000208F0000201C010020F100002024
:1047E0006A0000206C000020CA0000200E0100209A
:1047F000881300000F0100200D010020FC48007804
:10480000012400281ED102212846FDF70CF9FA48A0
:104810001B901B98411E1B910028FAD102212846AB
:10482000FDF7BEF8F748007800280BD00020F649C5
:1048300008700124F5490C70F2490870F4480470BE
:10484000F4480470EE480470F3480078012841D120
:10485000307800283ED01499C943C01E884201D840
:1048600014983070EB480078002833D00024E948D1
:1048700004700221199D2846FDF792F8042128466C
:10488000FDF78EF80120E5490870E5490870E54913
:104890000C60E5490C70E5490C60E5490C70E54990
:1048A0000C60E5490C70E549097800290BD1E44911
:1048B0000978002907D1E3490978002903D1E249A1
:1048C0000C70E2490870E2480470E2480470E24863
:1048D0000480E24D3078E2490978002936D000287A
:1048E00034D0E0480078002800D1BCE00221199DB6
:1048F0002846FDF755F8042428462146FDF750F8D0
:104900000020C8490860C8490870C8490860C849FB
:104910000870D5490860D5490870C6490860C6497D
:1049200008700121D24A1170CE4A10703278002AE4
:1049300004D1C54A10703470C44A1170CD49087052
:10494000CD490860C6490870C44D8CE014990843ED
:10495000022817D1C5480078022859D0002800D075
:1049600081E0F848006800287DD1012079E04A42C2
:104970004A410028384600D11046002800D112E1F3
:104980000120A8E6F04800780028E3D0EF4800783E
:104990000028DFD0AB4800780028DBD1A848007899
:1049A0000028D7D1B248017848424841EB490978FC
:1049B0004A1E9141A14A1278002A3A4600D10A467D
:1049C000002A394600D101460029C3D10124E44818
:1049D0000470F2480470E34804700221199D2846CF
:1049E000FDF721F804212846DB4DFDF71CF80E9851
:1049F000E0490870E64804700020E7490870D4498F
:104A00000870D4490870D0490870D0490870A1E7EF
:104A10003078002824D0E8480078002820D1F248D7
:104A2000007800281CD1EB480078002818D1E8480D
:104A30000078002814D10020DD490870DF49087093
:104A4000109830700120D8490870E149087002219F
:104A5000199C2046FCF7A4FF04212046FCF7A0FF88
:104A60000020CF490870E848007800283DD0307811
:104A7000FD21084201D1FEF7FBFDC3480078002864
:104A800001D0FEF7F5FDCE480078002801D0FEF7F2
:104A9000EFFD00243470D74804700125B348057039
:104AA000B14805700221199E3046FCF779FF0421B8
:104AB0003046B14EFCF774FFB3480470C64804603A
:104AC000B2480470C0480470C0480570AC48057016
:104AD000AA480470C8480470C84805709E4DC8486C
:104AE0000470C9480470FEF7C3FD0020C249087075
:104AF000C0490870C5490A78514251413278002AAC
:104B00003A4600D10A46002A18D19C4908701599E6
:104B1000317001219A4A1170944A1070924A1070B3
:104B20009D4A1278002A01D19B4A1170A74A117040
:104B3000A5490870B3490870B4490870AF490978AD
:104B4000002901D1FEF794FDA84908709549088015
:104B5000A7490870A1490870A1490870A1490880B7
:104B60008F49087093490860944908708E4908700D
:104B70008F4908708D490870954909780029109966
:104B800001D0FEF76DFD9349097800290E9901D0F7
:104B9000FEF766FD944909780029099901D0FEF7CE
:104BA0005FFDFEF761FD7B480078411CCAB2012021
:104BB000042A024600D80A4676490A708BE5804AE4
:104BC0001278002A00D1A3E0694801706F4800788C
:104BD000002800D115E5012800D018E579480078B3
:104BE000401E032800D912E502A1085C400087445A
:104BF0006D000020059B979988130000062094E023
:104C00006D000020B6000020E8000020F000002029
:104C1000CA000020FC000020BC0000206900002029
:104C200068000020940000203201002034010020A0
:104C3000330100209C0000200E0100208C00002089
:104C40008F00002098000020C7000020F500002001
:104C50001A010020140100201C010020000C00405B
:104C6000DB000020F30000200401002018010020D8
:104C7000F4000020D9000020CC000020504800782B
:104C8000002801D1FFF7F4FB4E480078411E0329AC
:104C900001D9FFF7EDFB07214840FFF7E6FB484845
:104CA0000078002800D111E446480078411E03290D
:104CB00000D90BE407214840FFF705FC4048007885
:104CC000002800D12FE43F480078411E032900D975
:104CD00029E40721484023E439480078002800D11E
:104CE0004DE438480078411E032900D947E40721E4
:104CF000484041E432480078002800D16BE4314854
:104D00000078411E032900D965E4072148405FE48B
:104D1000174908701B480068FCF714F8024672E453
:104D2000042002E0032000E005200A2100F070F8D2
:104D30006DE4312F01D9FEF7E6F80E4811990170A4
:104D4000FEF7E1F8CC000020DA000020E3000020AC
:104D5000D8000020E1000020000C0040BC00002032
:104D6000B0000020B1000020690000206800002091
:104D7000820000200E01002099000020C7000020C2
:104D8000F50000209C000020B6000020E800002074
:104D9000320100203C010020F4000020F30000203C
:104DA0001801002016010020190100201301002025
:104DB00014010020CC000020890000201A010020EE
:104DC0001E010020F00000200F0100200D01002036
:104DD0008C0000208F00002094000020AF000020F5
:104DE000E5000020E6000020980000208E00002052
:104DF000900000208500002084000020F7000020A3
:104E0000E2000020E1000020E4000020E300002098
:104E1000B0B5401E072801D900F0C3FD4000C046D0
:104E200078448088400087440700E60070009C00BA
:104E30003C0010015101C400102901D900F0B1FD5E
:104E4000880001A1085887468D4E000033540000A9
:104E500079530000CF5400000F5500008953000023
:104E600045540000575400005F550000A35900004E
:104E70003D550000A3590000A3590000A3590000AC
:104E8000A3590000215300009B5300008348007881
:104E9000834C2146002801D100F0D2FC0B3100F0F8
:104EA000F0FC0F2901D900F07CFD880001A1085811
:104EB0008746C046F54E00001D5600000D56000006
:104EC000FD550000B5550000D95500002F560000D3
:104ED000415600006556000053560000AB550000D7
:104EE000A3590000A3590000A3590000EB5500008E
:104EF000C75500006B480078694C2146002801D155
:104F000000F024FD0B3100F03AFD0B2901D900F02F
:104F100048FD880001A108588746C0464D4F000053
:104F2000DB53000069530000AD5300003353000011
:104F30002154000075540000BD5300009954000036
:104F40005753000087540000115300005648007862
:104F5000534C2146002801D100F055FC0B3100F0E4
:104F600053FC0A2901D900F01CFD880001A1085852
:104F70008746C046A14F00004F520000EF5100008D
:104F800021520000B951000095520000C5520000A6
:104F900031520000E9520000DD510000D7520000FC
:104FA000424800783E4C2146002800D1A4E30B3152
:104FB000A3E3072901D900F0F4FC880001A10858F7
:104FC0008746C046E54F00002D5100006B510000A0
:104FD0007B510000A3590000955100001B510000B7
:104FE0004F510000324800782D4C2146002800D156
:104FF00044E30B3143E30B2901D900F0D2FC8800D4
:1050000001A108588746C04639500000715200007F
:105010006152000011520000CB510000FF5100000E
:1050200083520000A7520000FD520000A359000067
:105030007D570000A75100001E480078184C2146FB
:10504000002800D161E30B3160E30F2901D900F0A2
:10505000A8FC880001A108588746C046B950000046
:10506000BD540000ED5300004F5500007355000083
:10507000FD530000DF540000F1540000975500007C
:105080008555000045530000A3590000A3590000B6
:10509000A3590000A35900000F540000B7000020DE
:1050A00072000020820000206800002083000020A1
:1050B000B100002069000020FC480078FC4C21462B
:1050C000002800D1DAE30B3100F00BFC0E2912D0DE
:1050D000002901D000F065FCF6480078F44C002867
:1050E000214600D0611C0C2001252A46FDF7E4FC76
:1050F0000D2000F052FCEF480078ED4C21460028CE
:1051000001D00F3100E00E310C2001252A46FDF7B9
:10511000D3FC09340D2000F040FCE7480078E44C53
:105120002146002800D1A7E20E31B8E2E24800781B
:10513000FC4D0028294600D0691C0E20012422467F
:10514000FDF7BAFCA91D0F20224600F028FCF64806
:105150000078F44C0028214600D0611C0E20012567
:105160002A46FDF7A9FC0E349FE2EF480078ED4C8B
:10517000002800D18AE2E11D89E2EB480078E94C81
:105180000028214600D0611C0E2001252A46FDF78B
:1051900093FC8AE2E4480078E24C2146002800D1E2
:1051A0007CE20D317BE2E1480078DE4C00282146AC
:1051B00000D1EBE2611CE9E2DD480078D94D2946D7
:1051C000002800D173E20D3172E2D8480078D54D45
:1051D0002946002800D174E20D3173E2D4480078EA
:1051E000D04C2146002800D175E20D3185E2D0482F
:1051F0000078CC4C002800D16FE2E11D6EE2CB4874
:105200000078C84C2146002800D16FE20D318FE2B2
:10521000C6480078C34C002800D169E2611D75E2E0
:10522000C3480078BF4C002800D163E2611D64E2EE
:10523000BF480078BB4C0028214600D0611C0620E6
:1052400001252A46FDF738FC0E340720A5E3B848AF
:105250000078B44D0028294600D129E2691C27E2D4
:10526000B2480078AF4C002800D157E2E11D56E269
:10527000AE480078AB4D0028294600D122E2691CD7
:1052800020E2AA480078A74C2146002800D14EE22F
:105290000F314DE2A6480078A24C2146002800D1EB
:1052A0004EE20D314FE2A14800789E4C0028214685
:1052B00000D0611C022001252A46FDF7FDFB0E34BB
:1052C00003206AE39A480078964C2146002800D1D2
:1052D00038E20F3137E296480078924C0028214698
:1052E00000D139E2611C37E2914800788D490C46C3
:1052F0000F34002800D12EE221462DE28B480078A1
:1053000088490C460F34002800D12CE221462BE2BC
:1053100088480078834C002800D13EE2611DA6E257
:10532000854800787F4C2146002800D137E20F31B4
:1053300036E2804800787B4D2946002800D137E2CC
:105340000D3136E276480078764C0028214600D1AF
:10535000D0E2611CCEE277480078724C21460028EA
:1053600000D12FE20D314FE2724800786D4C0028D9
:1053700000D129E2E11D28E26F480078694C00283D
:1053800000D12AE2E11D29E26B480078654C2146F4
:10539000002800D12AE20D3157E267480078614CBD
:1053A0002146002800D123E20F3122E26148007833
:1053B0005C4C002800D124E2611D25E25D480078A4
:1053C000584C0028214600D0611C042001252A46A3
:1053D000FDF772FB0E340520DFE256480078514D90
:1053E0000028294600D1E4E1691CE2E14C4800783C
:1053F0004C4C002800D10FE2E11D0EE24848007835
:10540000484C2146002800D10FE20D3142E24448C9
:105410000078444C2146002800D108E20F3107E211
:10542000444800783F4C2146002800D10AE20D3163
:1054300014E2414800783B4D0028294600D132E271
:10544000691C30E23C480078364C2146002800D1E7
:10545000FAE10F31F9E138480078324C0028214652
:1054600000D0611C002001252A46FDF725FB0E34E3
:10547000284692E22F4800782A4C2146002800D185
:10548000EBE10F31EAE12B480078264C0028214659
:1054900000D1ECE1611CEAE12648007821490C4684
:1054A0000F34002800D1E1E12146E0E1A80000200E
:1054B00072000020B0000020B100002018480078E1
:1054C000184D0028294600D101E2691CFFE11A4865
:1054D0000078144C002800D1D2E1611DD1E11048C0
:1054E0000078104C2146002800D1D2E10F31D1E1E3
:1054F0000B4800780B4C0028214600D0611C0A2084
:1055000001252A46FDF7D8FA0E340B2045E20A4859
:105510000078044D2946002800D1C3E10D31C2E1D5
:10552000A800002072000020B100002069000020C7
:105530008300002068000020B7000020FB480078AE
:10554000FB4C0028214600D1B9E1611CB7E1F948C4
:105550000078F74C002800D1AEE1611DC1E1F348AD
:105560000078F3490C460F34002800D1A6E121460B
:10557000A5E1FC480078FA4D2946002800D1A5E1B4
:105580000D31A4E1F7480078F54C2146002800D100
:10559000A6E10D31A5E1F3480078F1490C460F343E
:1055A000002800D1A5E12146A4E10820EC4C01250A
:1055B0002146EEE1EC480078E94D2946002800D16B
:1055C0009FE10D319EE1E8480078E54C2146002836
:1055D00000D1A0E10F319FE1E3480078E04C214683
:1055E000002800D19FE10D31C1E1DF480078DC4C9B
:1055F0002146002800D19FE10B319EE1FD48007853
:10560000FB4C002800D19FE1611DB8E1F94800780A
:10561000F74C002800D19BE1E11D9AE1F5480078A4
:10562000F34D0028294600D16CE1691C6AE1F1487C
:105630000078EF4C2146002800D197E10F3196E128
:10564000EC480078EA4C0028214600D175E1611C45
:1056500073E1E8480078E64C2146002800D18DE14E
:105660000D318CE1E3480078E1490C460F34002805
:1056700000D18BE121468AE10F3110E00A310E2082
:1056800001252A46FDF718FA0F340EE0A11D0E2061
:1056900001252A46FDF710FA0D3406E00C310E20E4
:1056A00001252A46FDF708FA0B340F2075E10C316D
:1056B000062001242246FDF7FFF9A91D07202246F6
:1056C0006DE10C31022001242246FDF7F5F9A91DF8
:1056D0000320224663E10C310FE0A11D06200125C5
:1056E0002A46FDF7E9F90D34072056E10C311FE099
:1056F000211D0BE0211D00E00A31062001252A466C
:10570000FDF7DAF90F34072047E10A3102200125BD
:105710002A46FDF7D1F90F3403203EE1A11D0220F6
:1057200001252A46FDF7C8F90D34032035E10E3175
:10573000022001252A46FDF7BFF90B3403202CE196
:105740000C3100E00E31062001252A46FDF7B4F9A0
:105750000B34072021E10E31062001252A46FDF7F2
:10576000ABF9072019E10E31022001252A46FDF789
:10577000A3F9032021462A46FDF79EF99E480078AA
:105780009B4C002801D0611D00E0211D0220012555
:105790002A46FDF791F90320FFE0211D67E00E3155
:1057A000002001252A46FDF787F908342846F4E051
:1057B0000C31042001242246FDF77EF9A91D0520A5
:1057C0002246ECE00C311FE0A11D042001252A46F1
:1057D000FDF772F90D340520DFE0A11D0020012541
:1057E0002A46FDF769F90D342846D6E00C312CE045
:1057F0000E31002001252A46FDF75EF909342846BE
:10580000CBE0211D00E00A31042001252A46FDF7E6
:1058100053F90F340520C0E0A11D0A2001252A46B6
:10582000FDF74AF90D340B20B7E00C3132E00E31B0
:105830000A2001252A46FDF73FF908340B20ACE089
:105840000A311EE00C3109E00E31002001252A4604
:10585000FDF732F90B3428469FE00E310420012574
:105860002A46FDF729F90B34052096E00E31042075
:1058700001252A46FDF720F905208EE00A3130E0A7
:10588000211D002001252A46FDF716F90F34284670
:1058900083E00E310A2001252A46FDF70DF90B346D
:1058A0000B207AE00C31002001242246FDF704F998
:1058B000A91D2046224672E0211D12E00E31002073
:1058C00001252A46FDF7F8F8284666E00C310A2043
:1058D00001242246FDF7F0F8A91D0B2022465EE0C8
:1058E0000C310A2001252A46FDF7E6F80F340B207B
:1058F00053E00E310A2001252A46FDF7DDF80B2082
:105900004BE00C31082001242246FDF7D5F8A91DF3
:105910000920224643E00E31082001252A46FDF7E2
:10592000CBF8083438E00C3121E0C046B700002045
:1059300072000020A80000200A31082001252A4614
:10594000FDF7BAF80E3427E0211D18E00A3116E001
:10595000A11D082001252A46FDF7AEF80D341BE0F5
:1059600072000020A8000020820000200E310820D4
:1059700001252A46FDF7A0F80B340DE00C31082074
:1059800001252A46FDF798F80F3405E00E3108206E
:1059900001252A46FDF790F8092021462A46FDF701
:1059A0008BF81648007841424141154A1278531E3F
:1059B00014469C410C430E49012C05D1002A09D004
:1059C000002807D1891C00E0491C13200122FDF7A3
:1059D00073F8B0BD43424341002A00D10123012B9B
:1059E00004D1002AF5D10028EFD0F2E7C91CECE77A
:1059F000720000208200002069000020BD0000200D
:105A0000AE00002043088B421AD3002203098B42C8
:105A100079D3030A8B425ED3030B8B4242D3030C30
:105A20008B4227D30902FF2212BA030C8B4202D306
:105A30001212090203D0030B8B4233D31AE0D3E0D6
:105A4000411A8041401C704703460B4371D4430800
:105A50008B42F5D3002203098B4254D3030A8B42B5
:105A600039D3030B8B421DD3030C8B4202D39446D4
:105A70006EE0090AC30B8B4201D3CB03C01A52411B
:105A8000830B8B4201D38B03C01A5241430B8B42D1
:105A900001D34B03C01A5241030B8B4201D30B03BA
:105AA000C01A5241C30A8B4201D3CB02C01A5241E1
:105AB000830A8B4201D38B02C01A5241430A8B42A4
:105AC00001D34B02C01A5241030A8B4201D30B028D
:105AD000C01A5241CDD2C3098B4201D3CB01C01AA7
