:020000040000FA
:100000004007002061010000471A0000451A000067
:1000100000000000000000000000000000000000E0
:1000200000000000000000000000000005210000AA
:100030000000000000000000BD1A0000F5210000D3
:100040000000000079010000790100007901000042
:1000500079010000F51000007901000000000000A7
:10006000000000000000000079010000790100009C
:100070007901000079010000790100000000000012
:100080000000000079010000790100007901000002
:10009000000000000000000065100000A92800001A
:1000A0007901000079010000790100007901000068
:1000B00079010000790100007901000000F002F8E8
:1000C00000F03EF80CA030C8083824182D18671E20
:1000D000A246AB4654465D46AC4201D100F030F832
:1000E0007E460F3EB6460FCC0126334200D0FB1AA7
:1000F0003343A246AB461847D8600000F8600000C2
:10010000103A02D378C878C1FAD8520701D330C860
:1001100030C101D504680C60704700000023002442
:1001200000250026103A01D378C1FBD8520700D32E
:1001300030C100D50B6070471FB51FBD10B510BD95
:1001400000F047FE1146FFF7F7FF02F0B3FD00F0A5
:100150005FFE03B4FFF7F2FF03BC00F065FE000092
:10016000094880F308880948804709480047FEE7A6
:10017000FEE7FEE7FEE7FEE7FEE70000054806496A
:10018000064A074B7047000040070020F921000095
:10019000BD00000040010020400700204003002077
:1001A00040030020002203098B4273D3030A8B42D1
:1001B00058D3030B8B423CD3030C8B4221D312E068
:1001C00003460B437FD4002243088B4274D30309B8
:1001D0008B425FD3030A8B4244D3030B8B4228D359
:1001E000030C8B420DD30902FF2212BA030C8B427F
:1001F00002D31212090265D0030B8B4219D300E01F
:10020000090AC30B8B4201D3CB03C01A5241830BA3
:100210008B4201D38B03C01A5241430B8B4201D353
:100220004B03C01A5241030B8B4201D30B03C01A7C
:100230005241C30A8B4201D3CB02C01A5241830AF6
:100240008B4201D38B02C01A5241430A8B4201D325
:100250004B02C01A5241030A8B4201D30B02C01A4F
:100260005241CDD2C3098B4201D3CB01C01A5241B6
:1002700083098B4201D38B01C01A524143098B423F
:1002800001D34B01C01A524103098B4201D30B0128
:10029000C01A5241C3088B4201D3CB00C01A52414D
:1002A00083088B4201D38B00C01A524143088B4212
:1002B00001D34B00C01A5241411A00D201465241AB
:1002C000104670475DE0CA0F00D04942031000D3CA
:1002D000404253409C46002203098B422DD3030A1F
:1002E0008B4212D38901FC2212BA030A8B420CD32F
:1002F000890192118B4208D3890192118B4204D358
:1003000089013AD0921100E08909C3098B4201D3D7
:10031000CB01C01A524183098B4201D38B01C01A11
:10032000524143098B4201D34B01C01A5241030988
:100330008B4201D30B01C01A5241C3088B4201D337
:10034000CB00C01A524183088B4201D38B00C01AE4
:100350005241D9D243088B4201D34B00C01A5241BB
:10036000411A00D201465241104663465B1001D348
:100370004042002B00D54942704763465B1000D3D2
:10038000404201B50449002802DC491C084000E055
:100390000846C046C04602BDFFFFFF7F704770475A
:1003A000704700000246C80FC00781434B0030B5BC
:1003B0004B405B009B0D20D01923DB06C91801239D
:1003C0001B05994220DB0324A40704251346AB40F8
:1003D0000BD3002B04D1EB0613409B00E34204D463
:1003E00001246407002312195941FF231B05994278
:1003F0000BD2C9000143500F09E0CB0204D50143E1
:100400000803024305D0054830BDFF21C905084354
:1004100030BD084607210905884330BD0000C07F74
:10042000F0B5F94D0C091E092C402E402F468BB01B
:10043000A7437DD0B543FCD0002E7AD0002CFCD051
:100440000D465D40ED0F2543AC1BFF25AD0464193F
:100450000894C502440DC9022143500DDC02044337
:100460000120C00701430443D2020191200C110C6A
:1004700000958C46010423468B430A91614609048A
:10048000E24D8A430991010A7D444919803909786E
:1004900005464D4301266D18F605751B6943C90CC9
:1004A000640B891C4C436418B5012C1B250C2E04CD
:1004B000B4434C434D43210C691889090591009DB3
:1004C000E90701D00121C90704912C460199670869
:1004D000CD072F434C08059DE10B4D432D0C2946BC
:1004E0006646754302950D4645432E46029D7D1B8B
:1004F000B44100950D465D4301942C0C2F040D462C
:100500005543AE462D0C3D43029503947546049C1D
:100510002D04641B049406D2029C039D641C0026D7
:1005200075410395029401AC70CC009F7D1B01E0E6
:100530003EE162E1B44109040095079101940599F7
:10054000A4086143090C0C464443650BE7040C46C0
:1005500066467443A646640B3C4303950294744676
:10056000049DE4042C1B049406D2029C039D641C8D
:10057000002675410395029401AC70CC009F7D1B51
:10058000B44101940C465C430095650FE7000C46AE
:100590005443A646640F3C43039502947446049D5D
:1005A000E4002C1B049406D2029C039D641C0026CC
:1005B00075410395029401AC70CC009F7D1BB44142
:1005C000AE09AF06049DC900AD092F43049DA406E2
:1005D000AD060495079D344369180791059DE10B0D
:1005E0004D432D0C29466646754302950D464543FD
:1005F0002E46029D7D1BB44100950D465D4301943E
:100600002C0C2F040D465543AE462D0C3D43029550
:1006100003947546049C2D04641B049406D2029C2A
:10062000039D641C002675410395029401AC70CCB7
:10063000009F7D1BB44101948C050694079C890A98
:10064000611800950791019C0599A4086143090C64
:100650000D464543680BEF040D46644665436C0B3D
:100660003C43049FED047D1BAC4602D20025641C74
:100670006841009E019D371B8541084658430195FE
:100680000C46460FC5005443600F28436546E400FE
:100690002C1B02D20025401C6E41019D3F1AB54122
:1006A0002846BD09800628438446A009BF064E029D
:1006B0000699A40676180743079D002068410A9909
:1006C000079019430020099B00906046FF191343CF
:1006D0004041E20F64003A43A4460446D71A8C41D5
:1006E000A04203D90120009020463A46C70F941833
:1006F00040416246D20F2243644664000494009C49
:10070000BE466400D71AA446044602978C41774639
:10071000002F01D1A04204D96046401C8446029AB1
:100720002046C40FA64694184041049A0546D20FAD
:10073000224364466400D31A8D417146002901D1D9
:10074000A84202D928461A46641C104301220028F8
:1007500000D0164361020020079B891904465C41C2
:100760000223002C02DB491813466441089DCE0A7F
:100770002D145D194B056705E10A2C050D19089923
:100780003E43C9076940002B08D0934006D300229E
:10079000761C5141002B01D1760876001C4A002DB1
:1007A00043DB154241D0AA433FD030460BB0F0BDE9
:1007B00006180D464D41174C7642AC411AD3951898
:1007C0001C465C41134A6D42A24113D301225205DB
:1007D0004C00D4420AD15C00D4420BD04B4002D52D
:1007E00092021143E2E749004908DFE75940C90F87
:1007F000C90718E000200849D8E7054801420DD193
:100800000342F7D0F2E700000000FF07E45B0000BE
:100810000000F07F0000E0FF0000F87F1148594021
:100820000143C01241400020C0E70123089A9B0603
:100830009A4205DC032252078918C90FC907B5E798
:10084000052252078918074A1143D2125140ADE7D9
:1008500070B515461C4602460B4628462146FFF752
:10086000DFFD70BDFFFFFF7F30B50346CA02400DBC
:100870001043164D164C0A1502D02043002A06DB01
:10088000AA1A002A12DDD040FF2A0BDC30BD520527
:10089000520D01D140004008AA1A07D4D04040426E
:1008A000FF2A01DD002030BD0028FCDD4A00002BBE
:1008B00001D0012000E00020101801225205D04292
:1008C000F0D8C817C043604030BD00001E040000CF
:1008D000000000801F22030C02D10F22000402D06E
:1008E000030E03D004E00020014670470002083ADE
:1008F000030F01D10001121F830F01D18000921E4E
:10090000002801DB4000521E120551184205C0129A
:10091000411810467047C10FC90700D0404201225C
:1009200092071143D6E701218907D3E7F0B58B4C35
:100930000F09254689B0BD437BD01D092646AE432D
:10094000FAD00E465E402740F60F3E43254071D058
:1009500024012142FBD0FF24AD19A4042D1B0395D3
:1009600001252D05DB02DB0AC9022B43C90A2943F5
:100970001E010901040F130F050121431701880B04
:10098000820391432D098C46A90B1E438A0395438C
:10099000B30B9A0396433F09BA0B9403A7430296FD
:1009A0002E467E430497B6464E19D7190C4601963B
:1009B000544305977E43371B7646BF1B3601B64628
:1009C000BE0B361900967646BC043719009C01D33D
:1009D000641C00946400002F01D001263443029E61
:1009E000049F754366467E430496760034196E0074
:1009F00034190094029C019E1C196643751BAE4677
:100A0000069465464519059C05956C435943754602
:100A10000891691A0191049E01465143A41B049157
:100A2000611A009C0791E10605D06109012211437A
:100A300002E072E06EE06109089D00272C0A2D0695
:100A40006918049D7C412A0A2D066918019D62419E
:100A5000AC0DAD026D185441079A910D92025519D3
:100A60006141029A644658435443069B059A5A438F
:100A7000121A131B9A0E9B015B187A41010B000599
:100A8000C3185141220A200644195A419A4200D201
:100A9000491C01204002814203D315230226F6435C
:100AA00002E014230326F6432020C51AA940174666
:100AB000AF40DA400A4320460399D840091473181E
:100AC00019055118039A3843D2075140AC4009D058
:100AD0000122944006D30022401C5141002C01D138
:100AE000400840001E4A934212D301220398920606
:100AF000904207DB0520400709181A480143C0123D
:100B0000414004E0032040070818C10FC907002036
:100B100009B0F0BD0020F107FAE705180C464C417A
:100B200011486D42A04115D394181A465A410E48F7
:100B3000644290410ED301204A004005824209D30D
:100B40005A00824206D35940C90F084AC9070020FB
:100B50001143DDE700200649DAE700000000FF0747
:100B6000FE070000FFFFFF7F0000E0FF0000F07FB6
:100B70000000F87F0121C9050123411842001B062E
:100B8000D3185B0E0AD0C1100722D206891840077D
:100B90005242D14201D5520089187047090208D546
:100BA0000146002A03D0C10FC90700207047104634
:100BB0007047420202D00020024970470721090510
:100BC0000143F4E70000F87FF0B5FF252D04C609C6
:100BD000C209FF2704462E400137CB093E43484057
:100BE0002A402B400746002A6BD0002B69D0AA422E
:100BF00067D0AB4265D0002800DA32460125ED050A
:100C000029432C4309022002090AD21A4B0C7F24E3
:100C1000E31A434C000A7C44E35C7D24240412194B
:100C200014145B00A218884201D3521C00E040005B
:100C300049420C465C4324115C43DB016415E31814
:100C4000040A5C43C502200D0C4644436419250A7E
:100C50005D432303EC0C0D46654300030019EB18BC
:100C60004C42A34201D35B18401CD4052018002B32
:100C700007D05B00C91804D3401C002901D14008EB
:100C800040003F2189048A4209D3002A08DC11066A
:100C9000090F04D0032149074018C00FC007F0BD59
:100CA00001224100120689187F2252069142F6D293
:100CB00005214907C84201D59010F0BDFF20C005AD
:100CC000F0BD002F00DA32461648AA4207D2AB42E6
:100CD00005D21902090E17D0F80FC007F0BDFF2585
:100CE00063002D06AB42F9D84900A942F6D8AB42C1
:100CF00001D1A942F2D0A94201D1002101E0610055
:100D00004908D0050843F0BD1102090EFBD0FF20B1
:100D10000243D005F0BD0A460146104654E70000E4
:100D2000D65400000000C07F10B501469E2400028A
:100D3000CA15A307002A02D01843002A04DBA21A0E
:100D4000002A0CDDD04010BD1206120E01D1400069
:100D50004008A21A03D4D04040420028F3DDFF220D
:100D600048001206904201D9002010BDC817C043A8
:100D7000584010BD1F22030C02D10F2200041CD0CA
:100D8000030E01D10002083A030F01D10001121F26
:100D9000830F01D18000921E002801DB4000521E0B
:100DA000D2055118021251181922904004D3491C3F
:100DB000002801D14908490008467047C10FC907FA
:100DC00000D04042012292071143D3E70121890755
:100DD000D0E7754600F024F8AE4605006946534654
:100DE000C008C000854618B020B5FFF7C7F960BC41
:100DF000B64600260027C0C5C0C5C0C5C0C5C0C511
:100E0000C0C5C0C5C0C5403D490849008D467047B2
:100E100010B50446C046C0462046FFF79AF910BDFB
:100E2000004870470800002001491820ABBEFEE7CB
:100E3000260002007047B0B50025284600F04AF9A8
:100E400000F00AF90320C401204600F081F800F008
:100E5000FDF800F047F9204600F020F90028FAD00C
:100E6000204600F075F8681C092D0546F1D300F006
:100E7000E1F800F0F9F8404240B200F02BF900F040
:100E8000DFF8204600F064F8B0BD000010B5032084
:100E9000C401204600F002F9002802D1204600F0EB
:100EA00057F800F0E1F81C4908801C4948431C49E8
:100EB00004F0DCFE1B49088080B2FF212E318842FD
:100EC0000DD32048017800290ED01F480078002853
:100ED00009D01548012101701448017010BD124855
:100EE0000078002805D010BD184901220A70027050
:100EF00010BD0E49002008700D490A78022A08D159
:100F00000C4A107004220A700B4901220A700B4926
:100F10000A700B49087010BDBE000020E40C0000F0
:100F2000FF0F00002A01002089000020BC000020E3
:100F300099000020C7000020ED000020F4000020F0
:100F40008A00002086000020870000208800002002
:100F5000FF21CA43C1431143C005574803D4C268A7
:100F60000A40C260704702680A4002607047C0468B
:100F7000F0B52B490B1F1A680124A2431A600278AE
:100F80001C687025AC435207520EA2181A6084796F
:100F90001D6802229543E407A40F2C191C60037AF4
:100FA0000C680825AC43DB071B0FE3180B60847843
:100FB0000D6830239D43E407E40E2C190C608478FF
:100FC000A40040252C400E68AE4334190C6085887F
:100FD00000242E46E640F60703D1641C092CF8D104
:100FE00009240D6815430D600F2634400D46083D59
:100FF0002F68B7433C192C60D2430C6814400C6036
:10100000C4790E681640E207920FB2180A60296888
:10101000994329604078296801432960F0BDC046A2
:101020008844004001210172818000218170C180CB
:10103000018070472E48016801229143016070478A
:1010400023480168012291430160704728480168E4
:1010500001220A43026070471D48016801220A43C9
:1010600002607047704700000F2108020A4A1346C9
:10107000083B1B681B0707D4136852680A40F0300E
:101080001901014088187047516812681202024025
:10109000C8B210187047C04690440040C1050649C8
:1010A00002D4C968014002E009680840C1B2C8B270
:1010B000411E88417047C0468044004004490A6888
:1010C00004239A43C007400F101808607047C046B9
:1010D000C04400403F210140014801607047C046C4
:1010E000C44400400248016801220A43026070477C
:1010F0008444004080B503480078002801D000F007
:1011000057F980BDA0000020012181400148016005
:101110007047C04608180040062838D8800001A251
:101120001058874641110000511100005F11000066
:101130006D1100008F1100008F1100007F11000061
:1011400003200140124A1368834358181060704707
:101150000F4802680C239A438907090F0CE00C48DA
:10116000026830239A438907890E05E0084802681F
:10117000C0239A438907090E51180160704704483B
:10118000426804239A43C907490F511841607047C8
:101190000018004070B50146584A214C2646354695
:1011A000131F1868460707D4C60609D4461E7042A6
:1011B0007041012807D009E00220012803D005E092
:1011C0000320012802D16E1C002DE8D1002D00D192
:1011D0000420002800D070BD10680225284310604C
:1011E0005160106840210143116021461C6860076E
:1011F000284604D4E00605D4641E604260410128FC
:1012000003D005E00320012802D14C1C0029ECD1B9
:1012100013680224A34313600029DCD1042070BDAD
:101220000100F5FF3548016880220A4302607047DB
:10123000F0B581B0314B324D2F463E461C1F22681F
:10124000570707D4D70609D4571E7A427A41012A94
:1012500007D009E00222012A03D005E00322012A77
:1012600002D1771C002EE8D1002E00D10422002AE2
:1012700040D11A680126009632431A6001802F4639
:101280003E462268570707D4D70609D4571E7A422C
:101290007A41012A07D009E00222012A03D005E0A1
:1012A0000322012A02D1771C002EE9D1002E00D1A1
:1012B0000422002A1AD1090C4180284621684A07D5
:1012C00007D4CA0609D4491E4A424A41012A07D016
:1012D00009E00222012A03D005E00322012A02D1FB
:1012E000451C0028E9D1002800D104221868009983
:1012F00088431860104601B0F0BDC0461010014090
:1013000001E0FFFF024803490160034901607047A3
:101310000410014023016745AB89EFCD10B5FFF7FD
:10132000F1FF0F20C4022046FFF734FF1A4801885E
:101330002046FFF77DFF5648018850342046FFF7CE
:1013400077FF16480188792004022046FFF770FFD6
:101350001348018850342046FFF76AFF114801887E
:101360003D2044022046FFF763FF43480188503484
:101370002046FFF75DFF0C4801787B2004022046E1
:10138000FFF756FF0948018850342046FFF750FF09
:10139000FFF748FF10BDC046A4000020B8000020A1
:1013A000A6000020A20000208B000020700000207A
:1013B000F0B591B002480078002803D18CE2C04615
:1013C000B200002006480168491C0160054F3868DA
:1013D000451C3D6004480178002909D106E0C0465B
:1013E000CC000020FC0000200B0100200121017036
:1013F000064E30687F21CC05214604F033FD306075
:1014000003480088854205D8FEE1C046300100202F
:101410007000002002480078002803D1F4E1C046A3
:101420000C010020094D2868214604F01BFD2860AE
:10143000FFF7A0FB064A074BFEF7F2FFFFF714FA8F
:1014400005490880002809D1D7E1C046D80000200E
:101450003D0AD7A3703D0E40AC00002000200A904A
:10146000286005480188491C0E4601800349088808
:10147000002807D004E0C046AA000020A4000020F5
:10148000401E088002480188002905D002E0C046BD
:10149000B4000020491E0180024A1188002905D0AD
:1014A00002E0C046B8000020491E1180FC4A1188A5
:1014B000002901D0491E1180FA4A1188002901D063
:1014C000491E11800788F808F74948430B46000D6C
:1014D0007D21CC0060433D1A0B97F44805803246CD
:1014E0000596B0B2C10859431E46090D6143511A11
:1014F000109189B20491401A214604F0D9FB08905A
:10150000EB490870FA4802880992D0087043000D30
:101510006043101A0D9086B2901B21460E9404F081
:10152000C7FB0690F8490870A9B2781A0F460391D4
:10153000214604F0BDFB0790F4490870B808F4494F
:101540004843400C642460432F1AF2480780049AF1
:10155000900848430D46400C60431099081A0C90BF
:1015600080B20190101A214604F0A2FB0490EA49CF
:101570000870B0086843400C254660430D9A101A65
:101580000D9084B2301B29460F9504F091FB029018
:10159000E2490870BEB20398801B294604F088FB1C
:1015A0000390DF490870DF4908467043C00C0A25E4
:1015B00068433A1A0092DC48028008460199484381
:1015C000C00C68430C9A101A80B2081A294604F01D
:1015D0006FFB0746D5480770D2486043C00C68438C
:1015E0000D9A101A80B2201A2946109504F060FB5B
:1015F0000446CF480470009880B2301A294604F09F
:1016000057FB0646CB4908706321CA4311465A313D
:101610004F430B460D910498504315460C92C64912
:10162000089A4A43059951180918C919C34A1170F3
:101630005C4302986843069ABF494A430999511886
:1016400009180919BE4A11705E4303986843079A46
:10165000B9494A430B99511809188819B9490870B2
:10166000A4480188C808A64B5843000D0E9D684346
:10167000081A0F460791A349088082B29108049284
:10168000A34C6143490C0F9C6143401AA149088057
:1016900084B20B94A3496143C90C109C6143411A65
:1016A0000691A148018094480488E0085843000D41
:1016B0006843261A099493480680B81A294604F00C
:1016C000F7FA0590A0490870B7B2E01B294604F06C
:1016D000EFFA08909D490870B8088D494843400CBE
:1016E0000F9C6043351A8B4805800B98049A101A9A
:1016F000214604F0DDFA064695480670A9B2781A2C
:101700000F460391214604F0D3FA049091490870E2
:1017100084487843C00C109948432F1A82480780A8
:10172000069880B20B9A101A04F0C2FA8A4908701F
:101730000D9C60430C9D6E437F49059A4A4307996F
:1017400051188919081885490870B8B20399081A00
:10175000109904F0ADFA824908706043049B6B4312
:10176000089A75494A4309995118C91808187D49BA
:10177000087062480688F00861494843000D0E99D8
:101780004843371A5F480780BDB2701B04F090FAD7
:101790000E9075490870A8085D494843400C0F99A0
:1017A00048433C1A5B480480A7B2E81B04F080FA67
:1017B00005466E4805705B487843C00C109A50434C
:1017C000201A5949088080B2381A114604F070FA7C
:1017D000674908700D9941430C9A6A4356480E9B1D
:1017E000584380198018401862490870FFF796FD29
:1017F0003E480A990180394F3B4D002038602868E7
:10180000FFF792FA5C4908805C4D5D4E37785D4881
:101810000078002816D0002F14D12878002811D184
:101820005948007859490978014307D15848017847
:10183000584A12780A4301D10121017056480178B3
:10184000491C017055480178032912D30021017009
:10185000234A10681160524904F04AFB04462148AB
:101860000088FFF7B3FA01462046FFF7ADF94D496E
:101870000860002F2DD04C480178022929D000297A
:1018800027D04A4A1178491C1170494A1378002B15
:1018900010D1CCB20B2C0DD30120107019E0C04632
:1018A000A6000020A2000020C5200000C2000020E9
:1018B000D0000020022B0CD1C9B20B2909D3002182
:1018C00031700722027001202870324801703948B7
:1018D00001700220FFF718FC11B0F0BDFC000020E1
:1018E0003001002070000020D8000020AC00002053
:1018F000A4000020B8000020A6000020A2000020C4
:10190000C5200000C2000020D1000020D20000202D
:101910007B14000036010020190100201A0100206C
:101920001B010020CDCC0000F80000202201002087
:10193000230100202401002018FCFFFFE10000200B
:10194000E2000020E3000020D3000020D4000020AB
:101950001C0100201D01002025010020E4000020C2
:1019600026010020E5000020D50000201E010020F7
:1019700027010020E6000020BA0000209800002087
:101980008F0000208B0000202C0100208C00002004
:1019900012010020140100208E0000202D010020E3
:1019A0000000FA449C00002099000020AF000020B5
:1019B000DC0000200E01002002688A4302607047AC
:1019C000F0B584B0C4680369009080680390C8785B
:1019D00002900026019103E03C43761C082E21D0A2
:1019E00001200746B740029A1742F6D00D78102220
:1019F00019462A4002D0039B3B4301E0039BBB43B3
:101A000003930B46002A00D102200199085C0028AC
:101A100003D03B43E807DFD102E0BB43E807DBD15B
:101A2000BC43DAE70098C46003610399816004B0A5
:101A3000F0BD40680840411E8841704702680A4373
:101A40000260704770477047002809D41F21084082
:101A50000121814003480160BFF34F8FBFF36F8FB7
:101A60007047C04680E100E010B5002805D403228D
:101A7000034693430F4A9A1806E00F220240083AA1
:101A800003239A430A4BD2188307DB0E8907090EFA
:101A90009940FF249C401368A3430B431360002824
:101AA00005D41F210840012181400348016010BD79
:101AB0001CED00E000E400E000E100E07047000001
:101AC000F0B583B014460F460728029200D927E1EB
:101AD000800001A108588746F91A0000871B000002
:101AE0000D1C00009D1C0000211D0000931D000026
:101AF000A71D0000BB1D0000F84800260670072047
:101B00000E2103F0BBFA0820314603F0B7FAF4487F
:101B10000078002819D1F348019701270770F2488F
:101B20000770F2480770F24D0F35102029463A46EB
:101B300000F0D2FF112029463A4600F0CDFF1220D6
:101B400029463A46019F00F0C7FFEA48007800287E
:101B500000D05FE1E8480078012800D10AE20028BF
:101B600000D057E1E5480670E5480670E548067084
:101B7000E54D04212846FFF71FFFE44800780028C0
:101B800000D047E1DCE1DE480126067007200E2187
:101B900003F074FA0820314603F070FAD048007858
:101BA000002818D1CF480670CF480670CF4806707D
:101BB0003D46CF4F0F3710203946324600F08CFF9C
:101BC00011203946324600F087FF122039462F4651
:101BD000324600F081FFC7480078002800D019E1A4
:101BE000C5480078012800D1CCE1002800D011E1DF
:101BF000C44800210170C1480170B8480170C24D4D
:101C000002212846FFF7D8FE04219AE1BC480126AC
:101C1000067007200E21019003F030FAB0480078DA
:101C2000002818D1AF480670B0480670AE4806705C
:101C30003D46AF4F0F3710203946324600F04CFF7B
:101C400011203946324600F047FF122039462F4610
:101C5000324600F041FFFB480078002800D0D9E070
:101C6000F9480078012800D1A6E1002800D0D1E091
:101C700008200225294603F001FAF44800210170EA
:101C8000F3480170F3480170F34E30462946FFF7E0
:101C900093FE04213046FFF78FFEBBE0ED480024A1
:101CA0000470E24801260670EB4D02212846FFF73A
:101CB00083FE04212846FFF77FFEE34800780128D1
:101CC00002D0002804D13446E0480470E048047093
:101CD000D7480078002819D1D64801260670D74881
:101CE0000670D54806703C46D54F0F371020394650
:101CF000324600F0F1FE11203946324600F0ECFE8B
:101D0000122039462746324600F0E6FE0720002121
:101D100003F0B4F90820032103F0B0F9029C79E044
:101D2000C24801260670CC4D02212846FFF744FE2A
:101D300004212846FFF740FEC34900200870BC4933
:101D4000097800291CD1C1490870C1490870C149EE
:101D50000870BA480670B7480670B7480670B84DA4
:101D60000F3510202946324600F0B6FE11202946D4
:101D7000324600F0B1FE12202946324600F0ACFE99
:101D80000720002103F07AF90820032103F076F9F7
:101D900040E0A6480126067007200E2103F06EF9E8
:101DA0000820052113E0A1480126067007200E2116
:101DB00003F064F90820062109E09C48012606701A
:101DC00007250E21284603F059F90820294603F07B
:101DD00055F997480078002818D19648067096481B
:101DE0000670964806703D46954F0F3710203946CD
:101DF000324600F071FE11203946324600F06CFE8A
:101E0000122039462F46324600F066FE8D48007893
:101E100000287DD00F2F0ED89648F840C0070AD072
:101E200078B2800094A10958012003F027F902201C
:101E30000A2103F023F9E0089F494143080D7D2161
:101E4000C9004843261A9D4806802046B4B2001BAC
:101E500003F02EFF01909A490880A0089949414358
:101E6000480C64214843351A97480580AFB2E01BFF
:101E700003F01EFF06469548068095487843C00C3F
:101E80000A214843281A934A108080B2381A03F076
:101E90000FFF914C20806321C9430A465A324243C6
:101EA00071438E48019D6843029BC01840188018FA
:101EB0008B4E3080A9B2032003F0E0F883480188FC
:101EC000042003F0DBF82188052003F0D7F83188DF
:101ED000062003F0D3F803B0F0BDC046BD000020DB
:101EE0000C010020B1000020B00000208300002081
:101EF00072000020B6000020C8000020680000200A
:101F0000B700002069000020000C00406F00002096
:101F10004D480078012818D0002800D07AE74B48B7
:101F2000002101704A4801704A4801704A4D04215D
:101F30002846FFF741FD494800784D2800D969E758
:101F400002212846FFF738FD64E740480670404804
:101F5000067040480670404D04212846FFF76EFD8C
:101F60003E4800784D2800D954E702212846FFF763
:101F700065FD4FE73648012101702C480170334858
:101F8000017005E03148067031480670314806702E
:101F9000314E04213046FFF751FD354800780028C6
:101FA00000D137E731480078002800D032E702211D
:101FB0003046FFF743FD2DE7294D2878002801D052
:101FC00005210AE027480078002801D0062104E016
:101FD000254800780028019902D0082003F04EF827
:101FE0001A4806701A4806701A4806701A4E0421DC
:101FF0003046FFF723FD1D480078002800D009E790
:102000001B4800780028D2D1144800784D2800D908
:1020100000E728780028CAD1124800780028C6D1E5
:10202000114800780028C2D1F4E6C046B70000206D
:102030000C010020B100002083000020B00000202F
:1020400072000020B6000020C800002069000020B7
:1020500068000020BD000020000C00400E010020A0
:102060008C0000208F000020980000206F000020CE
:10207000C70000203F8000000000000001000000B9
:102080000200000003000000040000000500000042
:102090000000000000000000000000000000000040
:1020A0000000000000000000000000000000000030
:1020B000000000000F000000C5200000C20000204A
:1020C000C00000207B1400003601002034010020F5
:1020D000CDCC0000F8000020F600002018FCFFFF27
:1020E000C40000205F490A6818239A438307DB0E67
:1020F000D2180A604000202210400B689343181841
:10210000086070477047000070B514480078401EA2
:10211000C1B20B2920D845B2AE0011488159102018
:102120000124224600F0D8FC0EA08159112022463D
:1021300000F0D2FC17A081591220224600F0CCFCFE
:1021400020A0405D2249087022A0405D244908700B
:1021500024A0405D2649087070BDC046C90000201B
:1021600030610000780000207E0000207700002011
:10217000780000207E0000207700002078000020FA
:102180007E00002077000020780000207E000020E4
:1021900077000020770000207B00002075000020E1
:1021A000770000207B0000207500002077000020D1
:1021B0007B00002075000020770000207B000020BD
:1021C0007500002000010100000101000001010074
:1021D000B000002001010100010101000101010026
:1021E0008300002000000100000001000000010049
:1021F000B100002070470000B0B51A4801461839F8
:1022000001220A600246143A002111600246083A8F
:10221000E1231360021F116018220260FF22426056
:10222000026142628160C160C268D207FCD1C160B4
:1022300081610D4B1C68102214431C600724E44389
:102240001D6825401D60036820251D430560036847
:1022500023400360036808241C439443046003483C
:102260000160B0BD180001400010014008ED00E021
:10227000F0B585B00124204600F01AFB012800D0FB
:1022800092E2204600F0F4FADD4A1078431C137005
:10229000DC4801784D424D41DB480078461E074638
:1022A000B7412F403D4602946540FB4C267874426E
:1022B00074412C4303D0F94C0025257010E0F74DF4
:1022C0002C78641C2C70E4B22E2C09D300242C70C2
:1022D000F34E3478651CECB20C2C00D90125357016
:1022E000DBB2962B029C00D05EE200261670002F17
:1022F00000D1B7E0EB4F3878002808D002252846F7
:10230000FEF702FF05202946FFF7AEFB3E70E648C8
:102310000178002909D00670E4480178491CCAB246
:102320000F2A324600D80A460270E1480078002899
:1023300003D0E0480178491C0170DF48007800288C
:1023400003D0DE480178491C0170DD4F3878002841
:102350001FD1DA48007804281BD3D648007800281B
:1023600017D1D84D02212846FFF768FBD6480390C5
:102370000398411E03910028FAD102212846FFF755
:102380001BFBD24800210170D14801220270D148C4
:102390000170CE480178CE4802781046084308D034
:1023A000CD4803785B1CDCB2022C00D10023037003
:1023B000029CCA48007804281BD0002A19D10029A1
:1023C00017D1C7490A78002A03D0C64A13785B1C84
:1023D0001370C54A13785B1CDCB2022C00D10023B9
:1023E000029C1370BF4A1378192B02D300230B7081
:1023F0001370EF490978002903D0FB490A78521C71
:102400000A703978002909D0F8490A78521C0A70F4
:10241000D2B2042A02D300220A703A70F44D29780D
:10242000002900D1B5E0F5490A78002A00D0B0E0D3
:10243000F14F3A78012A00D0ABE0EE4A1378002B36
:1024400000D0A6E03A46EE4F3C88631C3B80032751
:102450007F02E419A4B2082C57D8EC48002101608F
:10246000029C96E0002900D19EE1D249097800291A
:1024700027D0D14F3878411C3970D04D2A7850423E
:102480005041C9B2042900D30446002C00D08BE18E
:10249000CB4C02212046FFF7D1FACA480490049899
:1024A000411E04910028FAD102212046FFF784FA48
:1024B0003E70C54801210170C44806702E70C44F9B
:1024C00071E1C44F39784B1C3B70C3490C786242B0
:1024D0006241029CDBB2032B00D31446002C00D0D7
:1024E00062E10E70002846D0BC4801210170052031
:1024F000FFF7AAFA0220FEF707FEAC480670092093
:1025000040016030FEF724FD4DE19BB2BD4CA3427B
:10251000029C3ED31746BC4B1B78BC4C2468002C55
:102520002FD00022002B029C2FD100282DD0BA489A
:102530000078002829D1B7480078002825D1B44870
:102540000078002821D1B54800270770A9480770F6
:102550000520A44A1070B248012202700A70900748
:1025600001900221FFF728FA04210198FFF724FACD
:102570003A46A14F09E001208C490870984908703B
:1025800011E1581E83415A00029C00209C4908809A
:102590003A709F4F287800283DD0387800063AD10D
:1025A0009048007802210143022934D099480078EC
:1025B000002830D19B4908789B4A1378834225D262
:1025C00000201070087099490A68521C0A609849E6
:1025D0008A4220D301213970884A10700622814B2B
:1025E0001A70844A10708D4A107088070290022178
:1025F000FFF7E2F904210298FFF7DEF90BE0C0468D
:10260000200100206F000020B20000200020087090
:102610008649086010707748017800290CD08549F8
:102620000A88521C0A8092B2834B9A4204D3002239
:1026300002700A8079480270804801784842484117
:1026400029780029214600D00146002912D16B4883
:102650000078002806D13878002803D16D4800782A
:10266000002807D06D480178491CCAB24E2A00D90B
:10267000502101707248027851425141524A1278F9
:10268000531E9A41514B1B78002B23462ED0002B12
:102690002FD0002C30D044E00C010020210100207C
:1026A000C9000020EE0000200601002005010020E6
:1026B0006B0000206A0000206D0000206C000020EC
:1026C000EA000020000C0040983A000018010020A9
:1026D000B600002009010020E00000209900002041
:1026E000ED000020C7000020C80000201346002B8A
:1026F000CFD10C46002C14D135490A78521C0A70EF
:10270000D2B2072A0DD3002202700A702849097834
:10271000002902D04B49062202E04B490A60494990
:102720000A704A490A78002A06D000220A7001215C
:102730001F4A1170017006E00121017000201C4940
:102740000870324908604248017801290ED1414998
:102750000A88521C0A8009235B0192B29A4205D969
:1027600002220270002008803B4908703B48017833
:1027700000290CD03A490A78521C0A70D2B2062AB3
:1027800005D300220A700270364801210170364FCD
:102790003878002808D035480178491CCAB20F2A79
:1027A00000D9002101703E7005B0F0BDB2000020DC
:1027B0000C0100206D000020C6000020F000002069
:1027C000000C0040983A000018010020B6000020DC
:1027D000090100206E000020F3000020F20000201C
:1027E000F1000020990000202D0100208D00002024
:1027F0008B00002014010020120100208C0000201A
:10280000100100200BFA00002C010020CC00002059
:102810008F00002098000020890000200E01002079
:10282000130100208E000020900000209400002062
:10283000B1AD010016010020271100000D0100209C
:1028400007010020080100209C0000200B0100204F
:10285000DC000020DE000020AF0000208800002007
:102860008A000020870000208500002084000020CE
:1028700002490A6882430A607047C046104000401F
:10288000014A5160106070471C40004002480168D6
:1028900001220A43026070470040004009490A686B
:1028A00002430A607047C04680B5FFF7E1FC80BD77
:1028B00004494A68D2430968C94311430840414268
:1028C000484170470C400040F0B581B0F74D4021C1
:1028D00000912846FFF7B2F8082628463146FFF750
:1028E000ADF8202728463946FFF7A8F810242846D7
:1028F0002146FFF7A3F828460099FFF79FF82846DE
:102900003146FFF79BF828463946FFF797F82846E7
:102910002146FFF793F8012000F01AF8032000F099
:1029200017F8292000F014F80848042404703046F1
:1029300000F00EF8802000F00BF8204600F008F8B8
:10294000052000F005F801B0F0BDC04629010020C7
:10295000F0B581B00546D54C40212046FFF72CF854
:1029600005200A2100BF491E0A06FBD1401EF8D1EE
:1029700010212046FFF762F820212046FFF71CF8BF
:102980000A200146024600BF521E1306FBD1491E13
:10299000F8D120212046FFF751F80A2001460246CF
:1029A00000BF521E1306FBD1491EF8D1102120464C
:1029B000FFF702F820212046FEF7FEFF0A2001461D
:1029C000024600BF521E1306FBD1491EF8D120213A
:1029D0002046FFF733F80A200146024600BF521E88
:1029E0001306FBD1491EF8D110212046FEF7E4FF63
:1029F00020212046FEF7E0FF0A200146024600BFE4
:102A0000521E1306FBD1491EF8D120212046FFF7A4
:102A100015F80A200146024600BF521E1306FBD1DC
:102A2000491EF8D180260027102120462E4202D0D0
:102A3000FFF704F801E0FEF7BFFF20212046FEF774
:102A4000BBFF0A200146024600BF521E1306FBD1FF
:102A5000491EF8D120212046FEF7F0FF0A2001464A
:102A6000024600BF521E1306FBD1491EF8D1781C46
:102A70007608072F0746D7D310212046FEF79CFF84
:102A800020212046FEF798FF0A200146024600BF9B
:102A9000521E1306FBD1491EF8D120212046FEF715
:102AA000CDFF0A200146024600BF521E1306FBD18D
:102AB000491EF8D140212046FEF7C0FF05200A211B
:102AC00000BF491E0A06FBD1401EF8D11021204646
:102AD000FEF7B4FF01B0F0BDF0B585B002920E462E
:102AE0000490724C40212046FEF766FF05200A2123
:102AF00000BF491E0A06FBD1401EF8D11021204616
:102B0000FEF79CFF20212046FEF756FF0A200146D3
:102B1000024600BF521E1306FBD1491EF8D12021E8
:102B20002046FEF78BFF0A200146024600BF521ED8
:102B30001306FBD1491EF8D110212046FEF73CFFB9
:102B400020212046FEF738FF0A200146024600BF3A
:102B5000521E1306FBD1491EF8D120212046FEF754
:102B60006DFF0A200146024600BF521E1306FBD12C
:102B7000491EF8D110212046FEF760FF2021204693
:102B8000FEF71AFF0A200146024600BF521E130636
:102B9000FBD1491EF8D1202520462946FEF74EFFDD
:102BA0000A200146024600BF521E1306FBD1491EF1
:102BB000F8D13F48007800282BD000270498102136
:102BC000054203D02046FEF739FF02E02046FEF71B
:102BD000F3FE20212046FEF7EFFE0A2001460246C2
:102BE00000BF521E1306FBD1491EF8D120212046FA
:102BF000FEF724FF0A200146024600BF521E1306BC
:102C0000FBD1491EF8D17F1C6D0829480078874206
:102C1000D4D30298002837D00020019001460391B8
:102C2000049635780126019F102120462E4202D0BD
:102C3000FEF704FF01E0FEF7BFFE20212046FEF76D
:102C4000BBFE0A200146024600BF521E1306FBD1FE
:102C5000491EF8D120212046FEF7F0FE0A20014649
:102C6000024600BF521E1306FBD1491EF8D1781C44
:102C70003106CE0D032F0746D6D30399491C049E77
:102C8000761C02988142CAD340212046FEF7D6FE28
:102C900005200A2100BF491E0A06FBD1401EF8D1BB
:102CA00010212046FEF7CAFE05B0F0BD0008004026
:102CB0000000002000B59FB01320FFF713FA072093
:102CC0000490FF21FFF7DCFD01273846FFF7E6FD02
:102CD000FFF7DCFD17203946FEF7C6FE16AC0620CE
:102CE0000890E07011252570BA482146FEF768FE6D
:102CF0000E201590E0702570BE0730462146FEF785
:102D00005FFE7020E0702770B2482146FEF758FE43
:102D10007820E0702570B0482146FEF751FE302043
:102D2000E0702770AD482146FEF74AFE17AC2770C9
:102D3000AB486080022528462946FEF7EDF9A648F3
:102D40002146FEF73DFE0824149630462146FEF744
:102D500075FEFFF7B9FDA34A0F26D6731598907339
:102D60000D2151730C2111730B21D1720A20079090
:102D700090720921517214720498D0710898907160
:102D8000944805210E915171042111911171032173
:102D90000591D17010959570577000251570924966
:102DA0000D6092490D7092490D8092490D8017A9CE
:102DB0000D70FA024A80FEF703FE2846FEF77EF900
:102DC00017AC2046FEF72EF9A7711020A080657081
:102DD0002046FEF7CDF8FEF72EF8FEF737F9FEF79E
:102DE00081F98548077085480770854807708548D0
:102DF00007708548077085480570854805708548C7
:102E0000057085480570854812950570F0020168C7
:102E1000834A844DA94201D801688AB282490A8056
:102E2000016D824CA942214601D8006D81B28048D3
:102E30000B910180792000020168A94201D8016844
:102E40008CB215977B490C80016D7B4EA94201D84D
:102E5000006D86B2794806803D2040020168A94293
:102E6000724F01D801688FB275490F80016DA94278
:102E7000139203D97349002008800BE0006D71495B
:102E8000088080B2FDF747FD6F4A704BFDF74EFD9D
:102E9000FDF788FA6E4908607B2000020168A942AC
:102EA00000D801686B49129A0A70016DA94201D9D4
:102EB000694B00E0036D0B9D68480380322D159A25
:102EC000114600D3129913983228104600D3129855
:102ED0000843322C114600D312990843322E114672
:102EE00000D312990843322F114600D31299084398
:102EF00001280F9309D15A4805990170139A312A74
:102F00004AD85848012101700BE056480021017051
:102F10005348119A027054480170544801210170BD
:102F2000139A6042604169426941002A159B1A4622
:102F300000D00A46002A194600D101467242724169
:102F40000029184600D110467942794100281846D8
:102F500000D10846012811D1414901200870139978
:102F600000291FD0002D26D0002C27D0002E7FD086
:102F7000002F00D083E03B480E997FE0384801786D
:102F800003297CD0374900220A7011990170364814
:102F900002703648012171E0312D06D83148109970
:102FA0000170BEE72F49087069E0312C09D82D481F
:102FB00005990170B5E72B4810995FE029480599FC
:102FC0005CE0312E01D901F0E1FF26481199017032
:102FD000A7E7C046000C0040000800400004004085
:102FE0000180000072000020FC000020BC000020D6
:102FF000BE0000202A010020B7000020A800002009
:1030000083000020B0000020B100002069000020F3
:103010006800002082000020AE000020BD000020DB
:10302000DC0500000F270000A4000020B80B000002
:10303000B4000020B800002070170000A600002097
:10304000A2000020AA0000203D0AD7A3703D0E4038
:10305000D80000208B000020F40900007000002040
:103060009900002008010020C7000020ED0000208A
:103070000148119902E0C046080100200170FC4897
:10308000002112910180FB480160FB480170FB4860
:103090000170FB480170FB480170FB480170FB4860
:1030A0000170FB480170FB48012202701092FA483F
:1030B0000170FA480170FA480170FA480170FA4844
:1030C0000160FA480270FA480170FA4802880E92CC
:1030D000D008F9494843000D7D21CE000C9670437D
:1030E000101A0D90F54C208028463146FDF75AF80D
:1030F0000D462180139F38463146FDF753F80C46A4
:10310000781A314602F0D4FD1390ED490870642618
:1031100028462F463146FDF745F80A91E9480180D7
:10312000204631463546FDF73DF80E46601A2946E1
:10313000069502F0BDFD0390E34908703046079CF8
:103140002146FDF72FF8701A214602F0B1FD0190DB
:10315000DE4908700B983E46C01B0C9C214602F0CD
:10316000A7FD0290DA4908700A9FF01B294602F079
:103170009FFD0546D748057038463E46079F3946AD
:10318000FDF710F8D4480180701A394602F090FD1E
:103190000746D24807700D9881B200910E98401AE8
:1031A000214602F085FD0B90CD4908706320C04395
:1031B00002465A32019E56430992039C44430346F9
:1031C0000A90C8481399414360188019C649098874
:1031D0004018C649087057435D430298C1494843A7
:1031E0002818C019C24909884018C2490870009BB4
:1031F0009808C1494843400C069948430D9A161A4D
:10320000B5B2581B02F054FD0446BC480470BC48DB
:103210006843C00C079F7843301A80B2281A394699
:1032200002F046FDB7490870099948430A994C4392
:10323000AC490B9A4A430E99511809190818B2491A
:103240000870B2480688F0089B4A5043000D0C9D58
:103250006843301A0B96994B188082B291080192FC
:10326000A54C6143490C069C6143401A954908806E
:1032700084B21394A2496143C90C7943411A039162
:1032800095480180A2480188C8088B4C6043000D16
:1032900068430F1A0C460E911F80B01A294602F09F
:1032A00007FD02909B490870BEB2A01B294602F0A0
:1032B000FFFC0D9098490870B0088F494843400CB6
:1032C000069C60433D1A7F4805801398019A101AA6
:1032D000214602F0EDFC0746F7480770A9B2701AC4
:1032E0000E460091214602F0E3FC0190FA49087075
:1032F00083487043C00C079948432E1A76480680CD
:10330000039880B2139A101A02F0D2FCF3490870A5
:10331000099D68430A9C67437249029A4A430B9984
:103320005118C9190818EE490870B0B20099081A66
:10333000079902F0BDFCEB4908706843019B6343A9
:103340000D9A68494A430E995118C9180818E64958
:103350000870E64802881392D00857494843000D88
:103360000C994843171A55480780BDB2501B02F00C
:103370009FFC0446DE480470A8085F494843400C9F
:10338000069948433E1A4F480680B7B2E81B02F040
:103390008FFC0546D748057059487843C00C079AFA
:1033A0005043301A4C49088080B2381A114602F056
:1033B0007FFCD14908700F9FBEB2F2083E4B5A43C2
:1033C000120D0C994A43BA1A3C4B1A80099B584378
:1033D0000A9B5D43434B5C43139BE3185B1918182E
:1033E000C64B187095B2A808434B5843400C069B37
:1033F0005843171A33480780701B02F059FC0446E3
:10340000BF480470BEB23E487043C00C07994843A1
:103410003F1A31480780A81B069902F049FC05466F
:10342000B8480570B8B2301A079902F041FCB649A5
:103430000870099948430A994D432A494C430F990A
:103440006118129C49190818B0490870B0480470F6
:10345000B048109D0570B0480570B0480570B04880
:103460000570B0480470B0480470B048048055E05E
:10347000BA0000209C0000206F0000206D0000209A
:103480006B0000206E0000206C0000206A0000200D
:10349000B6000020B2000020E0000020CA0000209A
:1034A0002C0100202D0100203001002038010020D7
:1034B000C9000020AA000020C5200000C200002092
:1034C000D1000020360100201A0100202301002035
:1034D000D20000201B010020F80000202401002061
:1034E000D000002018FCFFFFA4000020E200002014
:1034F000B4000020E30000207B140000190100202C
:10350000CDCC000022010020E1000020B800002006
:10351000A6000020D3000020D400002084480470BE
:1035200084480470844804708448046084480470AB
:103530008448047084480470844805708448057089
:10354000844804708448047084480470844805707A
:10355000844804808448047084480470844804705B
:103560008448057084480570844804708448047059
:10357000844804708448046084480480844804704B
:10358000844804708448047084480470844804703B
:10359000844804608448047084480470844804802B
:1035A0008448047005200B90FEF74EFAE0431E900D
:1035B0001D901C901B901A9019901890179017A9A5
:1035C00020222846FFF788FA02217B480646FEF7AC
:1035D00035FA7A4817901798411E17910028FAD1AA
:1035E0001E941D941C941B941A9419941894179467
:1035F00017A92022109D2846FFF76EFA02213046B7
:103600000D91FEF7D9F96E4804706E4804706E484B
:1036100004706E4804706E4804706E4804706E4802
:1036200004706E4804706E4805706E48057035462B
:103630006D4804706D4804706D4F6E4E56480078AA
:1036400000280DD16C4817901798411E179100283B
:10365000FAD101205049087005200221FEF704FA32
:103660003B4800780028129C01D100F092FD4021D7
:103670002846FEF7DEF9002800D1F3E05F48047029
:103680001098324908705E480178484248415D49C7
:1036900009780029159900D001460029204601D05B
:1036A00000F075FD31780629204601D900F06FFD44
:1036B000880002A1085887461C0100200938000034
:1036C000A7380000093900006B390000CD3900002F
:1036D0002F3A0000913A00001D0100202501002032
:1036E000E400002026010020E5000020A2000020C8
:1036F000D50000201E01002027010020E600002048
:10370000D60000201F01002028010020E700002033
:1037100021010020EC000020EB000020F40000203C
:10372000F1000020F2000020120100201001002012
:10373000130100200D0100200E010020CC0000200C
:10374000C8000020EA0000208D000020F3000020C7
:1037500004010020EE00002089000020C7000020A6
:10376000ED0000201601002014010020C6000020FA
:1037700018010020F0000020E80000200A010020CD
:10378000090100200701002000010020AC000020FA
:103790000C0100200B010020A00000208C00002064
:1037A0008F00002094000020AF000020DC000020EB
:1037B000DE00002098000020000C0040400D0300B7
:1037C000870000208A00002086000020880000205A
:1037D0008E00002090000020850000208400002042
:1037E000EF000020E9000020050100200601002074
:1037F0009900002008010020881300006E000020BE
:103800006F000020B2000020FA480078FA490978D9
:103810000143204601D100F0BAFCF8480078401E70
:10382000C1B203290AD840B28000F549085801788E
:10383000491CCAB2092A00D900210170F148007858
:103840000C994843F0490978069A51430818EF4902
:103850000978079A51434018ED4909784018ED4915
:10386000088094E2EC48017848424841EB490978E5
:103870000029159900D101460029109801D000F0C7
:1038800086FC02212846FEF7D9F8E54817901798DC
:10389000411E17910028FAD102212846FEF78CF824
:1038A000109800F074FCD4480078002800D105E29C
:1038B000DC480088DC4B9842DC49109A09D38842E6
:1038C0000B4606D3DA4B984203D3DA4B984200D327
:1038D0000023D4480380002B00D168E20020D649A1
:1038E000087011993970D5490A70D5490870D549C1
:1038F0000870D5490870D5490978002900D173E2CC
:10390000D3490A700B9972E3BB480078002800D1B4
:10391000F2E0D0480088C44B9842C449109A09D3B9
:1039200088420B4606D3C24B984203D3C14B984200
:1039300000D30023C7480380002B00D131E20020D0
:10394000BD49087011993970BC490A70BC490870AA
:10395000BC490870BC490870BC490978002900D1ED
:1039600029E2BB490A700B9969E2A3480078002854
:1039700000D1EBE0B8480088AB4B9842AB49109AB5
:1039800009D388420B4606D3A94B984203D3A94BCF
:10399000984200D30023B0480380002B00D102E2FC
:1039A0000020A549087011993970A4490A70A449EA
:1039B0000870A4490870A4490870A449097800292E
:1039C00000D100E2A2490A700B9980E28A4800788F
:1039D000002800D1E4E0A1480088934B9842934925
:1039E000109A09D388420B4606D3914B984203D3D1
:1039F000904B984200D3002398480380002B00D1BD
:103A0000D3E100208C490870119939708B490A70F4
:103A10008B4908708B4908708B4908708B4909786D
:103A2000002900D1D7E18A490A700B9997E27248C0
:103A30000078002800D16BE1894800887A4B9842D1
:103A40007A49109A09D388420B4606D3784B98429C
:103A500003D3784B984200D3002381480380002B86
:103A600000D1A6E10020744908701199397073499A
:103A70000A70734908707349087073490870734974
:103A80000978002900D1B8E171490A700B993CE32B
:103A9000584800780028204600D178E37148007823
:103AA000401EC1B203290AD840B280006E490858AE
:103AB0000178491CCAB2092A00D9002101706B485B
:103AC00000780C9948436A490978069A51430818C6
:103AD00068490978079A514340186749097840189E
:103AE000664908800004204600D050E310996248DF
:103AF0000170624801804AE13E4800780028204673
:103B000000D144E357480078401EC1B203290AD8C7
:103B100040B280005A4908580178491CCAB2092AA3
:103B200000D900210170574800780C994843564944
:103B30000978069A5143081854490978079A51435D
:103B4000401853490978401842490AE12948007849
:103B50000028204600D11AE342480078401EC1B236
:103B600003290AD840B280004A4908580178491C04
:103B7000CAB2092A00D900210170474800780C997F
:103B8000484346490978069A514308184449097838
:103B9000079A514340184349097840182E49E0E0FC
:103BA000144800780028204600D1F0E22D48007823
:103BB000401EC1B203290AD840B280003A490858D1
:103BC0000178491CCAB2092A00D90021017037487E
:103BD00000780C99484336490978069A51430818E9
:103BE00034490978079A51434018334909784018F5
:103BF0001A49B6E018010020B60000203801002064
:103C000060610000D0000020190100202201002086
:103C1000E1000020AA000020B20000206F00002078
:103C200088130000A4000020DC050000B80B000091
:103C30009411000070170000C7000020ED00002064
:103C40006800002069000020BD0000208C000020DA
:103C500013010020B4000020B8000020A6000020BE
:103C6000A2000020E800002080610000D6000020B3
:103C70001F01002028010020E70000207000002024
:103C8000A0610000D20000201B01002024010020C0
:103C9000E3000020B0610000D30000201C010020E0
:103CA00025010020E4000020C0610000D4000020B5
:103CB0001D01002026010020E5000020EC480078CE
:103CC0000028204600D162E2EA480078401EC1B2D6
:103CD00003290AD840B28000E74908580178491CF6
:103CE000CAB2092A00D900210170E44800780C9971
:103CF0004843E3490978069A51430818E14909788D
:103D0000079A51434018E04909784018DF4928E0F4
:103D1000D74800780028204600D138E2D5480078FE
:103D2000401EC1B203290AD840B28000D8490858C1
:103D30000178491CCAB2092A00D900210170D5486E
:103D400000780C994843D4490978069A51430818D9
:103D5000D2490978079A51434018D1490978401847
:103D6000D0490880000410D00020CF490870119974
:103D70003970109ACD490A70CD490978002908D0C8
:103D8000CC490A700B9939704BE010983870204676
:103D9000FDE1C9490978002938D0C6480270089861
:103DA0003DE03A7052E03A7098E03A70DEE03A70E6
:103DB00024E13A70B0E1C0490978002938D0BD4902
:103DC0000A7008993BE0BC490978002978D0B949C4
:103DD0000A7008997BE0B8490978002900D1B7E05A
:103DE000B4490A700899BAE0B3490978002900D1AA
:103DF000F6E0B0490A700899F9E0AF49097800295E
:103E000000D17BE1AB490A7008997EE1AB490978A2
:103E1000002900D1BBE11098A649087004983870B9
:103E20000020A7490870A7490870A7490870AEE1AB
:103E3000A2490978002909D09E490A70049939706D
:103E40009F4908709F4908709F49087018460C9D4B
:103E500029461F461393FCF7A5F90E469B4801809F
:103E600064210F913046FCF79DF90C46984801807B
:103E7000B81B294601F01CFF0546964805700A212B
:103E80000E912046FCF78EF90F4693480180301BB7
:103E90000F9901F00DFF064690480670E01B0E9941
:103EA00001F006FF8E490870099948430A994E436C
:103EB0008C494D4313996918891908188A4964E196
:103EC0007E490978002909D07A490A700499397025
:103ED0007B4908707B4908707B49087018460C9D27
:103EE00029461F461393FCF75DF90E46774801807B
:103EF00064210F913046FCF755F90C467448018057
:103F0000B81B294601F0D4FE0546784805700A2101
:103F10000E912046FCF746F90F466F480180301B92
:103F20000F9901F0C5FE064671480670E01B0E9918
:103F300001F0BEFE6F490870099948430A994E4343
:103F400068494D4313996918891908186A491CE191
:103F50005A490978002909D056490A7004993970DC
:103F600057490870574908705749087018460C9D02
:103F700029461F461393FCF715F90E465348018056
:103F800064210F913046FCF70DF90C465048018032
:103F9000B81B294601F08CFE0546F54805700A213C
:103FA0000E912046FCF7FEF80F464B480180301B6F
:103FB0000F9901F07DFE0646EE480670E01B0E9953
:103FC00001F076FEEC490870099948430A994E437E
:103FD00044494D431399691889190818E749D4E0F1
:103FE00036490978002909D032490A700499397094
:103FF00033490870334908703349087018460C9DDE
:1040000029461F461393FCF7CDF80E462F48018032
:1040100064210F913046FCF7C5F80C462C4801800E
:10402000B81B294601F044FE0546144805700A21D4
:104030000E912046FCF7B6F80F4627480180301B4A
:104040000F9901F035FE06460D480670E01B0E99EB
:1040500001F02EFE0B490870099948430A994E4316
:1040600020494D43139969188919081806498CE0AD
:1040700018010020E800002090610000D10000201D
:104080001A01002023010020E2000020A4000020EB
:1040900070610000D50000201E01002027010020D3
:1040A000E6000020A2000020C7000020ED00002054
:1040B0008C000020130100208F00002098000020B9
:1040C000140100200E0100200D010020C20000207C
:1040D00036010020D2000020F80000201B01002043
:1040E0002401002018FCFFFFE3000020D300002083
:1040F0001C01002025010020E4000020A0490978CF
:10410000002909D09F490A70049939709E490870A6
:104110009E4908709E49087018460C9D29461F4606
:104120001393FCF73FF80E469A48018064210F91E3
:104130003046FCF737F80C4697480180B81B2946F3
:1041400001F0B6FD0546954805700A210E912046FE
:10415000FCF728F80F4692480180301B0F9901F0B8
:10416000A7FD06468F480670E01B0E9901F0A0FDE2
:104170008D490870099948430A994E438B494D432C
:10418000139969188919081889490870129889497A
:10419000087089480078002801D100F03BFE87486C
:1041A00000880122002432281346159F00D323469D
:1041B000834909883229154600D32546814E368821
:1041C0001396322E3E4600D32E46002E3D4600D199
:1041D0001D467D4B1B88322B164600D32646002DEC
:1041E00000D13746794D2D88322D00D32246002F3D
:1041F000159C00D11446012C754F764E25D14242B4
:1042000042414842484113990029159C214600D05B
:1042100001460029204600D1104659425941002844
:10422000204600D10846694269410028204600D155
:104230000846012815D13878052804D80121814085
:104240002520014223D1012020E0387803281ED107
:104250000020614908701198387001205F4908708A
:1042600015E047480078002811D15D480078002803
:104270000DD15C480078000609D138780D990843C3
:10428000022804D000205449087005983870564818
:104290000078002833D008211498FDF7CFFB0025C3
:1042A000E8431E901D901C901B901A901990189036
:1042B0001790012417A920222046FEF70DFC0221A9
:1042C0004A48FDF7BBFB4A4817901798411E1791C3
:1042D0000028FAD11E951D951C951B951A951995C8
:1042E0001895179517A920222046FEF7F5FB022105
:1042F0003E48FDF761FB3C4805703E4804703E486F
:104300000078002821D000243C48047001201021AE
:1043100000F0B4FE0220052100F0B0FE03200B21C6
:1043200000F0ACFE04252846214600F0A7FE3448E4
:104330000078002800D190E005200E2100F09EFEBC
:1043400006200A2100F09AFE9AE0307806282D4CCB
:10435000264D00D99BE14000784480884000874486
:1043600053001D019400C200F0004A017601C046CE
:10437000D40000201D01002026010020E5000020BF
:104380009800002013010020140100200E010020DD
:104390000D010020C200002036010020D5000020C1
:1043A000F80000201E0100202701002018FCFFFF5C
:1043B000E60000206F000020B2000020B8000020BE
:1043C000B4000020A4000020A6000020A2000020CD
:1043D0009900002008010020C7000020ED00002007
:1043E0008F0000208C000020F2000020000C004014
:1043F000400D0300EE000020EA00002082000020B3
:104400008B0000206B0000200020FD490870012176
:10441000FC4A1170FC490870FC480078002803D160
:10442000FB48007800280ED0FA48007801280AD10D
:10443000F9480078401EC0B2032804D80621081AA3
:104440000A2100F01BFEF3480078002800D011E19B
:10445000F2480288387800210AE1F1480470F148F6
:104460000470F148047005200F24214600F006FE78
:104470000620214600F002FE3878052800D13D7064
:10448000FCF74CFFF94CFA4D01E10020F0490870AF
:104490000121F04A1170F0490870F24800780128B3
:1044A00017D1EE480078002801D100F04DFC032020
:1044B0000A24214600F0E2FD0420214600F0DEFD42
:1044C00005202146E94C00F0D9FD06200A2100F024
:1044D000D5FDE4480078002800D0CBE0E54802880C
:1044E00038780221C4E00020D94908700121D94A56
:1044F0001170D9490870DB480078012817D1D748D6
:104500000078002801D100F031FC03200A24214664
:1045100000F0B4FD0420214600F0B0FD0520214646
:10452000D24C00F0ABFD06200A2100F0A7FDCD48DB
:104530000078002800D09DE0CF4802883878032119
:1045400096E00020C24908700121C24A1170C24998
:104550000870C4480078012817D1C04800780028A6
:1045600001D100F015FC03200A24214600F086FD4D
:104570000420214600F082FD05202146BB4C00F0BE
:104580007DFD06200A2100F079FDB648007800285C
:1045900070D1BA4802883878042169E00020AC491B
:1045A00008700121AB4A1170AB490870AD48007822
:1045B000012817D1A9480078002801D100F0FAFBA2
:1045C00003200A24214600F059FD0420214600F072
:1045D00055FD05202146A54C00F050FD06200A217E
:1045E00000F04CFD9F480078002843D1A448028881
:1045F000387801213CE00020954908700121954A56
:1046000011709549087097480078012816D1934891
:104610000078002800D1DDE303200A24214600F0C1
:104620002DFD0420214600F029FD052021468F4C58
:1046300000F024FD06200A2100F020FD89480078C2
:10464000002817D18F4802883878052110E0012012
:104650008149087000217F4A1170804A1278002A2F
:1046600000D1F1E27A4801708748028838780F213A
:10467000FDF726FA854801784842484139780029F3
:10468000159900D00146002901D1FDF73DFD804874
:1046900000788049097800291AD07F4A1278002AC8
:1046A00016D07E4A1278002A12D0002810D17C48F9
:1046B00000784F282DD302212846FDF77DF90020F0
:1046C00078490870784908700121714A11701DE01D
:1046D000002921D0754909784A1E9141744A1278FF
:1046E000002A159A00D10A46012A15D1002813D1B3
:1046F0006B4800784F280CD302212846FDF75CF95F
:1047000001206349087000206649087069490880E3
:1047100002E0012063490870FCF7B8FB102128462D
:10472000FDF787F900281ED063480078002802D1E1
:104730000120614908700020604908702070202124
:104740002846FDF776F9002838D000245C4804702C
:104750005C480078002800D1D2E000245948047059
:10476000FCF7DCFDCCE0207800280ED102212846A1
:10477000FDF764F9544817901798411E17910028C7
:10478000FAD102212846FDF717F935480178334858
:1047900002782378002B49D1002A47D1002945D13E
:1047A00000214A4801700120494A10703278521C99
:1047B0003270D2B2072AC1D13170BFE745480078C4
:1047C0000124002800D09BE002212846FDF736F99D
:1047D0003D4817901798411E17910028FAD10221E1
:1047E0002846FDF7E9F81D490878002876D0002012
:1047F0001C4A10700124384A147008707CE0C046CE
:1048000082000020A8000020AE000020B60000209A
:1048100018010020E000002038010020AA0000203C
:104820006900002068000020BD0000200120002B4E
:1048300084D1002A00D1EEE10B480078411CCAB2B5
:104840000120042A024600D80A4607490A7075E783
:1048500082000020A8000020AE000020B60000204A
:1048600018010020E0000020380100206B0000202B
:10487000000C0040B4000020B8000020A60000207A
:10488000A4000020A2000020700000200C010020E5
:10489000140100208B0000208C0000201301002058
:1048A0000E0100200D0100201201002098000020C0
:1048B0008F00002016010020E90000206A0000207F
:1048C0006C000020CA0000208813000009010020AD
:1048D000070100206D000020E8000020E948007872
:1048E00000280DD00020E84908700124E7490C7029
:1048F000E4490870E6480470E6480470E64804702D
:10490000E6480470E6480078012840D1387800284D
:104910003DD00D99C943C01E884201D80D9838700A
:10492000DD480078002832D00024DB4804700221E2
:10493000149D2846FDF740F804212846FDF73CF871
:104940000120D8490870D8490870D8490C60D84966
:104950000C70D8490C60D8490C70D8490C60347080
:10496000D749097800290BD1D6490978002907D100
:10497000D5490978002903D1D4490C70D44908706D
:10498000D4480470D4480470D4480480D44D202105
:10499000D448FDF74EF83978002831D000292FD0BF
:1049A000D1480078002800D19EE00221149D2846BD
:1049B000FDF702F8042428462146FCF7FDFF0020FD
:1049C000BA490860BA490870BA490860BA4908701B
:1049D000C6490860C6490870B849086030700121AE
:1049E000C44A1170C04A10703A78002A04D1B74AFC
:1049F00010703C70B64A1170BF490860B84D73E042
:104A0000FD20014239D01021B648FDF712F80028E8
:104A100033D1AD48007800282FD1AA48007800286B
:104A20002BD1B4480178484248419D4909784A1E33
:104A30009141A34A1278002A159A00D10A46002A09
:104A4000159900D10146002917D10124AB48047003
:104A5000A5480470AA4804700221149D2846FCF75A
:104A6000EDFF042128469E4DFCF7E8FF08983070C2
:104A70008F48047000209F4908709D4800780228E4
:104A800007D0002830D19C48006800282CD1012094
:104A900028E03878002824D09A480078002820D1CF
:104AA0008948007800281CD186480078002818D151
:104AB00083480078002814D1002087490870854970
:104AC00008700B98387001208F4908707C49087075
:104AD0000221149C2046FCF76FFF04212046FCF7BE
:104AE0006BFF00208249087010217E48FCF7A1FF6F
:104AF000002832D000248548047085480470387836
:104B0000FD21084201D1FEF799FD824F3878062831
:104B100076D30125644805707F48047061480570AC
:104B20000221149E3046FCF747FF042130467B4E9D
:104B3000FCF742FF7A4804705C48046052480470F5
:104B4000634805706148047076480570644D764886
:104B500004703C70704FFEF771FD00206D490870C5
:104B6000714908703978002901D0FEF767FD67495F
:104B7000097804294AD311993970654908704A495E
:104B8000087048490870514908700121504A117055
:104B9000584A1170634A1278002A01D1FEF74EFD7F
:104BA000624A1070624A1080624A1070624A107045
:104BB000624A1070624A10804D4A10704E4A10606E
:104BC000444A1070504A1070434A10705D4A107089
:104BD0003B4A1278002A0B9A09D13A4A1278002AE5
:104BE000089A04D1384A1278002A049A02D0464B17
:104BF00019703A704B4908702C490860FEF71EFD89
:104C0000012049490870F44FFEF718FD0120404982
:104C10000870FEF713FD002900D18FE5F5480078F4
:104C2000411CCAB20120042A024600D80A46F149B2
:104C30000A7016490978491CCAB2042A024600D8EB
:104C40000A46FB490A7079E5F84A1278002A00D131
:104C5000CFE0DD480170E5480078002800D103E589
:104C6000012800D006E5F2480078401E032800D94C
:104C700000E5C046784400794000874401C2C4C6BC
:104C80000620C3E018010020E0000020E80000201A
:104C9000F0000020CA000020F40000206D00002079
:104CA000BC00002069000020680000209400002063
:104CB0002C010020300100202D0100209C0000204C
:104CC0008C0000208F00002098000020C7000020EA
:104CD000ED000020140100200E010020160100202C
:104CE000000C004000040040EB000020FC0000200D
:104CF00012010020EC000020CC000020B0000020B9
:104D0000B1000020890000201301002005010020CF
:104D100006010020840000209900002008010020E6
:104D2000B6000020EF000020850000208E0000204B
:104D30001001002090000020AF000020DC000020C7
:104D4000DE0000200D010020B8480078002801D1C5
:104D5000FFF7BFFBB6480078401EC0B2032801D958
:104D6000FFF7B7FB0621081AFFF7B0FBAF48007842
:104D7000002801D1FFF7DBFBAD480078401EC0B230
:104D8000032801D9FFF7D3FB0621081AFFF7CCFB54
:104D9000A6480078002801D1FFF7F7FBA448007867
:104DA000401EC0B2032801D9FFF7EFFB0621081A05
:104DB000FFF7E8FB9D480078002800D112E49C48EA
:104DC0000078401EC0B2032800D90BE40621081A5F
:104DD000FFF705FC95480078002800D12EE49448A0
:104DE0000078401EC0B2032800D927E40621081A23
:104DF00021E4754908707B480068FBF795FF02467F
:104E000034E4052002E0042000E003200A2100F041
:104E100035F92FE400268248067008210F91149876
:104E2000FCF7CAFD102001245E4D29462246FDF7FD
:104E300053FE112029462246FDF74EFE1220294638
:104E40002246FDF749FE5C4806705A4806705B48EA
:104E5000067056480670564806705A4806705848FC
:104E600006700A2720461394394600F007F90220FD
:104E70000E900B2100F002F903252846394600F078
:104E8000FDF81198394600F0F9F80520394600F090
:104E9000F5F80620394600F0F1F80720314600F019
:104EA000EDF80F98294600F0E9F813203D49224615
:104EB000FDF712FE45480670394F38460E9D2946CB
:104EC000FCF77AFD3846119C2146FCF775FD4B48EE
:104ED0001399017067480170149F38462146FCF70A
:104EE0006BFD38463C4F2946FCF766FD139A444853
:104EF00002703F4806702C4806703F4806703C70B0
:104F000036480670384806703148067045480670C5
:104F10004F4806704F4806704F4806704F4806705D
:104F2000384806702E480270384806804C48067093
:104F30004C48067042480670434806804148067057
:104F400031480670354806603748067030480670AC
:104F5000314806702F48067036480670374806609C
:104F600035480670394806703F4806703F4806705D
:104F70003F480270404817901798411E179100282B
:104F8000FAD127480270064DFEF757FB312F01D9A1
:104F9000FDF7C7FF0F480E990170FDF7C2FFC0462D
:104FA000000C004072000020BC000020B700002070
:104FB000A800002083000020B0000020B1000020E5
:104FC000690000206800002082000020AE00002060
:104FD000BD0000200801002099000020C70000202B
:104FE000ED0000209C000020B6000020E000002022
:104FF0002C0100203801002021010020EC000020BD
:10500000F4000020F1000020120100201001002017
:10501000130100200D0100200E010020CC00002013
:105020000401002089000020140100201801002044
:10503000E80000208C0000208F0000209400002059
:10504000AF000020DC000020DE00002098000020DF
:10505000870000208A0000208600002088000020B1
:105060008E00002090000020850000208400002099
:10507000EF000020E900002088130000B0B5401EBA
:10508000072801D900F0C0FD4000C0467844808860
:105090004000874407003C0066009200BA000E0101
:1050A0004F01ED00102901D900F0AEFD880001A1EB
:1050B00008588746F9500000795500008B550000CC
:1050C0009B550000AB550000BD550000CF550000BA
:1050D000E1550000FF550000095C00001356000078
:1050E000095C0000095C0000095C0000095C00002C
:1050F000255600003756000082480078824C214631
:10510000002801D100F07EFC0B3100F08DFC0B2952
:1051100001D900F079FD880001A108588746C046F2
:10512000515100000F540000215400003154000080
:1051300041540000535400006554000077540000AF
:1051400095540000095C000085590000A954000036
:105150006E4800786C4C2146002800D1DCE30B310E
:10516000E8E30B2901D900F04FFD880001A10858A0
:105170008746C046A5510000495600005B56000016
:105180006B5600007B5600008D5600009F560000B5
:10519000B1560000CF560000E3560000F55600005F
:1051A000075700005A480078574C2146002801D183
:1051B00000F02AFC0B3100F091FC0A2901D900F023
:1051C00023FD880001A108588746C046F951000018
:1051D000BB540000CD540000DD540000ED5400002D
:1051E000FF540000115500002355000041550000F8
:1051F000555500006755000046480078424C21464E
:10520000002800D18AE30B31F4E30F2901D900F023
:10521000FBFC880001A108588746C0465D5200008B
:105220001558000027580000375800004758000064
:10523000595800006B5800007D5800008F5800003E
:10524000A3580000B5580000095C0000095C00008C
:10525000095C0000BF580000D15800002E480078BB
:10526000294C2146002800D1D0E30B3100F0B1FCDD
:10527000072901D900F0C8FC880001A10858874619
:10528000A152000083530000A5530000E353000027
:10529000095C0000FD530000B5530000C753000037
:1052A0001E480078184C2146002800D119E30B3124
:1052B00018E30F2901D900F0A7FC880001A10858C4
:1052C0008746C04621530000295700003B57000085
:1052D0004B5700005B5700006D5700007F570000E0
:1052E000AD570000CB570000DF570000F15700001A
:1052F000095C0000095C0000095C0000095C00001A
:1053000003580000B7000020720000206900002050
:10531000680000208300002082000020B1000020EF
:10532000FD480078FD4C2146002800D170E30B3188
:1053300000F00DFC0E2912D0002901D000F064FC11
:10534000F7480078F54C0028214600D0611C0C205D
:1053500001252A46FDF7C0FB0D2000F051FCF04866
:105360000078EE4C2146002801D00F3100E00E31CC
:105370000C2001252A46FDF7AFFB09340D2000F073
:105380003FFCE8480078E54D0028294600D0691C1C
:105390000E2001242246FDF79FFBA91D0F20224667
:1053A00000F030FCFC480078FA4C002800D1A0E264
:1053B000E11D9FE2F8480078F64C2146002800D114
:1053C0009FE20E31A0E2F4480078F24C002821461A
:1053D00000D0611C0E2001252A46FDF77DFB0E340E
:1053E00098E2ED480078EB4C0028214600D0611C83
:1053F0000E2001252A46FDF76FFB8BE2E648007878
:10540000E44C2146002800D17DE20D317CE2E348E6
:105410000078E04D0028294600D194E2691C92E210
:10542000DE480078DB4C002800D179E2E11D78E20B
:10543000DA480078D74C002800D17AE2611D79E281
:10544000D6480078D34D2946002800D17AE20D31A4
:1054500079E2D2480078CF4C2146002800D17BE287
:105460000D317CE2CD480078CA4C2146002800D19D
:1054700074E20F3173E2C9480078C64C0028214617
:1054800000D0611C022001252A46FDF725FB0E34C1
:105490000320B5E3C1480078BE490C460F3400280C
:1054A00000D164E2214663E2BC480078B94C002890
:1054B000214600D16EE2611C6CE2B9480078B54D1E
:1054C0000028294600D178E2691C76E2B4480078C9
:1054D000B04C002800D164E2E11D63E2B0480078DE
:1054E000AC4C002800D165E2611D83E2AC48007835
:1054F000A84D2946002800D15EE20D315DE2A848A2
:105500000078A44C2146002800D15FE20D3160E212
:10551000A34800789F4C2146002800D158E20F3163
:1055200057E29F4800789B4C0028214600D0611C20
:10553000062001252A46FDF7CFFA0E3407205FE347
:105540009748007893490C460F34002800D148E270
:10555000214647E2924800788E4C2146002800D12F
:1055600047E20D3146E28E4800788A4C00282146F9
:1055700000D137E2611C35E28A480078854D002869
:10558000294600D159E2691C57E286480078814CCF
:10559000002800D13EE2E11D3DE2824800787D4CCA
:1055A000002800D13FE2611D3EE27E480078794D3F
:1055B0002946002800D13FE20D313EE279480078CB
:1055C000744C2146002800D140E20D3141E275487B
:1055D0000078704C2146002800D139E20F3138E2C2
:1055E000704800786B4C0028214600D0611C0020D8
:1055F00001252A46FDF770FA0E34284600E3694873
:10560000007864490C460F34002800D129E2214675
:1056100028E2644800785F4C0028214600D121E24E
:10562000611C1FE25F4800785A4C2146002800D1D7
:105630001FE20F311EE25B480078564C21460028DD
:1056400000D11FE20F311EE257480078514D00286B
:10565000294600D12BE2691C29E2534800784D4CC1
:10566000002800D117E2E11D16E24F480078494CAE
:10567000002800D118E2611D30E24B480078454D0A
:105680002946002800D111E20D3110E24648007889
:10569000404C2146002800D112E20D3113E242486D
:1056A00000783C4C2146002800D10BE20F310AE281
:1056B0003D480078374C0028214600D0611C04206A
:1056C00001252A46FDF708FA0E34052098E23648EF
:1056D000007830490C460F34002800D1FBE1214608
:1056E00005E2314800782B4C2146002800D1F4E136
:1056F0000D31F3E12C480078264C0028214600D1DA
:10570000F5E1611CF3E128480078224C002800D123
:10571000ECE1611DEBE1C046A80000207200002012
:10572000B0000020B100002019480078194D002871
:10573000294600D1EEE1691CECE115480078154CD2
:10574000002800D1DAE1E11DD9E111480078114CBF
:10575000002800D1DBE1611DF9E10D4800780D4D15
:105760002946002800D1D4E10D31D3E10848007862
:10577000084C2146002800D1D5E10D31D6E104487E
:105780000078044C2146002800D1CEE10F31CDE154
:10579000A800002072000020B10000206900002055
:1057A00083000020B700002068000020FB4800783C
:1057B000FB4C0028214600D0611C0A2001252A4606
:1057C000FDF78AF90E340B201AE2FE480078FE49F4
:1057D0000C460F34002800D1B0E12146AFE1F94872
:1057E0000078F94C2146002800D1AFE10D31AEE13F
:1057F000F4480078F44C0028214600D19FE1611C58
:105800009DE1F0480078F04C2146002800D1A6E147
:105810000F31A5E1ED480078EB4D0028294600D175
:10582000B1E1691CAFE1E9480078E74C002800D1FC
:105830009EE1E11D9DE1E5480078E34C002800D1A0
:105840009EE1611DC5E1E1480078DF4D2946002851
:1058500000D197E10D3196E1DC480078DA4C214621
:10586000002800D198E10D319DE1FC480078FA4C08
:105870002146002800D195E10F3194E1F7480078E6
:10588000F54C0028214600D1ABE1611CA9E1F348A9
:105890000078F1490C460F34002800D18AE12146F6
:1058A00089E1EE480078EC4C2146002800D18FE1D8
:1058B0000D318EE10820E84C012521467DE1E748C5
:1058C0000078E54C2146002800D189E10B3188E1C0
:1058D000E2480078E04C2146002800D188E10F31F1
:1058E00087E10A310E2001252A46FDF7F5F80F342D
:1058F00010E0A11D0E2001252A46FDF7EDF80D341C
:1059000008E00F3100E00C310E2001252A46FDF79A
:10591000E3F80B340F2073E10A310BE00A3169E040
:10592000A11D022001252A46FDF7D6F80D340320DB
:1059300066E1211D022001252A46FDF7CDF80F342E
:1059400003205DE10C31022001242246FDF7C4F85A
:10595000A91D0320224655E10C3100E00E31022042
:1059600001252A46FDF7B8F80B34032048E10E3133
:10597000022001252A46FDF7AFF8032021462A46DA
:10598000FDF7AAF8B6480078B34C002801D0611D95
:1059900000E0211D022001252A46FDF79DF8032085
:1059A0002EE1A11D062001252A46FDF795F80D34AC
:1059B000072025E1211D1DE00C310620012422468F
:1059C000FDF78AF8A91D072022461BE10C3100E0F3
:1059D0000E31062001252A46FDF77EF80B340720FC
:1059E0000EE10E31062001252A46FDF775F8072045
:1059F00006E10C31062001252A46FDF76DF80F342B
:105A00000720FDE00A310FE00A3167E00A31E0E0EB
:105A10000A319CE0A11D002001252A46FDF75CF813
:105A20000D342846ECE0211D002001252A46FDF713
:105A300053F80F342846E3E00C31002001242246BD
:105A4000FDF74AF8A91D20462246DBE00C3100E0B4
:105A50000E31002001252A46FDF73EF80B3428467A
:105A6000CEE00E31002001252A46FDF735F8284604
:105A7000C6E00E31002001252A46FDF72DF8083436
:105A80002846BDE00E31002001252A46FDF724F806
:105A900009342846B4E0A11D042001252A46FDF75B
:105AA0001BF80D340520ABE0211D17E00C3104205C
:105AB00001242246FDF710F8A91D05202246A1E089
:105AC0000C3100E00E31042001252A46FDF704F8D0
:105AD0000B34052094E00E3109E00C31042001253F
